:100000000C945E000C9486000C9486000C94860080
:100010000C9486000C9486000C9486000C94860048
:100020000C9486000C942B0C0C9486000C94860087
:100030000C9486000C9486000C9486000C94860028
:100040000C943F020C9486000C9413040C94ED0362
:100050000C9486000C941C050C9486000C9486006D
:100060000C9486000C9486000000000024002700F9
:100070002A0000000000250028002B0004040404CE
:100080000404040402020202020203030303030342
:10009000010204081020408001020408102001021F
:1000A00004081020000000080002010000030407FB
:1000B0000000000000000000BE0A270D11241FBE32
:1000C000CFEFD8E0DEBFCDBF11E0A0E0B1E0ECEDB6
:1000D000FFE102C005900D92A838B107D9F725E0DD
:1000E000A8E8B1E001C01D92A230B207E1F710E02C
:1000F000CEE5D0E004C02197FE010E94BA0FCC35B6
:10010000D107C9F70E94DD0C0C94EC0F0C94000091
:10011000CF92DF92EF92FF920F931F93CF93DF93D3
:100120006C017A018B01C0E0D0E0CE15DF0581F0D3
:10013000D8016D918D01D601ED91FC910190F08176
:10014000E02DC6010995892B11F02196EECF7E0195
:10015000C701DF91CF911F910F91FF90EF90DF903A
:10016000CF900895FC01538D448D252F30E0842FCE
:1001700090E0821B930B541710F0CF9608950197CF
:100180000895FC01918D828D981761F0828DDF01B9
:10019000A80FB11D5D968C91928D9F5F9F73928F7A
:1001A00090E008958FEF9FEF0895FC01918D828D6F
:1001B000981731F0828DE80FF11D858D90E008953C
:1001C0008FEF9FEF0895FC01918D228D892F90E094
:1001D000805C9F4F821B91098F739927089588E84F
:1001E00091E00E94E30021E0892B09F420E0822FB6
:1001F0000895FC01848DDF01A80FB11DA35ABF4FE4
:100200002C91848D90E001968F739927848FA68915
:10021000B7892C93A089B1898C91837080648C9369
:10022000938D848D981306C00288F389E02D808118
:100230008F7D80830895EF92FF920F931F93CF934A
:10024000DF93EC0181E0888F9B8D8C8D981305C026
:10025000E889F989808185FD26C0F62E0B8D10E096
:100260000F5F1F4F0F731127E02E8C8DE8120CC00B
:100270000FB607FCFACFE889F989808185FFF5CFB1
:10028000CE010E94F900F1CF8B8DFE01E80FF11D28
:10029000E35AFF4FF0829FB7F8940B8FEA89FB89EE
:1002A000808180620AC09FB7F894EE89FF896083DD
:1002B000E889F98980818370806480839FBF81E0B1
:1002C00090E0DF91CF911F910F91FF90EF900895F3
:1002D000CF93DF93EC01888D8823C9F0EA89FB89ED
:1002E000808185FD05C0A889B9898C9186FD0FC0E4
:1002F0000FB607FCF5CF808185FFF2CFA889B989B9
:100300008C9185FFEDCFCE010E94F900E7CFDF9100
:10031000CF91089580E090E0892B29F00E94EF00B2
:1003200081110C94000008956115710579F0FB01AD
:1003300001900020E9F73197AF01461B570BDC0114
:10034000ED91FC910280F381E02D099480E090E032
:1003500008950E94E70F90E0FC01EC55FF4F2491B7
:10036000FC01E057FF4F3491FC01E458FF4FE4914A
:10037000EE2309F43CC0222339F1233091F038F404
:100380002130A9F0223001F584B58F7D12C02730CD
:1003900091F02830A1F02430B9F4809180008F7D55
:1003A00003C0809180008F77809380000DC084B55A
:1003B0008F7784BD09C08091B0008F7703C0809192
:1003C000B0008F7D8093B000F0E0EE0FFF1FEE587D
:1003D000FF4FA591B4919FB7F894611104C08C911F
:1003E0003095382302C0EC913E2B3C939FBF08957B
:1003F000CF93DF9390E0FC01E057FF4F2491FC0185
:10040000E458FF4F8491882361F190E0880F991F91
:10041000FC01E859FF4FC591D491FC01EE58FF4F04
:10042000A591B491611109C09FB7F8948881209576
:1004300082238883EC912E230BC0623061F49FB736
:10044000F8948881322F309583238883EC912E2B6A
:100450002C939FBF06C08FB7F894E8812E2B28837A
:100460008FBFDF91CF9108958230910538F0880FCA
:10047000991F880F991F05970197F1F708951F920B
:100480000F920FB60F9211242F933F938F939F9348
:10049000AF93BF9380912A0290912B02A0912C02DE
:1004A000B0912D023091290223E0230F2D3720F443
:1004B0000196A11DB11D05C026E8230F0296A11DBE
:1004C000B11D2093290280932A0290932B02A093BE
:1004D0002C02B0932D028091250290912602A091CA
:1004E0002702B09128020196A11DB11D809325021B
:1004F00090932602A0932702B0932802BF91AF9158
:100500009F918F913F912F910F900FBE0F901F9051
:100510001895AF92BF92CF92DF92EF92FF920F9316
:100520001F93CF93DF93CDB7DEB7A1970FB6F894A3
:10053000DEBF0FBECDBF5C014115510541F4DC01AA
:10054000ED91FC910190F081E02D099525C019A253
:10055000423008F44AE080E090E08E010F5D1F4FCA
:10056000C42ED12CE12CF12CA70196010E94C50FBD
:10057000E62FCA01B90101501109EA3014F4E05D17
:1005800001C0E95CD801EC93232B242B252B61F7C8
:10059000B801C5010E949401A1960FB6F894DEBF80
:1005A0000FBECDBFDF91CF911F910F91FF90EF90C4
:1005B000DF90CF90BF90AF9008952F923F924F92CF
:1005C0005F926F927F928F929F92AF92BF92CF92E3
:1005D000DF92EF92FF920F931F93CF93DF93CDB7EC
:1005E000DEB7A1970FB6F894DEBF0FBECDBF8C016A
:1005F0004A015B01D22E9A01AB01C501B4010E94F0
:10060000C00F882319F06BE771E027C02401350182
:10061000E89477F82FEF3FEF4FE75FE7C301B201B0
:100620000E94C00F81110DC02FEF3FEF4FE75FE732
:10063000C301B2010E94C10D18161CF46FE771E0EE
:100640000CC02FEF3FEF4FE75FE4C501B4010E94FC
:10065000200F181634F463E871E0C8010E94940179
:10066000A1C02FEF3FEF4FE75FECC501B4010E943F
:10067000C10D87FDF0CF20E030E0A901C501B40134
:100680000E94C10D87FF0FC0D801ED91FC91019030
:10069000F081E02D6DE2C80109951C01B7FAB09414
:1006A000B7F8B09402C0212C312CF12C60E070E03E
:1006B00080E09FE3FD1440F420E030E040E251E4AC
:1006C0000E94C60DF394F6CFA50194010E94550D2A
:1006D0004B015C010E943F0E562E672E782EC92ECC
:1006E00019A2262F372F482F592F7E01B1E2EB0E8A
:1006F000F11CCA01B9012AE030E040E050E00E945C
:10070000C50F605DF70162937F0121153105410539
:10071000510579F7BF01C8010E9494017101E80EEB
:10072000F91EDD20F1F1652D762D872D9C2D0E947F
:100730006E0E9B01AC01C501B4010E94540D4B012A
:100740005C01D801ED91FC910190F081E02D6EE209
:10075000C8010995E80EF91E20E030E040E251E4BE
:10076000C501B4010E94250F2B013C010E943F0EE0
:100770004B015C014AE050E0C8010E948902E80E8A
:10078000F91EB40180E090E00E946E0E9B01AC0166
:10079000C301B2010E94540D4B015C01DA94D110E7
:1007A000DBCFC701A1960FB6F894DEBF0FBECDBF59
:1007B000DF91CF911F910F91FF90EF90DF90CF903D
:1007C000BF90AF909F908F907F906F905F904F9071
:1007D0003F902F9008950C9494011F920F920FB6A2
:1007E0000F9211242F933F934F935F936F937F93B7
:1007F0008F939F93AF93BF93EF93FF9388E891E01C
:100800000E94F900FF91EF91BF91AF919F918F915D
:100810007F916F915F914F913F912F910F900FBEFC
:100820000F901F9018951F920F920FB60F921124E0
:100830002F938F939F93EF93FF93E0919801F09103
:1008400099018081E0919E01F0919F0182FD12C08B
:1008500090818091A1018F5F8F732091A2018217F7
:1008600051F0E091A101F0E0E857FE4F958F8093A1
:10087000A10101C08081FF91EF919F918F912F91F4
:100880000F900FBE0F901F901895CF92DF92EF92AE
:10089000FF921F93CF93DF93EC016A017B01122F2C
:1008A000E889F98982E080834115514E610571051F
:1008B000B1F060E079E08DE390E0A70196010E943D
:1008C000C50FDA01C9010197A109B109B695A7952C
:1008D000979587959C01211580E13807A8F0E88954
:1008E000F989108260E874E88EE190E0A701960132
:1008F0000E94C50FDA01C9010197A109B109B69596
:10090000A795979587959C01EC85FD853083EE85AD
:10091000FF852083188EEC89FD891083EA89FB8985
:10092000808180618083EA89FB89808188608083FF
:10093000EA89FB89808180688083EA89FB898081DC
:100940008F7D8083DF91CF911F91FF90EF90DF909B
:10095000CF9008950F931F93CF93DF93CEE2D2E011
:100960000AE612E088859985892B39F0EA81FB81B6
:100970008C819D810995198618862A96C017D10702
:1009800089F7DF91CF911F910F910895FC0120818C
:100990003181D901AA0FBB1F220F331F220F331F32
:1009A000220F331FA20FB31FA25DBD4F2AE001909B
:1009B0000D922A95E1F7FC0180819181FC01EE0FF7
:1009C000FF1F880F991F880F991F880F991FE80F25
:1009D000F91FE25DFD4F81E090E09783868380916F
:1009E0006C0290916D02892B21F5F894EAE7F0E012
:1009F000808187608083ACE7B0E08C9180648C93C9
:100A00008C918F7D8C9380818F7D808380818068A5
:100A100080838081886080838C91807F8C938081AB
:100A200080648083789481E090E090936D0280935D
:100A30006C0281E090E008951F920F920FB60F9222
:100A400011242F933F934F935F936F937F938F93D3
:100A50009F93AF93BF93EF93FF9380917800209182
:100A6000790090E0922B90936B0280936A028091C0
:100A70006E0290916F0220916A0230916B02FC012C
:100A8000EE0FFF1F880F991F880F991F880F991F5E
:100A9000E80FF91FE25DFD4F3583248380916E02DC
:100AA00090916F02FC01EE0FFF1F880F991F880FB6
:100AB000991F880F991FE80FF91FE25DFD4F81E034
:100AC00090E09187808780916E0290916F02892BD0
:100AD00079F481E090E090936F0280936E02ECE7EE
:100AE000F0E08081807F808380818160808309C085
:100AF00010926F0210926E02ECE7F0E08081807F2E
:100B000080838AEA94E00E941106EAE7F0E080819F
:100B100080648083FF91EF91BF91AF919F918F91FE
:100B20007F916F915F914F913F912F910F900FBEE9
:100B30000F901F9018952FB7F894809170029091A4
:100B40007102892B19F422239CF408C08091700251
:100B500090917102892B91F0222384F08091700290
:100B600090917102019690937102809370020895A2
:100B70008091700290917102892B81F708952FB7AF
:100B8000F8948091700290917102181619068CF4F5
:100B900080917002909171020197909371028093FD
:100BA00070028091700290917102892B29F47894DF
:100BB000089522230CF478940895109274021092F0
:100BC00073021092720281E008950E949B05809149
:100BD0007202882311F10E94BF05E0917402F0E0D7
:100BE000EE0FFF1FEB58FD4F0190F081E02D0995AE
:100BF0000E949B058091740290E001968F7090781E
:100C0000992324F40197806F9F6F0196809374025B
:100C1000809172028150809372020E94BF0581E030
:100C20000895CF93DF93EC010E949B0520917202FF
:100C30002031D0F48091730290E0FC01EE0FFF1F91
:100C4000EB58FD4FD183C08301968F709078992324
:100C500024F40197806F9F6F0196809373022F5F3A
:100C600020937202C1E001C0C0E00E94BF058C2F3A
:100C7000DF91CF910895CF93DF93209100013091C0
:100C800001018217930750F0E2E0F1E0C1E0D0E00B
:100C90002191319182179307D8F438C080910A01CD
:100CA00090910B01892BC9F1C0E0D0E0D0930B01EA
:100CB000C0930A01FE01EE0FFF1FEE0FFF1FE1566A
:100CC000FD4F0280F381E02D0995259734F104C092
:100CD0002196C530D105E1F680910A0190910B0172
:100CE0008F3F2FEF9207C9F0880F991F880F991F28
:100CF000FC01E156FD4F0190F081E02D09958FEF49
:100D00009FEF90930B0180930A0107C080910A0125
:100D100090910B018C179D0749F6DF91CF910895B3
:100D20006530710548F4660F771F660F771FFB016A
:100D3000E156FD4F9183808308956530710548F435
:100D4000660F771F660F771FFB01E156FD4F9383F8
:100D500082830895E5E9F2E0118210828BE396E048
:100D600093838283158214821782168211861086DD
:100D7000CF010E94C604089580E090E00895089590
:100D8000CF93DF93EC0160E08E810E94AB0181E0A4
:100D900090E00E94340261E08E810E94AB0181E00C
:100DA00090E00E94340260E08E810E94AB0184E6F4
:100DB00090E00E943402DF91CF910895CF92DF92AC
:100DC000EF92FF920F931F93CF93DF936C018C01EF
:100DD000095F1F4FC0E0D0E0E62EF12CB7010C2ECA
:100DE00002C0759567950A94E2F76170F8018191E8
:100DF0008F010E94AB012196C430D10579F7C6015D
:100E00000E94C006DF91CF911F910F91FF90EF904C
:100E1000DF90CF900895CF92DF92EF92FF920F93E1
:100E20001F93CF93DF936C018C01095F1F4FC0E0CC
:100E3000D0E0E62EF12CB7010C2E02C07595679517
:100E40000A94E2F76170F80181918F010E94AB0171
:100E50002196C830D10579F7C6010E94C006DF91FE
:100E6000CF911F910F91FF90EF90DF90CF90089559
:100E70001F93CF93DF93EC01162F642F8C810E9478
:100E8000AB018D818F3F19F060E00E94AB018F852F
:100E900084FF05C0612FCE010E940B0711C0612F96
:100EA00070E07595679575956795759567957595D6
:100EB0006795CE010E94DE06612FCE010E94DE06FC
:100EC000DF91CF911F91089540E061E00E943807C3
:100ED00080ED97E00E9434020895FC01443008F050
:100EE00043E08389481710F04FEF480FDF01A40F4C
:100EF000B11D54969C91690F606840E0CF010E943B
:100F000038070895FC016089262F2460208B6C60CF
:100F100040E00E9438070895AF92BF92CF92DF92CF
:100F2000EF92FF920F931F93CF93DF93EC01423028
:100F300018F08F8588608F874B8B1C8A80E48D8B9F
:100F40006E8B70E0605C7F4F6F8B222329F0413005
:100F500019F48F8584608F8761E08C810E94F8018D
:100F60008D818F3F19F061E00E94F80161E08E8170
:100F70000E94F8017E0187E0E80EF11C00E010E01D
:100F80006894AA24A3F8B12C6894CC24C2F8D12C7C
:100F90008F8584FD03C08C2D9D2D02C08A2D9B2D35
:100FA000081719074CF461E0F70181917F010E9455
:100FB000F8010F5F1F4FECCF80E593EC0E943402E5
:100FC00060E08C810E94AB0160E08E810E94AB01E9
:100FD0008D818F3F19F060E00E94AB016F8564FD49
:100FE0001DC063E0CE010E94DE0684E991E10E940B
:100FF000340263E0CE010E94DE0684E991E10E94A2
:10100000340263E0CE010E94DE0686E990E00E9491
:10101000340262E0CE010E94DE0619C0606240E048
:10102000CE010E94380784E991E10E9434026F8565
:10103000606240E0CE010E94380786E990E00E949D
:1010400034026F85606240E0CE010E9438076F85F0
:10105000606240E0CE010E94380784E0888BCE01B8
:101060000E948207CE010E94640782E0898B40E0E3
:1010700066E0CE010E943807DF91CF911F910F915A
:10108000FF90EF90DF90CF90BF90AF900895CF92F8
:10109000EF920F93FC011382128282E291E091831E
:1010A000808364838FEF8583468327830087E1866F
:1010B000C2861386148615861686178620E041E0C0
:1010C00060E1CF010E948C070F91EF90CF900895BF
:1010D00041E00E94380781E090E0089541E060E03F
:1010E00085E694E00E946D076AE271E085E694E08F
:1010F0000E94EB03089541E060E085E694E00E94E1
:101100006D076AE271E085E694E00E94EB030895C2
:1011100041E060E085E694E00E946D076AE271E0DC
:1011200085E694E00E94EB03089541E060E085E6E7
:1011300094E00E946D076AE271E085E694E00E9407
:10114000EB03089541E060E085E694E00E946D07BE
:101150006AE271E085E694E00E94EB03089541E0C5
:1011600060E085E694E00E946D076BE371E085E640
:1011700094E00E94EB0341E06BE085E694E00E947E
:101180006D074091BB025091BC026091BD0270910D
:10119000BE0222E030E085E694E00E94DD02089580
:1011A00041E060E085E694E00E946D0764E471E050
:1011B00085E694E00E94EB0341E06BE085E694E075
:1011C0000E946D074091BF025091C0026091C10220
:1011D0007091C20222E030E085E694E00E94DD02D8
:1011E000089541E060E085E694E00E946D076DE4BB
:1011F00071E085E694E00E94EB0341E06BE085E658
:1012000094E00E946D074091B7025091B80260913E
:10121000B9027091BA0222E030E085E694E00E94C3
:10122000DD02089541E060E085E694E00E946D07EC
:1012300067E571E085E694E00E94EB0341E06BE036
:1012400085E694E00E946D078091B5029091B60208
:101250001816190664F4880F991F880F991FFC014E
:10126000E154FD4F408151816281738103C040E0B0
:1012700050E0BA0122E030E085E694E00E94DD0211
:10128000089541E060E085E694E00E946D0762E623
:1012900071E085E694E00E94EB0341E06BE085E6B7
:1012A00094E00E946D076091B3027091B4024AE02D
:1012B00050E085E694E00E94890208958F929F9203
:1012C000AF92BF92CF92DF92EF92FF920F931F9354
:1012D000CF93DF938090C3029090C402A090C50288
:1012E000B090C602C7ECD2E003E514E0C990D990F3
:1012F000E990F99020E030E0A901C701B6010E9411
:10130000200F181674F4282D392D4A2D5B2DC70196
:10131000B6010E94200F181624F48C2C9D2CAE2CA4
:10132000BF2CC017D10711F7882D992DAA2DBB2DE1
:101330008093BB029093BC02A093BD02B093BE0207
:10134000DF91CF911F910F91FF90EF90DF90CF90A1
:10135000BF90AF909F908F9008958F929F92AF9281
:10136000BF92CF92DF92EF92FF920F931F93CF9392
:10137000DF938090C3029090C402A090C502B09009
:10138000C602C7ECD2E003E514E0C990D990E99019
:10139000F99020E030E0A901C701B6010E94200FBA
:1013A000181674F4282D392D4A2D5B2DC701B6016E
:1013B0000E94C10D882324F48C2C9D2CAE2CBF2CB4
:1013C000C017D10711F7882D992DAA2DBB2D809319
:1013D000BF029093C002A093C102B093C202DF91FA
:1013E000CF911F910F91FF90EF90DF90CF90BF9022
:1013F000AF909F908F900895CF92DF92EF92FF92DF
:101400000F931F93CF93DF93C3ECD2E003E514E077
:10141000C12CD12C76012991399149915991C7015B
:10142000B6010E94550D6B017C01C017D10799F7D9
:101430006091B3027091B4026115710549F4109284
:10144000B7021092B8021092B9021092BA0212C0FA
:1014500080E090E00E946E0E9B01AC01C701B601D6
:101460000E94C60D6093B7027093B8028093B902D0
:101470009093BA02DF91CF911F910F91FF90EF905F
:10148000DF90CF90089526E040E855E260E070E0FC
:1014900088E891E00E94450420E042E060E185E6B2
:1014A00094E00E948C07E3ECF2E083E594E0119273
:1014B000119211921192E817F907C9F740E060E024
:1014C00085E694E00E946D076AE671E085E694E0A7
:1014D0000E94EB0341E060E085E694E00E946D0726
:1014E0006AE271E085E694E00E94EB030E94DD056C
:1014F0000E94AA0685ED9AE00E94E80B61E070E088
:101500008EE698E00E94900661E070E08FEA98E035
:101510000E949D0662E070E08BE798E00E949006D2
:1015200062E070E080ED98E00E949D0663E070E06C
:1015300085E998E00E94900663E070E082E199E01E
:101540000E949D0660E070E088E898E00E949006A6
:1015500060E070E081EF98E00E949D0664E070E03A
:1015600082EA98E00E94900664E070E081E499E0ED
:101570000E949D0608950E94E5050895CF92EF927E
:101580000F930F2EF7E0CF2EF02D0F2EF6E0EF2E5B
:10159000F02D05E024E049E068E085E694E00E9453
:1015A00047080F91EF90CF9008951F93CF93DF934B
:1015B0004091B5025091B602FA01EE0FFF1FEE0FF7
:1015C000FF1FED53FD4F60837183828393832091CE
:1015D000B3023091B4022436310530F42F5F3F4F0F
:1015E0003093B4022093B302CA01019664E670E01E
:1015F0000E94920F9093B6028093B50218161906B6
:101600009CF4880F991F880F991FFC01E154FD4F2E
:1016100080819181A281B38180935304909354047B
:10162000A0935504B09356040E945E090E94AD0930
:101630000E94FC09609153047091540480915504F8
:10164000909156040E94380E162F60936104709397
:1016500062046091BB027091BC028091BD029091C6
:10166000BE020E94380ED62F60935F047093600410
:101670006091BF027091C0028091C1029091C2023C
:101680000E94380EC62F60935D0470935E046091D3
:10169000B7027091B8028091B9029091BA020E948B
:1016A000380E60935B0470935C0410935A04D093DB
:1016B0005904C09358046093570460EF88E891E0A0
:1016C0000E941B0160915A0488E891E00E941B016E
:1016D00061EF88E891E00E941B016091590488E85D
:1016E00091E00E941B0162EF88E891E00E941B01DB
:1016F0006091580488E891E00E941B0163EF88E83C
:1017000091E00E941B016091570488E891E00E94DB
:101710001B0188E891E00E94E3001816190624F5E1
:1017200088E891E00E94C100909364048093630470
:10173000019711F40E94AF088091630490916404B2
:10174000029711F40E94D008809163049091640480
:10175000039711F40E94F10880916304909164044E
:10176000049711F40E941209DF91CF911F910895FF
:101770002091890430918A0484EF91E0289FB00180
:10178000299F700D389F700D112480E090E00E9419
:101790006E0E20E030E040E85AE30E94250FE09111
:1017A0008704F09188040995089581E080938B0463
:1017B000089520918B04222351F010928B04909372
:1017C0008A048093890488EB9BE00E9411060895A7
:1017D0009093880480938704EDE7F4E081E090E043
:1017E0009183808389ED9BE09383828315821482A9
:1017F0001782168211861086CF010E94C60485EDDD
:101800009BE00E949D0C6FE070E00E94D50C81E08F
:1018100090E00895CF93DF93EC010E949B05A0EB2D
:10182000B0E01C92E1EBF0E010828C9182608C932E
:10183000A0E7B0E08C9181608C931092B20080811F
:10184000836080830E94BF05D0938D04C0938C0475
:10185000DF91CF9108951F920F920FB60F9211242E
:101860002F933F934F935F936F937F938F939F93A8
:10187000AF93BF93EF93FF931092B20080918E04C9
:1018800090918F04019690938F0480938E048091A1
:101890008E0490918F040A9751F410928F04109245
:1018A0008E0480918C0490918D040E941106FF910A
:1018B000EF91BF91AF919F918F917F916F915F91C8
:1018C0004F913F912F910F900FBE0F901F90189541
:1018D000EF92FF920F931F93CF93DF9380910005B8
:1018E00090910105181619060CF5C0E9D4E000E046
:1018F00010E08E81882381F08C819D8101969D83EB
:101900008C832A813B818217930730F088819981EB
:101910000E9411061D821C820F5F1F4F2796809127
:10192000000590910105081719071CF3DF91CF916D
:101930001F910F91FF90EF90089520910005309135
:1019400001052031310574F5F901EE0FFF1FEE0F8F
:10195000FF1FEE0FFF1FE21BF30BE057FB4F15823B
:10196000148216821382128291838083232B21F4A6
:1019700088E69CE00E940A0C209100053091010548
:10198000C90101969093010580930005C901880F54
:10199000991F880F991F880F991F821B930B8057DF
:1019A0009B4F089580E090E00895FC01738362836B
:1019B0001582148281E086830895789484B58260CC
:1019C00084BD84B5816084BD85B5826085BD85B5E3
:1019D000816085BD80916E00816080936E00109261
:1019E00081008091810082608093810080918100DC
:1019F000816080938100809180008160809380006D
:101A00008091B10084608093B1008091B0008160CA
:101A10008093B00080917A00846080937A008091F6
:101A20007A00826080937A0080917A00816080934E
:101A30007A0080917A00806880937A001092C100C9
:101A40000E94430A0E94BB0A0E948A01FBCFE8E879
:101A5000F1E01382128288EE93E0A0E0B0E084838C
:101A60009583A683B78380E191E09183808385ECA1
:101A700090E09587848784EC90E09787868780EC58
:101A800090E0918B808B81EC90E0938B828B82EC49
:101A900090E0958B848B86EC90E0978B868B118EF3
:101AA000128E138E148E08955058BB27AA270E94B9
:101AB0006C0D0C94E60E0E94D80E38F00E94DF0EDA
:101AC00020F039F49F3F19F426F40C94D50E0EF44F
:101AD000E095E7FB0C94CF0EE92F0E94F70E58F328
:101AE000BA17620773078407950720F079F4A6F503
:101AF0000C94190F0EF4E0950B2EBA2FA02D0B01AC
:101B0000B90190010C01CA01A0011124FF27591B42
:101B100099F0593F50F4503E68F11A16F040A22F48
:101B2000232F342F4427585FF3CF469537952795B9
:101B3000A795F0405395C9F77EF41F16BA0B620BB8
:101B4000730B840BBAF09150A1F0FF0FBB1F661FFF
:101B5000771F881FC2F70EC0BA0F621F731F841F42
:101B600048F4879577956795B795F7959E3F08F068
:101B7000B0CF9395880F08F09927EE0F979587952A
:101B800008950E94AB0E08F481E008950E94DA0DDA
:101B90000C94E60E0E94DF0E58F00E94D80E40F022
:101BA00029F45F3F29F00C94CF0E51110C941A0FB9
:101BB0000C94D50E0E94F70E68F39923B1F35523C8
:101BC00091F3951B550BBB27AA2762177307840750
:101BD00038F09F5F5F4F220F331F441FAA1FA9F3E6
:101BE00035D00E2E3AF0E0E832D091505040E695D4
:101BF000001CCAF72BD0FE2F29D0660F771F881F35
:101C0000BB1F261737074807AB07B0E809F0BB0B27
:101C1000802DBF01FF2793585F4F3AF09E3F51053B
:101C200078F00C94CF0E0C941A0F5F3FE4F3983EBB
:101C3000D4F3869577956795B795F7959F5FC9F724
:101C4000880F911D9695879597F90895E1E0660FA5
:101C5000771F881FBB1F621773078407BA0720F01E
:101C6000621B730B840BBA0BEE1F88F7E095089587
:101C70000E943F0E6894B1110C941A0F08950E94AF
:101C8000FF0E88F09F5798F0B92F9927B751B0F001
:101C9000E1F0660F771F881F991F1AF0BA95C9F7F0
:101CA00014C0B13091F00E94190FB1E008950C9466
:101CB000190F672F782F8827B85F39F0B93FCCF319
:101CC000869577956795B395D9F73EF4909580956D
:101CD000709561957F4F8F4F9F4F0895E89409C08D
:101CE00097FB3EF490958095709561957F4F8F4F4F
:101CF0009F4F9923A9F0F92F96E9BB279395F69565
:101D0000879577956795B795F111F8CFFAF4BB0FE2
:101D100011F460FF1BC06F5F7F4F8F4F9F4F16C046
:101D2000882311F096E911C0772321F09EE8872FD0
:101D3000762F05C0662371F096E8862F70E060E08C
:101D40002AF09A95660F771F881FDAF7880F969505
:101D5000879597F90895990F0008550FAA0BE0E8A9
:101D6000FEEF16161706E807F907C0F0121613065D
:101D7000E407F50798F0621B730B840B950B39F49D
:101D80000A2661F0232B242B252B21F408950A2603
:101D900009F4A140A6958FEF811D811D089597F943
:101DA0009F6780E870E060E008959FEF80EC089501
:101DB00000240A941616170618060906089500242A
:101DC0000A9412161306140605060895092E0394A4
:101DD000000C11F4882352F0BB0F40F4BF2B11F418
:101DE00060FF04C06F5F7F4F8F4F9F4F089557FD77
:101DF0009058440F551F59F05F3F71F04795880F79
:101E000097FB991F61F09F3F79F08795089512160F
:101E100013061406551FF2CF4695F1DF08C01616BB
:101E200017061806991FF1CF86957105610508946C
:101E30000895E894BB2766277727CB0197F9089583
:101E40000E94AB0E08F48FEF08950E94380F0C9497
:101E5000E60E0E94D80E38F00E94DF0E20F0952387
:101E600011F00C94CF0E0C94D50E11240C941A0F73
:101E70000E94F70E70F3959FC1F3950F50E0551F28
:101E8000629FF001729FBB27F00DB11D639FAA27CF
:101E9000F00DB11DAA1F649F6627B00DA11D661F1E
:101EA000829F2227B00DA11D621F739FB00DA11D3F
:101EB000621F839FA00D611D221F749F3327A00DF9
:101EC000611D231F849F600D211D822F762F6A2F95
:101ED00011249F5750409AF0F1F088234AF0EE0FFA
:101EE000FF1FBB1F661F771F881F91505040A9F727
:101EF0009E3F510580F00C94CF0E0C941A0F5F3F5B
:101F0000E4F3983ED4F3869577956795B795F79562
:101F1000E7959F5FC1F7FE2B880F911D96958795DA
:101F200097F9089597FB072E16F4009407D077FDD4
:101F300009D00E94A60F07FC05D03EF4909581952C
:101F40009F4F0895709561957F4F0895AA1BBB1B05
:101F500051E107C0AA1FBB1FA617B70710F0A61BA9
:101F6000B70B881F991F5A95A9F780959095BC01CA
:101F7000CD010895EE0FFF1F0590F491E02D099417
:101F80000E94AB0E880B990B0895A1E21A2EAA1B92
:101F9000BB1BFD010DC0AA1FBB1FEE1FFF1FA21719
:101FA000B307E407F50720F0A21BB30BE40BF50B16
:101FB000661F771F881F991F1A9469F7609570959F
:101FC000809590959B01AC01BD01CF01089581E002
:0C1FD00090E0F8940C94EC0FF894FFCF14
:101FDC003200E60068011702F802FFFF0000000063
:101FEC001B018800B2006801E300C100D5000000AD
:101FFC00000068088800BC06BF0620202020202096
:10200C0020202020202020202020004D41582E2050
:10201C0043B020004D494E2E2043B0200050524F6B
:10202C004D2E2043B0200041435455414C2043B029
:10203C00200043414E54204D3A0053453230313943
:10204C002053656E2E54656D702E006E616E0069A6
:08205C006E66006F766600005D
:00000001FF
