S013000041637469766964616420352E7372656333
S11300000C9453000C947B000C947B000C947B00A8
S11300100C947B000C947B000C947B000C947B0070
S11300200C947B000C947B000C947B000C947B0060
S11300300C947B000C947B000C947B000C947B0050
S11300400C94CB010C947B000C943B020C94150291
S11300500C947B000C947B000C947B000C947B0030
S11300600C947B000C947B00000000002500280009
S11300702B0000000000240027002A0004040404CC
S1130080040404040202020202020303030303033E
S1130090010204081020408001020408102001021B
S11300A004081020110411241FBECFEFD8E0DEBFD6
S11300B0CDBF11E0A0E0B1E0EAE2F9E002C00590B2
S11300C00D92A431B107D9F721E0A4E1B1E001C058
S11300D01D92A03CB207E1F710E0C3E5D0E004C0F4
S11300E02197FE010E948804C235D107C9F70E94F6
S11300F0C7030C9493040C940000CF92DF92EF9208
S1130100FF920F931F93CF93DF936C017A018B01BE
S1130110C0E0D0E0CE15DF0581F0D8016D918D01EE
S1130120D601ED91FC910190F081E02DC601099575
S1130130892B11F02196EECF7E01C701DF91CF917B
S11301401F910F91FF90EF90DF90CF900895089545
S113015080E090E00895FC01538D448D252F30E01C
S1130160842F90E0821B930B541710F0CF960895C0
S113017001970895FC01918D828D981761F0828D0D
S1130180DF01A80FB11D5D968C91928D9F5F9F73C7
S1130190928F90E008958FEF9FEF0895FC01918D69
S11301A0828D981731F0828DE80FF11D858D90E0D6
S11301B008958FEF9FEF0895FC01918D228D892F73
S11301C090E0805C9F4F821B91098F73992708955B
S11301D084E191E00E94DC0021E0892B09F420E015
S11301E0822F0895FC01848DDF01A80FB11DA35A4D
S11301F0BF4F2C91848D90E001968F739927848F43
S1130200A689B7892C93A089B1898C918370806465
S11302108C93938D848D981306C00288F389E02D06
S113022080818F7D80830895EF92FF920F931F93B7
S1130230CF93DF93EC0181E0888F9B8D8C8D981395
S113024005C0E889F989808185FD26C0F62E0B8DCD
S113025010E00F5F1F4F0F731127E02E8C8DE812F3
S11302600CC00FB607FCFACFE889F989808185FFB5
S1130270F5CFCE010E94F200F1CF8B8DFE01E80F85
S1130280F11DE35AFF4FF0829FB7F8940B8FEA8970
S1130290FB89808180620AC09FB7F894EE89FF8948
S11302A06083E889F98980818370806480839FBF3B
S11302B081E090E0DF91CF911F910F91FF90EF903B
S11302C00895CF93DF93EC01888D8823C9F0EA89E0
S11302D0FB89808185FD05C0A889B9898C9186FD3B
S11302E00FC00FB607FCF5CF808185FFF2CFA88938
S11302F0B9898C9185FFEDCFCE010E94F200E7CF42
S1130300DF91CF91089580E090E0892B29F00E943D
S1130310E80081110C94000008950E948E04CF938C
S1130320DF9390E0FC01E057FF4F2491FC01E45877
S1130330FF4F8491882361F190E0880F991FFC019D
S1130340EE58FF4FC591D491FC01E859FF4FA59198
S1130350B491611109C09FB7F894888120958223D4
S11303608883EC912E230BC0623061F49FB7F8941C
S11303708881322F309583238883EC912E2B2C9304
S11303809FBF06C08FB7F894E8812E2B28838FBFB8
S1130390DF91CF9108951F920F920FB60F921124FF
S11303A02F933F938F939F93AF93BF938091B60105
S11303B09091B701A091B801B091B9013091B50104
S11303C023E0230F2D3720F40196A11DB11D05C094
S11303D026E8230F0296A11DB11D2093B501809339
S11303E0B6019093B701A093B801B093B90180917D
S11303F0B1019091B201A091B301B091B401019601
S1130400A11DB11D8093B1019093B201A093B301DA
S1130410B093B401BF91AF919F918F913F912F9170
S11304200F900FBE0F901F9018951F920F920FB64A
S11304300F9211242F933F934F935F936F937F9366
S11304408F939F93AF93BF93EF93FF9384E191E0D6
S11304500E94F200FF91EF91BF91AF919F918F9114
S11304607F916F915F914F913F912F910F900FBEAC
S11304700F901F9018951F920F920FB60F92112490
S11304802F938F939F93EF93FF93E0912401F09127
S113049025018081E0912A01F0912B0182FD12C097
S11304A0908180912D018F5F8F7320912E0182178F
S11304B051F0E0912D01F0E0EC5EFE4F958F8093BA
S11304C02D0101C08081FF91EF919F918F912F9118
S11304D00F900FBE0F901F901895CF92DF92EF925E
S11304E0FF921F93CF93DF93EC016A017B01122FDC
S11304F0E889F98982E080834115514E61057105CF
S1130500B1F060E079E08DE390E0A70196010E94EC
S11305106604DA01C9010197A109B109B695A79545
S1130520979587959C01211580E13807A8F0E88903
S1130530F989108260E874E88EE190E0A7019601E1
S11305400E946604DA01C9010197A109B109B695AF
S1130550A795979587959C01EC85FD853083EE855D
S1130560FF852083188EEC89FD891083EA89FB8935
S1130570808180618083EA89FB89808188608083AF
S1130580EA89FB89808180688083EA89FB8980818C
S11305908F7D8083DF91CF911F91FF90EF90DF904B
S11305A0CF90089526E040E855E260E070E084E1F1
S11305B091E00E946D02259A61E08DE00E948F0116
S11305C081E090E09093BF018093BE011092BD0141
S11305D01092BC01089584E191E00E94DC00181699
S11305E0190694F484E191E00E94BA009093BB014F
S11305F08093BA01C19766E070E00E943E040196C0
S11306009093BF018093BE018091BE019091BF0180
S11306108330910599F134F48130910569F00297A2
S113062069F008958530910509F466C00CF445C05D
S1130630069709F4AAC008952D9A08958091BC01E3
S11306409091BD01843691054CF095B180E28927E3
S113065085B91092BD011092BC0108958FE39CE905
S11306600197F1F700C000008091BC019091BD0199
S113067001969093BD018093BC0108958091BC01C3
S11306809091BD01C2974CF095B180E2892785B95C
S11306901092BD011092BC0108958FE39CE901976B
S11306A0F1F700C000008091BC019091BD0101965A
S11306B09093BD018093BC0108958091BC019091F9
S11306C0BD0149974CF095B180E2892785B9109214
S11306D0BD011092BC0108958FE39CE90197F1F7E5
S11306E000C000008091BC019091BD0101969093DF
S11306F0BD018093BC010895809100019091010196
S1130700892B01F18091BC019091BD01C29754F0F5
S11307102D981092BD011092BC011092010110920B
S1130720000108958FE39CE90197F1F700C00000F0
S11307308091BC019091BD0101969093BD0180937D
S1130740BC0108958091BC019091BD01843691054E
S113075064F02D9A1092BD011092BC0181E090E0EA
S1130760909301018093000108958FE39CE9019720
S1130770F1F700C000008091BC019091BD01019689
S11307809093BD018093BC0108952D9808957894A9
S113079084B5826084BD84B5816084BD85B5826082
S11307A085BD85B5816085BD80916E008160809333
S11307B06E0010928100809181008260809381009C
S11307C080918100816080938100809180008160AC
S11307D0809380008091B10084608093B100809107
S11307E0B00081608093B00080917A00846080932F
S11307F07A0080917A00826080937A0080917A00F6
S1130800816080937A0080917A00806880937A0076
S11308101092C1000E94D2020E94EB020E94830146
S1130820FBCFE4E1F1E01382128288EE93E0A0E0D2
S1130830B0E084839583A683B78386E091E09183B7
S1130840808385EC90E09587848784EC90E097879B
S1130850868780EC90E0918B808B81EC90E0938B89
S1130860828B82EC90E0958B848B86EC90E0978B66
S1130870868B118E128E138E148E089597FB072E7D
S113088016F4009407D077FD09D00E94520407FCA7
S113089005D03EF4909581959F4F0895709561958C
S11308A07F4F0895AA1BBB1B51E107C0AA1FBB1FA2
S11308B0A617B70710F0A61BB70B881F991F5A95E8
S11308C0A9F780959095BC01CD010895A1E21A2E57
S11308D0AA1BBB1BFD010DC0AA1FBB1FEE1FFF1FE0
S11308E0A217B307E407F50720F0A21BB30BE40B30
S11308F0F50B661F771F881F991F1A9469F7609577
S11309007095809590959B01AC01BD01CF01089530
S1130910EE0FFF1F0590F491E02D099481E090E023
S10D0920F8940C949304F894FFCFAC
S113092A01000000000014017D00AB006101DC003D
S107093ABA00CE002D
S9030000FC
