S013000041637469766964616420342E7372656334
S11300000C9434000C9451000C9451000C94510045
S11300100C9451000C9451000C9451000C94510018
S11300200C9451000C9451000C9451000C94510008
S11300300C9451000C9451000C9451000C945100F8
S11300400C9451000C9451000C9451000C945100E8
S11300500C9451000C9451000C9451000C945100D8
S11300600C9451000C94510011241FBECFEFD8E022
S1130070DEBFCDBF11E0A0E0B1E0E2EFF2E002C0EC
S113008005900D92A230B107D9F721E0A2E0B1E0CA
S113009001C01D92AA30B207E1F70E9453000C94EC
S11300A077010C9400005298259AE6E0F0E040E2D3
S11300B0C1E0D0E089B1847090E09093070180930F
S11300C0060120910401309105018217930751F133
S11300D02FEF80E792E0215080409040E1F700C08C
S11300E0000029B1247030E0309307012093060109
S11300F080910401909105012817390799F0211581
S1130100310561F480910801909109010196BF01C4
S11301100E944F01909309018093080130930501D7
S11301202093040180910801909109018230910586
S113013089F12CF4009769F0019769F0BBCF843002
S1130140910509F463C00CF443C0059709F4A5C0F4
S1130150B1CF2D9AAFCF80910201909103018436E3
S1130160910544F085B1842785B91092030110925A
S11301700201A0CF8FE39CE90197F1F700C00000D2
S11301808091020190910301019690930301809361
S1130190020190CF8091020190910301C29744F033
S11301A085B1842785B9109203011092020182CF90
S11301B08FE39CE90197F1F700C0000080910201F0
S11301C0909103010196909303018093020172CFF1
S11301D08091020190910301499744F085B18427ED
S11301E085B9109203011092020164CF8FE39CE958
S11301F00197F1F700C00000809102019091030182
S11302000196909303018093020154CF80910001E1
S113021090910101892B01F18091020190910301D8
S1130220C29754F02D98109203011092020110927B
S11302300101109200013ECF8FE39CE90197F1F791
S113024000C00000809102019091030101969093F7
S11302500301809302012ECF80910201909103014A
S11302608436910554F02D9A1092030110920201E4
S1130270D0930101C09300011DCF8FE39CE9019746
S1130280F1F700C0000080910201909103010196F2
S113029090930301809302010DCF2D980BCF97FB10
S11302A0072E16F4009407D077FD09D00E9463014D
S11302B007FC05D03EF4909581959F4F0895709565
S11302C061957F4F0895AA1BBB1B51E107C0AA1F6C
S11302D0BB1FA617B70710F0A61BB70B881F991FE3
S11302E05A95A9F780959095BC01CD010895F8948D
S10502F0FFCF3A
S10502F2010005
S9030000FC
