:100000000C945D000C9485000C9485000C94850084
:100010000C9485000C9485000C9485000C9485004C
:100020000C9485000C9461040C9485000C9485005C
:100030000C9485000C9485000C9485000C9485002C
:100040000C9422020C9485000C9492020C946C0285
:100050000C9485000C9485000C9485000C9485000C
:100060000C9485000C9485000000000024002700FB
:100070002A0000000000250028002B0004040404CE
:100080000404040402020202020203030303030342
:10009000010204081020408001020408102001021F
:1000A00004081020000000080002010000030407FB
:1000B00000000000000000005D0511241FBECFEF0E
:1000C000D8E0DEBFCDBF22E0A2E1B1E001C01D92C9
:1000D000A635B207E1F711E0A0E0B1E0E2E7FBE00E
:1000E00002C005900D92A231B107D9F710E0CDE51D
:1000F000D0E004C02197FE010E94AC05CC35D107A9
:10010000C9F70E9413050C94B7050C940000CF9218
:10011000DF92EF92FF920F931F93CF93DF936C01C7
:100120007A018B01C0E0D0E0CE15DF0581F0D80167
:100130006D918D01D601ED91FC910190F081E02D42
:10014000C6010995892B11F02196EECF7E01C701DA
:10015000DF91CF911F910F91FF90EF90DF90CF90A3
:100160000895089580E090E00895FC01538D448D3A
:10017000252F30E0842F90E0821B930B541710F052
:10018000CF96089501970895FC01918D828D98175F
:1001900061F0828DDF01A80FB11D5D968C91928D6B
:1001A0009F5F9F73928F90E008958FEF9FEF089568
:1001B000FC01918D828D981731F0828DE80FF11D31
:1001C000858D90E008958FEF9FEF0895FC01918D4C
:1001D000228D892F90E0805C9F4F821B91098F7345
:1001E0009927089582E191E00E94E60021E0892BA1
:1001F00009F420E0822F0895FC01848DDF01A80F0F
:10020000B11DA35ABF4F2C91848D90E001968F733E
:100210009927848FA689B7892C93A089B1898C915D
:10022000837080648C93938D848D981306C00288AC
:10023000F389E02D80818F7D80830895EF92FF9276
:100240000F931F93CF93DF93EC0181E0888F9B8DF9
:100250008C8D981305C0E889F989808185FD26C0B9
:10026000F62E0B8D10E00F5F1F4F0F731127E02E3E
:100270008C8DE8120CC00FB607FCFACFE889F9891B
:10028000808185FFF5CFCE010E94FC00F1CF8B8DE0
:10029000FE01E80FF11DE35AFF4FF0829FB7F8947B
:1002A0000B8FEA89FB89808180620AC09FB7F8942E
:1002B000EE89FF896083E889F98980818370806491
:1002C00080839FBF81E090E0DF91CF911F910F91DC
:1002D000FF90EF900895CF93DF93EC01888D8823F2
:1002E000C9F0EA89FB89808185FD05C0A889B989A3
:1002F0008C9186FD0FC00FB607FCF5CF808185FF7E
:10030000F2CFA889B9898C9185FFEDCFCE010E94EB
:10031000FC00E7CFDF91CF91089580E090E0892B3A
:1003200029F00E94F20081110C94000008950E94AF
:10033000B20590E0FC01EC55FF4F2491FC01E05721
:10034000FF4F3491FC01E458FF4FE491EE2309F490
:100350003CC0222339F1233091F038F42130A9F048
:10036000223001F584B58F7D12C0273091F02830FE
:10037000A1F02430B9F4809180008F7D03C080917A
:1003800080008F77809380000DC084B58F7784BD07
:1003900009C08091B0008F7703C08091B0008F7D3D
:1003A0008093B000F0E0EE0FFF1FEE58FF4FA591D5
:1003B000B4919FB7F894611104C08C9130953823A3
:1003C00002C0EC913E2B3C939FBF0895CF93DF93E7
:1003D00090E0FC01E057FF4F2491FC01E458FF4FEF
:1003E0008491882361F190E0880F991FFC01E859FE
:1003F000FF4FC591D491FC01EE58FF4FA591B491E8
:10040000611109C09FB7F894888120958223888361
:10041000EC912E230BC0623061F49FB7F894888171
:10042000322F309583238883EC912E2B2C939FBF02
:1004300006C08FB7F894E8812E2B28838FBFDF91F9
:10044000CF9108951F920F920FB60F9211242F9300
:100450003F938F939F93AF93BF938091B4019091FB
:10046000B501A091B601B091B7013091B30123E07D
:10047000230F2D3720F40196A11DB11D05C026E8DC
:10048000230F0296A11DB11D2093B3018093B401E7
:100490009093B501A093B601B093B7018091AF01DD
:1004A0009091B001A091B101B091B2010196A11D4E
:1004B000B11D8093AF019093B001A093B101B093AF
:1004C000B201BF91AF919F918F913F912F910F906A
:1004D0000FBE0F901F9018951F920F920FB60F929C
:1004E00011242F933F934F935F936F937F938F9339
:1004F0009F93AF93BF93EF93FF9382E191E00E94AC
:10050000FC00FF91EF91BF91AF919F918F917F91EF
:100510006F915F914F913F912F910F900FBE0F9070
:100520001F9018951F920F920FB60F9211242F93C0
:100530008F939F93EF93FF93E0912201F09123011A
:100540008081E0912801F091290182FD12C0908103
:1005500080912B018F5F8F7320912C01821751F0B6
:10056000E0912B01F0E0EE5EFE4F958F80932B0122
:1005700001C08081FF91EF919F918F912F910F90FA
:100580000FBE0F901F901895CF92DF92EF92FF92BF
:100590001F93CF93DF93EC016A017B01122FE8894F
:1005A000F98982E080834115514E61057105B1F0F2
:1005B00060E079E08DE390E0A70196010E948A0552
:1005C000DA01C9010197A109B109B695A7959795D7
:1005D00087959C01211580E13807A8F0E889F98901
:1005E000108260E874E88EE190E0A70196010E9415
:1005F0008A05DA01C9010197A109B109B695A79544
:10060000979587959C01EC85FD853083EE85FF8568
:100610002083188EEC89FD891083EA89FB8980810B
:1006200080618083EA89FB89808188608083EA8990
:10063000FB89808180688083EA89FB8980818F7D46
:100640008083DF91CF911F91FF90EF90DF90CF904B
:1006500008952FB7F8948091B8019091B901892B32
:1006600019F422239CF408C08091B8019091B9013B
:10067000892B91F0222384F08091B8019091B901E7
:1006800001969093B9018093B80108958091B801C3
:100690009091B901892B81F708952FB7F894809133
:1006A000B8019091B901181619068CF48091B8011F
:1006B0009091B90101979093B9018093B80180910D
:1006C000B8019091B901892B29F4789408952223D7
:1006D0000CF4789408950E9429038091BA0188232C
:1006E00011F10E944D03E091BC01F0E0EE0FFF1FFD
:1006F000E354FE4F0190F081E02D09950E942903FB
:100700008091BC0190E001968F709078992324F439
:100710000197806F9F6F01968093BC018091BA0111
:1007200081508093BA010E944D0381E00895CF93D8
:10073000DF93EC010E9429032091BA012031D0F40B
:100740008091BB0190E0FC01EE0FFF1FE354FE4FD0
:10075000D183C08301968F709078992324F40197F8
:10076000806F9F6F01968093BB012F5F2093BA012A
:10077000C1E001C0C0E00E944D038C2FDF91CF91FA
:1007800008958091DF01882329F060E082E00E94D3
:10079000990104C061E082E00E9499019091DF011B
:1007A00081E089278093DF0108958091DE0188230D
:1007B00029F060E084E00E94990104C061E084E0D7
:1007C0000E9499019091DE0181E089278093DE01EA
:1007D00008958091DD01882329F060E087E00E9480
:1007E000990104C061E087E00E9499019091DD01C8
:1007F00081E089278093DD010895EF92FF920F93A6
:100800001F93CF93DF9326E040E855E260E070E06D
:1008100082E191E00E94C40281EC93E00E94D30443
:100820007C0185ED93E00E94D3048C0189EE93E076
:100830000E94D304EC0161E082E00E94E60161E0E5
:1008400084E00E94E60161E087E00E94E60162E345
:1008500070E0C7010E940B0564E670E0C8010E94C9
:100860000B0568EC70E0CE010E940B05DF91CF9183
:100870001F910F91FF90EF9008950E946B030895D0
:10088000CF93DF93EC010E942903A0EBB0E01C9210
:10089000E1EBF0E010828C9182608C93A0E7B0E0F5
:1008A0008C9181608C931092B200808183608083F0
:1008B0000E944D03D093E101C093E001DF91CF91FD
:1008C00008951F920F920FB60F9211242F933F930A
:1008D0004F935F936F937F938F939F93AF93BF9348
:1008E000EF93FF931092B2008091E2019091E301A7
:1008F00001969093E3018093E2018091E20190914F
:10090000E3010A9750F01092E3011092E201809106
:10091000E0019091E1010E949703FF91EF91BF9157
:10092000AF919F918F917F916F915F914F913F9187
:100930002F910F900FBE0F901F901895EF92FF927E
:100940000F931F93CF93DF938091540290915502A0
:10095000181619060CF5C4EED1E000E010E08E8107
:10096000882381F08C819D8101969D838C832A81CF
:100970003B818217930730F0888199810E94970309
:100980001D821C820F5F1F4F279680915402909109
:100990005502081719071CF3DF91CF911F910F9192
:1009A000FF90EF900895209154023091550220312C
:1009B000310574F5F901EE0FFF1FEE0FFF1FEE0F6B
:1009C000FF1FE21BF30BEC51FE4F158214821682BF
:1009D0001382128291838083232B21F48EE994E089
:1009E0000E9440042091540230915502C9010196A1
:1009F0009093550280935402C901880F991F880F64
:100A0000991F880F991F821B930B8C519E4F08953D
:100A100080E090E00895FC01738362831582148264
:100A200081E086830895789484B5826084BD84B51E
:100A3000816084BD85B5826085BD85B5816085BDD9
:100A400080916E00816080936E0010928100809191
:100A50008100826080938100809181008160809319
:100A60008100809180008160809380008091B1003E
:100A700084608093B1008091B00081608093B00069
:100A800080917A00846080937A0080917A008260FD
:100A900080937A0080917A00816080937A008091BF
:100AA0007A00806880937A001092C1000E94FD0352
:100AB0000E943D040E948D01FBCFE2E1F1E0138230
:100AC000128288EE93E0A0E0B0E084839583A68351
:100AD000B78384E091E09183808385EC90E09587F3
:100AE000848784EC90E09787868780EC90E0918BF8
:100AF000808B81EC90E0938B828B82EC90E0958BE5
:100B0000848B86EC90E0978B868B118E128E138EE1
:100B1000148E0895A1E21A2EAA1BBB1BFD010DC065
:100B2000AA1FBB1FEE1FFF1FA217B307E407F5079D
:100B300020F0A21BB30BE40BF50B661F771F881F79
:100B4000991F1A9469F760957095809590959B010F
:100B5000AC01BD01CF010895EE0FFF1F0590F49188
:100B6000E02D099481E090E0F8940C94B705F89496
:020B7000FFCFB5
:100B7200000000001E018700B5006B01E600C40002
:020B8200D80099
:00000001FF
