S013000041637469766964616420312E7372656337
S11300000C945E000C9486000C9486000C9486007C
S11300100C9486000C9486000C9486000C94860044
S11300200C9486000C94D90A0C9486000C948600D7
S11300300C9486000C9486000C9486000C94860024
S11300400C948F020C9486000C9452040C942C048F
S11300500C9486000C94A1050C9486000C948600E4
S11300600C9486000C9486000000000024002700F5
S11300702A0000000000250028002B0004040404CA
S1130080040404040202020202020303030303033E
S1130090010204081020408001020408102001021B
S11300A004081020000000080002010000030407F7
S11300B00000000000000000C20A600B11241FBEF3
S11300C0CFEFD8E0DEBFCDBF11E0A0E0B1E0E0EFBC
S11300D0FBE102C005900D92A63BB107D9F724E0DD
S11300E0A6EBB1E001C01D92A339B207E1F710E01D
S11300F0CEE5D0E004C02197FE010E94950DCC35D9
S1130100D107C9F70E94160B0C94F60D0C9400004D
S1130110DC01ED91FC910190F081E02D0994CF92E6
S1130120DF92EF92FF920F931F93CF93DF936C01B3
S11301307A018B01C0E0D0E0CE15DF0581F0D80153
S11301406D918D01D601ED91FC910190F081E02D2E
S1130150C6010995892B11F02196EECF7E01C701C6
S1130160DF91CF911F910F91FF90EF90DF90CF908F
S11301700895FC01538D448D252F30E0842F90E0A9
S1130180821B930B541710F0CF960895019708958E
S1130190FC01918D828D981761F0828DDF01A80F8B
S11301A0B11D5D968C91928D9F5F9F73928F90E0AD
S11301B008958FEF9FEF0895FC01918D828D98171C
S11301C031F0828DE80FF11D858D90E008958FEF59
S11301D09FEF0895FC01918D228D892F90E0805C22
S11301E09F4F821B91098F739927089586EB91E0A5
S11301F00E94EA0021E0892B09F420E0822F08956F
S1130200FC01848DDF01A80FB11DA35ABF4F2C91AF
S1130210848D90E001968F739927848FA689B7897E
S11302202C93A089B1898C91837080648C93938D75
S1130230848D981306C00288F389E02D80818F7D18
S113024080830895EF92FF920F931F93CF93DF93D0
S1130250EC0181E0888F9B8D8C8D981305C0E88913
S1130260F989808185FD26C0F62E0B8D10E00F5F85
S11302701F4F0F731127E02E8C8DE8120CC00FB6A0
S113028007FCFACFE889F989808185FFF5CFCE0193
S11302900E940001F1CF8B8DFE01E80FF11DE35A9E
S11302A0FF4FF0829FB7F8940B8FEA89FB89808116
S11302B080620AC09FB7F894EE89FF896083E88959
S11302C0F98980818370806480839FBF81E090E09E
S11302D0DF91CF911F910F91FF90EF900895CF93ED
S11302E0DF93EC01888D8823C9F0EA89FB8980813A
S11302F085FD05C0A889B9898C9186FD0FC00FB60C
S113030007FCF5CF808185FFF2CFA889B9898C914C
S113031085FFEDCFCE010E940001E7CFDF91CF91A1
S1130320089580E090E0892B29F00E94F600811165
S11303300C94000008956115710579F0FB0101909A
S11303400020E9F73197AF01461B570BDC01ED9113
S1130350FC910280F381E02D099480E090E00895FF
S11303608F929F92AF92BF92EF92FF920F931F933F
S1130370CF93DF93CDB7DEB7A1970FB6F894DEBF66
S11303800FBECDBF7C01FA01CB0119A2223008F4C3
S11303902AE08E010F5D1F4F822E912CA12CB12CCF
S11303A0BF01A50194010E94CF0DF901CA010150BA
S11303B011096A3014F4605D01C0695CD8016C9362
S11303C0232B242B252B61F7B801C7010E949B0125
S11303D0A1960FB6F894DEBF0FBECDBFDF91CF91CB
S11303E01F910F91FF90EF90BF90AF909F908F90CF
S11303F008950E94F10D90E0FC01EC55FF4F24910B
S1130400FC01E057FF4F3491FC01E458FF4FE491A5
S1130410EE2309F43CC0222339F1233091F038F45F
S11304202130A9F0223001F584B58F7D12C0273028
S113043091F02830A1F02430B9F4809180008F7DB0
S113044003C0809180008F77809380000DC084B5B5
S11304508F7784BD09C08091B0008F7703C08091ED
S1130460B0008F7D8093B000F0E0EE0FFF1FEE58D8
S1130470FF4FA591B4919FB7F894611104C08C917A
S11304803095382302C0EC913E2B3C939FBF0895D6
S1130490CF93DF9390E0FC01E057FF4F2491FC01E0
S11304A0E458FF4F8491882361F190E0880F991FED
S11304B0FC01E859FF4FC591D491FC01EE58FF4F60
S11304C0A591B491611109C09FB7F89488812095D2
S11304D082238883EC912E230BC0623061F49FB792
S11304E0F8948881322F309583238883EC912E2BC6
S11304F02C939FBF06C08FB7F894E8812E2B2883D6
S11305008FBFDF91CF9108958230910538F0880F25
S1130510991F880F991F05970197F1F708951F9266
S11305200F920FB60F9211242F933F938F939F93A3
S1130530AF93BF938091580290915902A0915A02AF
S1130540B0915B023091570223E0230F2D3720F442
S11305500196A11DB11D05C026E8230F0296A11D19
S1130560B11D209357028093580290935902A0938F
S11305705A02B0935B028091530290915402A0916D
S11305805502B09156020196A11DB11D80935302EC
S113059090935402A0935502B0935602BF91AF9129
S11305A09F918F913F912F910F900FBE0F901F90AD
S11305B018950F931F93CF93DF93EC010E949B0137
S11305C08C0167EA71E0CE010E949B01800F911FAC
S11305D0DF91CF911F910F9108957F928F929F92F7
S11305E0AF92BF92CF92DF92EF92FF920F931F933D
S11305F0CF93DF938C016A017B01722E9A01AB01C8
S1130600C701B6010E94CA0D882319F06AEA71E095
S113061027C046015701E894B7F82FEF3FEF4FE7A3
S11306205FE7C501B4010E94CA0D81110DC02FEF0F
S11306303FEF4FE75FE7C501B4010E94FA0B1816BC
S11306401CF46EEA71E00CC02FEF3FEF4FE75FE45C
S1130650C701B6010E94230D181694F462EB71E0F1
S1130660C801DF91CF911F910F91FF90EF90DF9020
S1130670CF90BF90AF909F908F907F900C949B01F0
S11306802FEF3FEF4FE75FECC701B6010E94FA0B73
S113069087FDE4CF20E030E0A901C701B6010E9444
S11306A0FA0B87FF0AC06DE2C8010E948800EC01C2
S11306B0F7FAF094F7F8F09402C0C0E0D0E0B12C5F
S11306C060E070E080E09FE3B71440F420E030E0A5
S11306D040E251E40E94FF0BB394F6CFA7019601C8
S11306E00E948E0B6B017C010E949B0D4B015C01EF
S11306F02AE0AB01BC01C8010E94B001C80FD91F98
S11307007720C1F1C501B4010E94710C9B01AC01B9
S1130710C701B6010E948D0B6B017C016EE2C8011A
S11307200E948800C80FD91F20E030E040E251E465
S1130730C701B6010E94280D4B015C010E949B0D6C
S11307406B01E12CF12C2AE0B701A601C8010E943B
S1130750B001C80FD91FC701B6010E94710C9B01DB
S1130760AC01C501B4010E948D0B6B017C017A942C
S11307707110DACFCE01DF91CF911F910F91FF90CD
S1130780EF90DF90CF90BF90AF909F908F907F902D
S11307900895CF92DF92EF92FF920F931F93CF931E
S11307A0DF934115510579F4DC01ED91FC91019041
S11307B0F081E02DDF91CF911F910F91FF90EF9089
S11307C0DF90CF9009946B01770FEE08FF084A3051
S11307D05105F9F4F7FE1BC0EC016DE20E9488009C
S11307E08C0144275527BA014C195D096E097F090C
S11307F02AE0CE010E94B001800F911FDF91CF91BA
S11308001F910F91FF90EF90DF90CF9008952AE011
S113081001C0242FB701A601DF91CF911F910F9141
S1130820FF90EF90DF90CF900C94B0010F931F9343
S1130830CF93DF93EC010E94C9038C0167EA71E056
S1130840CE010E949B01800F911FDF91CF911F91D8
S11308500F9108950C949B011F920F920FB60F9263
S113086011242F933F934F935F936F937F938F93B1
S11308709F93AF93BF93EF93FF9386EB91E00E9416
S11308800001FF91EF91BF91AF919F918F917F9163
S11308906F915F914F913F912F910F900FBE0F90E9
S11308A01F9018951F920F920FB60F9211242F9339
S11308B08F939F93EF93FF93E091C601F091C7014B
S11308C08081E091CC01F091CD0182FD12C0908134
S11308D08091CF018F5F8F732091D001821751F0E7
S11308E0E091CF01F0E0EA54FE4F958F8093CF0161
S11308F001C08081FF91EF919F918F912F910F9073
S11309000FBE0F901F901895CF92DF92EF92FF9237
S11309101F93CF93DF93EC016A017B01122FE889C7
S1130920F98982E080834115514E61057105B1F06A
S113093060E079E08DE390E0A70196010E94CF0D7D
S1130940DA01C9010197A109B109B695A79597954F
S113095087959C01211580E13807A8F0E889F98979
S1130960108260E874E88EE190E0A70196010E948D
S1130970CF0DDA01C9010197A109B109B695A7956F
S1130980979587959C01EC85FD853083EE85FF85E1
S11309902083188EEC89FD891083EA89FB89808184
S11309A080618083EA89FB89808188608083EA8909
S11309B0FB89808180688083EA89FB8980818F7DBF
S11309C08083DF91CF911F91FF90EF90DF90CF90C4
S11309D00895EF92FF920F931F93CF93DF930E949A
S11309E00206CCE5D2E00F2EF8E9EF2EF2E0FF2E5E
S11309F0F02D8E819F81892B31F188859985892BF2
S1130A0011F16EE171E086EB91E00E942A046881A5
S1130A1079814AE050E086EB91E00E94C9036FE2DD
S1130A2071E086EB91E00E942A046C817D814AE0AA
S1130A3050E086EB91E00E9416048A819B810E941B
S1130A407806198618862A96CE15DF0591F60E9437
S1130A502606DF91CF911F910F91FF90EF9008959B
S1130A60CF93DF93EC010E9402062881398126305E
S1130A70310508F061C0C901880F991F880F991FBB
S1130A80880F991FD901AA0FBB1FA80FB91FA45A19
S1130A90BD4F8AE0FE0101900D928A95E1F78881AD
S1130AA09981FC01EE0FFF1F880F991F880F991F72
S1130AB0880F991FE80FF91FE45AFD4F81E090E079
S1130AC09783868380919A0290919B02892B31F5BA
S1130AD030939D0220939C02ECE7F0E08081282B68
S1130AE020838091980290919902892B89F4EAE7F6
S1130AF0F0E080818068808380818760808380814A
S1130B008860808380818F6D80838081806480830E
S1130B1081E090E090939B0280939A0280919802E6
S1130B2090919902019690939902809398020E9461
S1130B30260681E090E002C080E090E0DF91CF9152
S1130B4008951F920F920FB60F9211242F933F9383
S1130B504F935F936F937F938F939F93AF93BF93C1
S1130B60EF93FF9380919C0290919D0220917800D5
S1130B7030917900FC01EE0FFF1F880F991F880F39
S1130B80991F880F991FE80FF91FE45AFD4F358309
S1130B90248380919C0290919D02FC01EE0FFF1F23
S1130BA0880F991F880F991F880F991FE80FF91F45
S1130BB0E45AFD4F81E090E09187808789EE94E0CC
S1130BC00E94780680919C0290919D02ECE7F0E0EF
S1130BD08083808188608083EAE7F0E0808180649C
S1130BE08083FF91EF91BF91AF919F918F917F91FE
S1130BF06F915F914F913F912F910F900FBE0F9086
S1130C001F9018952FB7F89480919E0290919F029F
S1130C10892B19F422239CF408C080919E029091A0
S1130C209F02892B91F0222384F080919E0290915F
S1130C309F02019690939F0280939E020895809153
S1130C409E0290919F02892B81F708952FB7F89403
S1130C5080919E0290919F02181619068CF480913F
S1130C609E0290919F02019790939F0280939E020F
S1130C7080919E0290919F02892B29F47894089583
S1130C8022230CF4789408951092A2021092A102E7
S1130C901092A00281E008950E9402068091A002B1
S1130CA0882311F10E942606E091A202F0E0EE0FE3
S1130CB0FF1FED55FD4F0190F081E02D09950E9435
S1130CC002068091A20290E001968F709078992399
S1130CD024F40197806F9F6F01968093A202809104
S1130CE0A00281508093A0020E94260681E008950C
S1130CF0CF93DF93EC010E9402062091A0022031E1
S1130D00D0F48091A10290E0FC01EE0FFF1FED559D
S1130D10FD4FD183C08301968F709078992324F47A
S1130D200197806F9F6F01968093A1022F5F20939C
S1130D30A002C1E001C0C0E00E9426068C2FDF9112
S1130D40CF910895CF93DF938091C902082E000CB0
S1130D50990B20910001309101018217930754F0FF
S1130D60E2E0F1E0C1E0D0E02191319182179307F4
S1130D70DCF438C080910A0190910B01892BC9F1F0
S1130D80C0E0D0E0D0930B01C0930A01FE01EE0F46
S1130D90FF1FEE0FFF1FE153FD4F0280F381E02D93
S1130DA00995259734F104C02196C530D105E1F6A3
S1130DB080910A0190910B018F3F2FEF9207C9F0A8
S1130DC0880F991F880F991FFC01E153FD4F019073
S1130DD0F081E02D09958FEF9FEF90930B018093A5
S1130DE00A0107C080910A0190910B018C179D079D
S1130DF049F6DF91CF9108958091C3029091C40286
S1130E0001969093C4028093C302C39744F082EA8C
S1130E1096E00E9478061092C4021092C3020895CC
S1130E206530710548F4660F771F660F771FFB0165
S1130E30E153FD4F9183808308956530710548F433
S1130E40660F771F660F771FFB01E153FD4F9383F6
S1130E5082830895E5ECF2E0118210828CEF96E033
S1130E6093838283158214821782168211861086D8
S1130E70CF010E943005089580E090E00895089520
S1130E80CF93DF93EC0160E08E810E94FB0181E04F
S1130E9090E00E94840261E08E810E94FB0181E067
S1130EA090E00E94840260E08E810E94FB0184E64F
S1130EB090E00E948402DF91CF910895CF92DF9257
S1130EC0EF92FF920F931F93CF93DF936C018C01EA
S1130ED0095F1F4FC0E0D0E0E62EF12CB7010C2EC5
S1130EE002C0759567950A94E2F76170F8018191E3
S1130EF08F010E94FB012196C430D10579F7C60108
S1130F000E944007DF91CF911F910F91FF90EF90C6
S1130F10DF90CF900895CF92DF92EF92FF920F93DC
S1130F201F93CF93DF936C018C01095F1F4FC0E0C7
S1130F30D0E0E62EF12CB7010C2E02C07595679512
S1130F400A94E2F76170F80181918F010E94FB011C
S1130F502196C830D10579F7C6010E944007DF9178
S1130F60CF911F910F91FF90EF90DF90CF90089554
S1130F701F93CF93DF93EC01162F642F8C810E9473
S1130F80FB018D818F3F19F060E00E94FB018F858A
S1130F9084FF05C0612FCE010E948B0711C0612F11
S1130FA070E07595679575956795759567957595D1
S1130FB06795CE010E945E07612FCE010E945E07F5
S1130FC0DF91CF911F91089540E061E00E94B8073E
S1130FD080ED97E00E9484020895FC01443008F0FB
S1130FE043E08389481710F04FEF480FDF01A40F47
S1130FF0B11D54969C91690F606840E0CF010E9436
S1131000B8070895FC016089262F2460208B6C604A
S113101040E00E94B8070895AF92BF92CF92DF924A
S1131020EF92FF920F931F93CF93DF93EC01423023
S113103018F08F8588608F874B8B1C8A80E48D8B9A
S11310406E8B70E0605C7F4F6F8B222329F0413000
S113105019F48F8584608F8761E08C810E94480237
S11310608D818F3F19F061E00E94480261E08E811A
S11310700E9448027E0187E0E80EF11C00E010E0C7
S11310806894AA24A3F8B12C6894CC24C2F8D12C77
S11310908F8584FD03C08C2D9D2D02C08A2D9B2D30
S11310A0081719074CF461E0F70181917F010E9450
S11310B048020F5F1F4FECCF80E593EC0E9484023F
S11310C060E08C810E94FB0160E08E810E94FB0144
S11310D08D818F3F19F060E00E94FB016F8564FDF4
S11310E01DC063E0CE010E945E0784E991E10E9485
S11310F0840263E0CE010E945E0784E991E10E94CC
S1131100840263E0CE010E945E0786E990E00E94BB
S1131110840262E0CE010E945E0719C0606240E072
S1131120CE010E94B80784E991E10E9484026F8590
S1131130606240E0CE010E94B80786E990E00E9418
S113114084026F85606240E0CE010E94B8076F851B
S1131150606240E0CE010E94B80784E0888BCE0133
S11311600E940208CE010E94E40782E0898B40E0DD
S113117066E0CE010E94B807DF91CF911F910F91D5
S1131180FF90EF90DF90CF90BF90AF900895CF92F3
S1131190EF920F93FC01138212828EE391E091830C
S11311A0808364838FEF8583468327830087E1866A
S11311B0C2861386148615861686178620E041E0BB
S11311C060E1CF010E940C080F91EF90CF90089539
S11311D041E00E94B80781E090E0089541E060E0BA
S11311E087E794E00E94ED0766E471E087E794E006
S11311F00E942A04089541E060E087E794E00E9499
S1131200ED0766E471E087E794E00E942A040895FC
S113121041E060E087E794E00E94ED0766E471E056
S113122087E794E00E942A04089541E060E087E79C
S113123094E00E94ED0766E471E087E794E00E9481
S11312402A04089541E060E087E794E00E94ED07F6
S113125066E471E087E794E00E942A04089541E07F
S113126060E087E794E00E94ED0766E471E087E7B9
S113127094E00E942A0408958F929F92AF92BF92A5
S1131280CF92DF92EF92FF920F931F93CF93DF934E
S113129041E060E087E794E00E94ED0767E571E0D4
S11312A087E794E00E942A048090E3029090E4028D
S11312B0A090E502B090E602C7EED2E003E714E0A6
S11312C0C990D990E990F990282D392D4A2D5B2D9C
S11312D0C701B6010E94230D181624F48C2C9D2CF2
S11312E0AE2CBF2CC017D10759F741E06BE087E75C
S11312F094E00E94ED0722E030E0482D592D6A2D3C
S11313007B2D87E794E00E94ED02DF91CF911F913E
S11313100F91FF90EF90DF90CF90BF90AF909F9090
S11313208F9008958F929F92AF92BF92CF92DF9247
S1131330EF92FF920F931F93CF93DF9341E060E00E
S113134087E794E00E94ED0760E671E087E794E0A8
S11313500E942A048090E3029090E402A090E502A7
S1131360B090E602C7EED2E003E714E0C990D9904A
S1131370E990F990282D392D4A2D5B2DC701B6012E
S11313800E94FA0B882324F48C2C9D2CAE2CBF2CA9
S1131390C017D10759F741E06BE087E794E00E945A
S11313A0ED0722E030E0482D592D6A2D7B2D87E78B
S11313B094E00E94ED02DF91CF911F910F91FF9075
S11313C0EF90DF90CF90BF90AF909F908F90089553
S11313D041E060E087E794E00E94ED0769E671E090
S11313E087E794E00E942A0441E06BE087E794E0F9
S11313F00E94ED0740917304509174046091750448
S11314007091760422E030E087E794E00E94ED02D8
S11314100895CF92DF92EF92FF920F931F93CF9391
S1131420DF9341E060E087E794E00E94ED0764E722
S113143071E087E794E00E942A046EE771E086EB8E
S113144091E00E94D902C7EED2E003E714E0C12C78
S1131450D12C76012991399149915991C701B6014D
S11314600E948E0B6B017C01C017D10799F741E0F4
S11314706BE087E794E00E94ED0720E030E048EC61
S113148052E4C701B6010E94FF0BAB01BC0122E08C
S113149030E087E794E00E94ED02DF91CF911F9145
S11314A00F91FF90EF90DF90CF90089526E040E8F1
S11314B055E260E070E086EB91E00E94840420E055
S11314C042E060E187E794E00E940C0840E060E0BD
S11314D087E794E00E94ED0766E971E087E794E00E
S11314E00E942A0441E060E087E794E00E94ED074F
S11314F066E471E087E794E00E942A040E944406AF
S11315000E942A0761E070E08EEE98E00E941007C6
S113151061E070E08CE399E00E941D0762E070E0F6
S11315208BEF98E00E94100762E070E082E999E096
S11315300E941D0763E070E085E199E00E941007B6
S113154063E070E088EE99E00E941D0760E070E0BF
S113155088E099E00E94100760E070E089E09AE07A
S11315600E941D0764E070E082E299E00E94100787
S113157064E070E08FE299E00E941D0708950E94E4
S11315804C060895CF92EF920F930F2EF7E0CF2ED3
S1131590F02D0F2EF6E0EF2EF02D05E024E049E0CB
S11315A068E087E794E00E94C7080F91EF90CF901E
S11315B008951F920F920FB60F9211242F933F9309
S11315C04F935F936F937F938F939F93AF93BF9347
S11315D0EF93FF931092B200809191049091920442
S11315E00196909392048093910480919104909138
S11315F092040A9750F010929204109291048091F0
S11316008F04909190040E947806FF91EF91BF910E
S1131610AF919F918F917F916F915F914F913F9186
S11316202F910F900FBE0F901F901895789484B54A
S1131630826084BD84B5816084BD85B5826085BDCA
S113164085B5816085BD80916E00816080936E0058
S1131650109281008091810082608093810080914A
S113166081008160809381008091800081608093FB
S113167080008091B10084608093B1008091B000BB
S113168081608093B00080917A00846080937A00B6
S113169080917A00826080937A0080917A008160E0
S11316A080937A0080917A00806880937A00109207
S11316B0C1000E94560A0E94BF0A0E949101FBCFFA
S11316C0E6EBF1E01382128288EE93E0A0E0B0E052
S11316D084839583A683B78380E191E0918380839B
S11316E085EC90E09587848784EC90E097878687E3
S11316F080EC90E0918B808B81EC90E0938B828BDB
S113170082EC90E0958B848B86EC90E0978B868BB3
S1131710118E128E138E148E08955058BB27AA274B
S11317200E94A50B0C94E90C0E94DB0C38F00E947B
S1131730E20C20F039F49F3F19F426F40C94D80CF1
S11317400EF4E095E7FB0C94D20CE92F0E94FA0CFE
S113175058F3BA17620773078407950720F079F4E2
S1131760A6F50C941C0D0EF4E0950B2EBA2FA02DAB
S11317700B01B90190010C01CA01A0011124FF273A
S1131780591B99F0593F50F4503E68F11A16F04035
S1131790A22F232F342F4427585FF3CF4695379534
S11317A02795A795F0405395C9F77EF41F16BA0BF9
S11317B0620B730B840BBAF09150A1F0FF0FBB1FA7
S11317C0661F771F881FC2F70EC0BA0F621F731FF0
S11317D0841F48F4879577956795B795F7959E3F4D
S11317E008F0B0CF9395880F08F09927EE0F9795DE
S11317F0879508950E94AE0C08F481E008950E9434
S1131800130C0C94E90C0E94E20C58F00E94DB0CBF
S113181040F029F45F3F29F00C94D20C51110C9440
S11318201D0D0C94D80C0E94FA0C68F39923B1F3A3
S1131830552391F3951B550BBB27AA2762177307F2
S1131840840738F09F5F5F4F220F331F441FAA1F86
S1131850A9F335D00E2E3AF0E0E832D09150504042
S1131860E695001CCAF72BD0FE2F29D0660F771FF0
S1131870881FBB1F261737074807AB07B0E809F0D6
S1131880BB0B802DBF01FF2793585F4F3AF09E3F5B
S1131890510578F00C94D20C0C941D0D5F3FE4F3C9
S11318A0983ED4F3869577956795B795F7959F5F9E
S11318B0C9F7880F911D9695879597F90895E1E0EA
S11318C0660F771F881FBB1F621773078407BA0749
S11318D020F0621B730B840BBA0BEE1F88F7E095A4
S11318E00895E89409C097FB3EF49095809570950F
S11318F061957F4F8F4F9F4F9923A9F0F92F96E958
S1131900BB279395F695879577956795B795F111CC
S1131910F8CFFAF4BB0F11F460FF1BC06F5F7F4F69
S11319208F4F9F4F16C0882311F096E911C077237B
S113193021F09EE8872F762F05C0662371F096E884
S1131940862F70E060E02AF09A95660F771F881F53
S1131950DAF7880F9695879597F90895990F0008F7
S1131960550FAA0BE0E8FEEF16161706E807F9076D
S1131970C0F012161306E407F50798F0621B730B08
S1131980840B950B39F40A2661F0232B242B252B89
S113199021F408950A2609F4A140A6958FEF811D2C
S11319A0811D089597F99F6780E870E060E00895CD
S11319B09FEF80EC089500240A9416161706180663
S11319C00906089500240A9412161306140605063F
S11319D00895092E0394000C11F4882352F0BB0FD0
S11319E040F4BF2B11F460FF04C06F5F7F4F8F4F33
S11319F09F4F089557FD9058440F551F59F05F3F6E
S1131A0071F04795880F97FB991F61F09F3F79F01C
S1131A1087950895121613061406551FF2CF46959E
S1131A20F1DF08C0161617061806991FF1CF869520
S1131A307105610508940895E894BB276627772704
S1131A40CB0197F908950E94AE0C08F48FEF089526
S1131A500E943B0D0C94E90C0E94DB0C38F00E94B0
S1131A60E20C20F0952311F00C94D20C0C94D80CB9
S1131A7011240C941D0D0E94FA0C70F3959FC1F370
S1131A80950F50E0551F629FF001729FBB27F00D28
S1131A90B11D639FAA27F00DB11DAA1F649F66277D
S1131AA0B00DA11D661F829F2227B00DA11D621FCC
S1131AB0739FB00DA11D621F839FA00D611D221F86
S1131AC0749F3327A00D611D231F849F600D211D6A
S1131AD0822F762F6A2F11249F5750409AF0F1F0ED
S1131AE088234AF0EE0FFF1FBB1F661F771F881F56
S1131AF091505040A9F79E3F510580F00C94D20CB0
S1131B000C941D0D5F3FE4F3983ED4F386957795CE
S1131B106795B795F795E7959F5FC1F7FE2B880FFB
S1131B20911D9695879597F90895EE0FFF1F0590DF
S1131B30F491E02D09940E94020D88F09F5798F0CB
S1131B40B92F9927B751B0F0E1F0660F771F881FBE
S1131B50991F1AF0BA95C9F714C0B13091F00E94D8
S1131B601C0DB1E008950C941C0D672F782F882765
S1131B70B85F39F0B93FCCF3869577956795B395FF
S1131B80D9F73EF490958095709561957F4F8F4F6E
S1131B909F4F08950E94AE0C880B990B0895A1E203
S1131BA01A2EAA1BBB1BFD010DC0AA1FBB1FEE1FD3
S1131BB0FF1FA217B307E407F50720F0A21BB30B1E
S1131BC0E40BF50B661F771F881F991F1A9469F79A
S1131BD060957095809590959B01AC01BD01CF01F6
S1131BE0089581E090E0F8940C94F60DF894FFCFFA
S1131BF03200E60068011702F802FFFF000000004F
S1131C0022018F00B9006F01EA00C800DC006C6596
S1131C106F20656E20656C2063616E616C200076B8
S1131C20616C756520616463200000000000E808B1
S1131C308F003C073F072020202020202020202048
S1131C40202020202020004D41582E2043B0200089
S1131C504D494E2E2043B0200041435455414C2061
S1131C6043B0200050524F4D2E2043B020006C6CE6
S1131C706567756520616C20646F776E5F6B65794D
S1131C805269676874005345323031392053656EA8
S1131C902E54656D702E000D0A006E616E00696E23
S1091CA066006F76660089
S9030000FC
