S013000041637469766964616420312E7372656337
S11300000C945E000C9486000C9486000C9486007C
S11300100C9486000C9486000C9486000C94860044
S11300200C9486000C94420C0C9486000C9486006C
S11300300C9486000C9486000C9486000C94860024
S11300400C943F020C9486000C9429040C94030431
S11300500C9486000C9432050C9486000C94860053
S11300600C9486000C9486000000000024002700F5
S11300702A0000000000250028002B0004040404CA
S1130080040404040202020202020303030303033E
S1130090010204081020408001020408102001021B
S11300A004081020000000080002010000030407F7
S11300B00000000000000000B80B3E0D11241FBE1C
S11300C0CFEFD8E0DEBFCDBF11E0A0E0B1E0ECEFB0
S11300D0FFE102C005900D92A03BB107D9F725E0DE
S11300E0A0EBB1E001C01D92AD31B207E1F710E021
S11300F0CEE5D0E004C02197FE010E949B0FCC35D1
S1130100D107C9F70E94F40C0C94FC0F0C94000066
S1130110CF92DF92EF92FF920F931F93CF93DF93CF
S11301206C017A018B01C0E0D0E0CE15DF0581F0CF
S1130130D8016D918D01D601ED91FC910190F08172
S1130140E02DC6010995892B11F02196EECF7E0191
S1130150C701DF91CF911F910F91FF90EF90DF9036
S1130160CF900895FC01538D448D252F30E0842FCA
S113017090E0821B930B541710F0CF9608950197CB
S11301800895FC01918D828D981761F0828DDF01B5
S1130190A80FB11D5D968C91928D9F5F9F73928F76
S11301A090E008958FEF9FEF0895FC01918D828D6B
S11301B0981731F0828DE80FF11D858D90E0089538
S11301C08FEF9FEF0895FC01918D228D892F90E090
S11301D0805C9F4F821B91098F739927089580EB50
S11301E091E00E94E30021E0892B09F420E0822FB2
S11301F00895FC01848DDF01A80FB11DA35ABF4FE0
S11302002C91848D90E001968F739927848FA68911
S1130210B7892C93A089B1898C91837080648C9365
S1130220938D848D981306C00288F389E02D808114
S11302308F7D80830895EF92FF920F931F93CF9346
S1130240DF93EC0181E0888F9B8D8C8D981305C022
S1130250E889F989808185FD26C0F62E0B8D10E092
S11302600F5F1F4F0F731127E02E8C8DE8120CC007
S11302700FB607FCFACFE889F989808185FFF5CFAD
S1130280CE010E94F900F1CF8B8DFE01E80FF11D24
S1130290E35AFF4FF0829FB7F8940B8FEA89FB89EA
S11302A0808180620AC09FB7F894EE89FF896083D9
S11302B0E889F98980818370806480839FBF81E0AD
S11302C090E0DF91CF911F910F91FF90EF900895EF
S11302D0CF93DF93EC01888D8823C9F0EA89FB89E9
S11302E0808185FD05C0A889B9898C9186FD0FC0E0
S11302F00FB607FCF5CF808185FFF2CFA889B989B5
S11303008C9185FFEDCFCE010E94F900E7CFDF91FC
S1130310CF91089580E090E0892B29F00E94EF00AE
S113032081110C94000008956115710579F0FB01A9
S113033001900020E9F73197AF01461B570BDC0110
S1130340ED91FC910280F381E02D099480E090E02E
S113035008950E94F70F90E0FC01EC55FF4F2491A3
S1130360FC01E057FF4F3491FC01E458FF4FE49146
S1130370EE2309F43CC0222339F1233091F038F400
S11303802130A9F0223001F584B58F7D12C02730C9
S113039091F02830A1F02430B9F4809180008F7D51
S11303A003C0809180008F77809380000DC084B556
S11303B08F7784BD09C08091B0008F7703C080918E
S11303C0B0008F7D8093B000F0E0EE0FFF1FEE5879
S11303D0FF4FA591B4919FB7F894611104C08C911B
S11303E03095382302C0EC913E2B3C939FBF089577
S11303F0CF93DF9390E0FC01E057FF4F2491FC0181
S1130400E458FF4F8491882361F190E0880F991F8D
S1130410FC01E859FF4FC591D491FC01EE58FF4F00
S1130420A591B491611109C09FB7F8948881209572
S113043082238883EC912E230BC0623061F49FB732
S1130440F8948881322F309583238883EC912E2B66
S11304502C939FBF06C08FB7F894E8812E2B288376
S11304608FBFDF91CF9108958230910538F0880FC6
S1130470991F880F991F05970197F1F708951F9207
S11304800F920FB60F9211242F933F938F939F9344
S1130490AF93BF938091520290915302A091540262
S11304A0B09155023091510223E0230F2D3720F4EF
S11304B00196A11DB11D05C026E8230F0296A11DBA
S11304C0B11D209351028093520290935302A09342
S11304D05402B093550280914D0290914E02A09126
S11304E04F02B09150020196A11DB11D80934D029F
S11304F090934E02A0934F02B0935002BF91AF91DC
S11305009F918F913F912F910F900FBE0F901F904D
S11305101895AF92BF92CF92DF92EF92FF920F9312
S11305201F93CF93DF93CDB7DEB7A1970FB6F8949F
S1130530DEBF0FBECDBF5C014115510541F4DC01A6
S1130540ED91FC910190F081E02D099525C019A24F
S1130550423008F44AE080E090E08E010F5D1F4FC6
S1130560C42ED12CE12CF12CA70196010E94D50FA9
S1130570E62FCA01B90101501109EA3014F4E05D13
S113058001C0E95CD801EC93232B242B252B61F7C4
S1130590B801C5010E949401A1960FB6F894DEBF7C
S11305A00FBECDBFDF91CF911F910F91FF90EF90C0
S11305B0DF90CF90BF90AF9008952F923F924F92CB
S11305C05F926F927F928F929F92AF92BF92CF92DF
S11305D0DF92EF92FF920F931F93CF93DF93CDB7E8
S11305E0DEB7A1970FB6F894DEBF0FBECDBF8C0166
S11305F04A015B01D22E9A01AB01C501B4010E94EC
S1130600D00F882319F061EA71E027C02401350175
S1130610E89477F82FEF3FEF4FE75FE7C301B201AC
S11306200E94D00F81110DC02FEF3FEF4FE75FE71E
S1130630C301B2010E94D80D18161CF465EA71E0DA
S11306400CC02FEF3FEF4FE75FE4C501B4010E94F8
S1130650010F181634F469EA71E0C8010E9494018C
S1130660A1C02FEF3FEF4FE75FECC501B4010E943B
S1130670D80D87FDF0CF20E030E0A901C501B40119
S11306800E94D80D87FF0FC0D801ED91FC91019015
S1130690F081E02D6DE2C80109951C01B7FAB09410
S11306A0B7F8B09402C0212C312CF12C60E070E03A
S11306B080E09FE3DF1441F020E030E040E251E4C9
S11306C00E94DD0DF394F6CFA50194010E946C0DF8
S11306D04B015C010E94A10F562E672E782EC92E65
S11306E019A2262F372F482F592F7E01B1E2EB0E86
S11306F0F11CCA01B9012AE030E040E050E00E9458
S1130700D50F605DF70162937F0121153105410525
S1130710510579F7BF01C8010E9494017101E80EE7
S1130720F91EDD20F1F1652D762D872D9C2D0E947B
S11307304F0E9B01AC01C501B4010E946B0D4B012E
S11307405C01D801ED91FC910190F081E02D6EE205
S1130750C8010995E80EF91E20E030E040E251E4BA
S1130760C501B4010E94060F2B013C010E94A10F98
S11307704B015C014AE050E0C8010E948902E80E86
S1130780F91EB40180E090E00E944F0E9B01AC0181
S1130790C301B2010E946B0D4B015C01DA94D110CC
S11307A0DBCFC701A1960FB6F894DEBF0FBECDBF55
S11307B0DF91CF911F910F91FF90EF90DF90CF9039
S11307C0BF90AF909F908F907F906F905F904F906D
S11307D03F902F9008950F931F93CF93DF93EC01D5
S11307E00E94DD028C016DEA71E0CE010E94940149
S11307F0800F911FDF91CF911F910F9108950C9459
S1130800DD020C9494011F920F920FB60F921124E3
S11308102F933F934F935F936F937F938F939F9304
S1130820AF93BF93EF93FF9380EB91E00E94F900A5
S1130830FF91EF91BF91AF919F918F917F916F91B4
S11308405F914F913F912F910F900FBE0F901F908A
S113085018951F920F920FB60F9211242F938F9316
S11308609F93EF93FF93E091C001F091C1018081C8
S1130870E091C601F091C70182FD12C09081809180
S1130880C9018F5F8F732091CA01821751F0E091E3
S1130890C901F0E0E055FE4F958F8093C90101C076
S11308A08081FF91EF919F918F912F910F900FBEB7
S11308B00F901F901895CF92DF92EF92FF921F93A3
S11308C0CF93DF93EC016A017B01122FE889F98948
S11308D082E080834115514E61057105B1F060E0FD
S11308E079E08DE390E0A70196010E94D50FDA012B
S11308F0C9010197A109B109B695A795979587955F
S11309009C01211580E13807A8F0E889F989108253
S113091060E874E88EE190E0A70196010E94D50F8B
S1130920DA01C9010197A109B109B695A79597956F
S113093087959C01EC85FD853083EE85FF852083BA
S1130940188EEC89FD891083EA89FB898081806196
S11309508083EA89FB89808188608083EA89FB89B6
S1130960808180688083EA89FB8980818F7D808390
S1130970DF91CF911F91FF90EF90DF90CF9008957A
S11309800F931F93CF93DF93C6E5D2E002E912E001
S113099088859985892B39F0EA81FB818C819D8139
S11309A00995198618862A96C017D10789F7DF9109
S11309B0CF911F910F910895FC0120813181D901BC
S11309C0AA0FBB1F220F331F220F331F220F331F07
S11309D0A20FB31FAA5ABD4F2AE001900D922A9587
S11309E0E1F7FC0180819181FC01EE0FFF1F880F6C
S11309F0991F880F991F880F991FE80FF91FEA5A4A
S1130A00FD4F81E090E097838683809194029091DA
S1130A109502892B21F5F894EAE7F0E0808187605C
S1130A208083ACE7B0E08C9180648C938C918F7D53
S1130A308C9380818F7D8083808180688083808196
S1130A40886080838C91807F8C9380818064808394
S1130A50789481E090E0909395028093940281E0F1
S1130A6090E008951F920F920FB60F9211242F93C6
S1130A703F934F935F936F937F938F939F93AF9322
S1130A80BF93EF93FF93809178002091790090E0D9
S1130A90922B90939302809392028091960290916C
S1130AA097022091920230919302FC01EE0FFF1FF6
S1130AB0880F991F880F991F880F991FE80FF91F36
S1130AC0EA5AFD4F358324838091960290919702D0
S1130AD0FC01EE0FFF1F880F991F880F991F880FC5
S1130AE0991FE80FF91FEA5AFD4F81E090E09187C2
S1130AF080878091960290919702892B79F481E006
S1130B0090E09093970280939602ECE7F0E0808166
S1130B10807F808380818160808309C010929702E6
S1130B2010929602ECE7F0E08081807F808380EC75
S1130B3094E00E942706EAE7F0E0808180648083E5
S1130B40FF91EF91BF91AF919F918F917F916F91A1
S1130B505F914F913F912F910F900FBE0F901F9077
S1130B6018952FB7F8948091980290919902892B47
S1130B7019F422239CF408C0809198029091990260
S1130B80892B91F0222384F080919802909199020C
S1130B900196909399028093980208958091980207
S1130BA090919902892B81F708952FB7F894809139
S1130BB0980290919902181619068CF48091980263
S1130BC09091990201979093990280939802809151
S1130BD0980290919902892B29F4789408952223FC
S1130BE00CF47894089510929C0210929B02109237
S1130BF09A0281E008950E94B10580919A028823A7
S1130C0011F10E94D505E0919C02F0E0EE0FFF1F68
S1130C10E356FD4F0190F081E02D09950E94B10546
S1130C2080919C0290E001968F709078992324F42F
S1130C300197806F9F6F019680939C0280919A0226
S1130C40815080939A020E94D50581E00895CF9344
S1130C50DF93EC010E94B10520919A022031D0F477
S1130C6080919B0290E0FC01EE0FFF1FE356FD4FC5
S1130C70D183C08301968F709078992324F40197CF
S1130C80806F9F6F019680939B022F5F20939A023F
S1130C90C1E001C0C0E00E94D5058C2FDF91CF9147
S1130CA00895CF93DF9320910001309101018217C1
S1130CB0930750F0E2E0F1E0C1E0D0E021913191FE
S1130CC082179307D8F438C080910A0190910B01E0
S1130CD0892BC9F1C0E0D0E0D0930B01C0930A0185
S1130CE0FE01EE0FFF1FEE0FFF1FE953FD4F0280C1
S1130CF0F381E02D0995259734F104C02196C53080
S1130D00D105E1F680910A0190910B018F3F2FEFFD
S1130D109207C9F0880F991F880F991FFC01E953A6
S1130D20FD4F0190F081E02D09958FEF9FEF909397
S1130D300B0180930A0107C080910A0190910B0175
S1130D408C179D0749F6DF91CF91089565307105A1
S1130D5048F4660F771F660F771FFB01E953FD4FB9
S1130D609183808308956530710548F4660F771F79
S1130D70660F771FFB01E953FD4F93838283089528
S1130D80EDEBF2E01182108281E596E09383828399
S1130D90158214821782168211861086CF010E9452
S1130DA0DC04089580E090E008950895CF93DF93E4
S1130DB0EC0160E08E810E94AB0181E090E00E9432
S1130DC0340261E08E810E94AB0181E090E00E94D8
S1130DD0340260E08E810E94AB0184E690E00E94C0
S1130DE03402DF91CF910895CF92DF92EF92FF9278
S1130DF00F931F93CF93DF936C018C01095F1F4FF7
S1130E00C0E0D0E0E62EF12CB7010C2E02C075959F
S1130E1067950A94E2F76170F80181918F010E944D
S1130E20AB012196C430D10579F7C6010E94D606DC
S1130E30DF91CF911F910F91FF90EF90DF90CF90B2
S1130E400895CF92DF92EF92FF920F931F93CF9367
S1130E50DF936C018C01095F1F4FC0E0D0E0E62EE8
S1130E60F12CB7010C2E02C0759567950A94E2F730
S1130E706170F80181918F010E94AB012196C83005
S1130E80D10579F7C6010E94D606DF91CF911F9153
S1130E900F91FF90EF90DF90CF9008951F93CF9321
S1130EA0DF93EC01162F642F8C810E94AB018D819E
S1130EB08F3F19F060E00E94AB018F8584FF05C06D
S1130EC0612FCE010E94210711C0612F70E075953A
S1130ED06795759567957595679575956795CE0131
S1130EE00E94F406612FCE010E94F406DF91CF9197
S1130EF01F91089540E061E00E944E0780ED97E065
S1130F000E9434020895FC01443008F043E08389D0
S1130F10481710F04FEF480FDF01A40FB11D54968E
S1130F209C91690F606840E0CF010E944E070895CC
S1130F30FC016089262F2460208B6C6040E00E94B5
S1130F404E070895AF92BF92CF92DF92EF92FF9235
S1130F500F931F93CF93DF93EC01423018F08F85EA
S1130F6088608F874B8B1C8A80E48D8B6E8B70E03E
S1130F70605C7F4F6F8B222329F0413019F48F85F9
S1130F8084608F8761E08C810E94F8018D818F3F9E
S1130F9019F061E00E94F80161E08E810E94F8017D
S1130FA07E0187E0E80EF11C00E010E06894AA24BA
S1130FB0A3F8B12C6894CC24C2F8D12C8F8584FD7D
S1130FC003C08C2D9D2D02C08A2D9B2D0817190757
S1130FD04CF461E0F70181917F010E94F8010F5FF9
S1130FE01F4FECCF80E593EC0E94340260E08C81CB
S1130FF00E94AB0160E08E810E94AB018D818F3F26
S113100019F060E00E94AB016F8564FD1DC063E0D0
S1131010CE010E94F40684E991E10E94340263E067
S1131020CE010E94F40684E991E10E94340263E057
S1131030CE010E94F40686E990E00E94340262E048
S1131040CE010E94F40619C0606240E0CE010E9405
S11310504E0784E991E10E9434026F85606240E0AA
S1131060CE010E944E0786E990E00E9434026F850B
S1131070606240E0CE010E944E076F85606240E0EE
S1131080CE010E944E0784E0888BCE010E9498070F
S1131090CE010E947A0782E0898B40E066E0CE01AF
S11310A00E944E07DF91CF911F910F91FF90EF9017
S11310B0DF90CF90BF90AF900895CF92EF920F93AF
S11310C0FC011382128282E291E091838083648323
S11310D08FEF8583468327830087E186C286138644
S11310E0148615861686178620E041E060E1CF015C
S11310F00E94A2070F91EF90CF90089541E00E94C3
S11311004E0781E090E0089541E060E080E894E0DB
S11311100E9483076AE271E080E894E00E9401047F
S1131120089541E060E080E894E00E9483076AE269
S113113071E080E894E00E940104089541E060E0D9
S113114080E894E00E9483076AE271E080E894E01A
S11311500E940104089541E060E080E894E00E9468
S113116083076AE271E080E894E00E940104089534
S113117041E060E080E894E00E9483076AE271E065
S113118080E894E00E940104089541E060E080E872
S113119094E00E9483076BE371E080E894E00E948E
S11311A0010441E06BE080E894E00E9483074091F1
S11311B0E4025091E5026091E6027091E70222E0B8
S11311C030E080E894E00E94FF03089541E060E08D
S11311D080E894E00E94830764E471E080E894E08E
S11311E00E94010441E06BE080E894E00E948307E0
S11311F04091E8025091E9026091EA027091EB0299
S113120022E030E080E894E00E94FF03089541E08A
S113121060E080E894E00E9483076DE471E080E878
S113122094E00E94010441E06BE080E894E00E94B5
S113123083074091E0025091E1026091E2027091D3
S1131240E30222E030E080E894E00E94FF03089586
S113125041E060E080E894E00E94830767E571E084
S113126080E894E00E94010441E06BE080E894E0AF
S11312700E9483078091DE029091DF0218161906FE
S113128064F4880F991F880F991FFC01E851FD4FE2
S1131290408151816281738103C040E050E0BA0112
S11312A022E030E080E894E00E94FF03089541E0EA
S11312B060E080E894E00E94830762E671E080E8E1
S11312C094E00E94010441E06BE080E894E00E9415
S11312D083076091DC027091DD024AE050E080E80F
S11312E094E00E94890208958F929F92AF92BF92D8
S11312F0CF92DF92EF92FF920F931F93CF93DF93DE
S11313008090EC029090ED02A090EE02B090EF027B
S1131310C0EFD2E00CE714E0C990D990E990F990BD
S113132020E030E0A901C701B6010E94010F1816A0
S113133074F4282D392D4A2D5B2DC701B6010E9466
S1131340010F181624F48C2C9D2CAE2CBF2CC01726
S1131350D10711F7882D992DAA2DBB2D8093E40276
S11313609093E502A093E602B093E702DF91CF9158
S11313701F910F91FF90EF90DF90CF90BF90AF90AF
S11313809F908F9008958F929F92AF92BF92CF9229
S1131390DF92EF92FF920F931F93CF93DF9380908E
S11313A0EC029090ED02A090EE02B090EF02C0EF3C
S11313B0D2E00CE714E0C990D990E990F99020E0CC
S11313C030E0A901C701B6010E94010F181674F498
S11313D0282D392D4A2D5B2DC701B6010E94D80D49
S11313E0882324F48C2C9D2CAE2CBF2CC017D10741
S11313F011F7882D992DAA2DBB2D8093E802909387
S1131400E902A093EA02B093EB02DF91CF911F911E
S11314100F91FF90EF90DF90CF90BF90AF909F908F
S11314208F900895AF92BF92CF92DF92EF92FF9286
S11314300F931F93CF93DF938091DB02811109C037
S1131440A090DE02B090DF0282E0A816B10404F599
S113145039C0C0EFD2E00CE714E060E070E0CB01EB
S113146029913991499159910E946C0D0C171D07CE
S1131470B9F720E030E048EC52E40E94DD0D6093BF
S1131480E0027093E1028093E2029093E3023DC094
S1131490C0EFD2E08501000F111F000F111F04518E
S11314A01D4FC12CD12C7601299139914991599123
S11314B0C701B6010E946C0D6B017C01C017D107F6
S11314C099F703C0C12CD12C7601A114B10449F4BD
S11314D01092E0021092E1021092E2021092E302F2
S11314E014C0B501BB0C880B990B0E94510E9B01D3
S11314F0AC01C701B6010E94DD0D6093E002709358
S1131500E1028093E2029093E302DF91CF911F9175
S11315100F91FF90EF90DF90CF90BF90AF90089520
S11315202091DE023091DF02F901EE0FFF1FEE0F72
S1131530FF1FE451FD4F60837183828393832436BC
S11315403105A9F481E08093DB0281E090E090937F
S1131550DF028093DE028091DC029091DD0201962D
S11315609093DD028093DC0221E030E018C0C901D1
S1131570019664E670E00E94730F282F392F809340
S1131580DE029093DF028091DC029091DD020196ED
S11315909093DD028093DC02121613069CF4220F52
S11315A0331F220F331FF901E851FD4F80819181D0
S11315B0A281B38180937C0490937D04A0937E04E4
S11315C0B0937F040E9474090E94C3090E94120A06
S11315D06AE671E080EB91E00E9401044091E4022C
S11315E05091E5026091E6027091E70222E030E05A
S11315F080EB91E00E94EB0363E771E080EB91E004
S11316000E9401044091E8025091E9026091EA02CB
S11316107091EB0222E030E080EB91E00E94EB035A
S11316206CE771E080EB91E00E9401044091E002DC
S11316305091E1026091E2027091E30222E030E015
S113164080EB91E00E94EB0367E871E080EB91E0AE
S11316500E94010440917C0450917D0460917E04B9
S113166070917F0422E030E080EB91E00E94EB0374
S1131670089520E042E060E180E894E00E94A2073F
S113168026E040E855E260E070E080EB91E00E94E3
S11316905B04ECEEF2E02CE734E080E090E0A0E8BC
S11316A0BFEB81939193A193B193E217F307C9F729
S11316B040E060E080E894E00E94830760E971E024
S11316C080E894E00E94010441E060E080E894E056
S11316D00E9483076AE271E080E894E00E940104BA
S11316E00E94F3050E94C00680E99AE00E94FF0B65
S11316F061E070E084E898E00E94A60661E070E092
S113170085EC98E00E94B30662E070E081E998E01D
S11317100E94A60662E070E086EE98E00E94B3069E
S113172063E070E08BEA98E00E94A60663E070E054
S113173088E299E00E94B30660E070E08EE998E0E8
S11317400E94A60660E070E087E099E00E94B3067C
S113175064E070E088EB98E00E94A60664E070E024
S113176087E599E00E94B30608950E94FB05089559
S1131770CF92EF920F930F2EF7E0CF2EF02D0F2E76
S1131780F6E0EF2EF02D05E024E049E068E080E883
S113179094E00E945D080F91EF90CF9008952091FE
S11317A0A4043091A50484EF91E0289FB001299FFF
S11317B0700D389F700D112480E090E00E944F0E50
S11317C020E030E040E85AE30E94060FE091A204D2
S11317D0F091A3040995089581E08093A6040895E7
S11317E02091A604222351F01092A6049093A504FC
S11317F08093A4048FEC9BE00E94270608959093A5
S1131800A3048093A204E8E9F4E081E090E09183EA
S1131810808380EF9BE093838283158214821782F6
S1131820168211861086CF010E94DC048CEE9BE0A8
S11318300E94B40C6FE070E00E94EC0C81E090E038
S11318400895CF93DF93EC010E94B105A0EBB0E0C3
S11318501C92E1EBF0E010828C9182608C93A0E703
S1131860B0E08C9181608C931092B200808183608F
S113187080830E94D505D093A804C093A704DF9168
S1131880CF9108951F920F920FB60F9211242F93A8
S11318903F934F935F936F937F938F939F93AF93F4
S11318A0BF93EF93FF931092B2008091A90490919B
S11318B0AA0401969093AA048093A9048091A90490
S11318C09091AA040A9751F41092AA041092A904C0
S11318D08091A7049091A8040E942706FF91EF919C
S11318E0BF91AF919F918F917F916F915F914F9134
S11318F03F912F910F900FBE0F901F901895EF926C
S1131900FF920F931F93CF93DF9380911B059091C8
S11319101C05181619060CF5CBEAD4E000E010E01B
S11319208E81882381F08C819D8101969D838C8397
S11319302A813B818217930730F0888199810E9424
S113194027061D821C820F5F1F4F279680911B055F
S113195090911C05081719071CF3DF91CF911F9173
S11319600F91FF90EF90089520911B0530911C0575
S11319702031310574F5F901EE0FFF1FEE0FFF1F43
S1131980EE0FFF1FE21BF30BE555FB4F158214828C
S113199016821382128291838083232B21F48FE792
S11319A09CE00E94210C20911B0530911C05C9016B
S11319B0019690931C0580931B05C901880F991FFC
S11319C0880F991F880F991F821B930B85559B4F76
S11319D0089580E090E00895FC017383628315828A
S11319E0148281E086830895789484B5826084BDEE
S11319F084B5816084BD85B5826085BD85B581600F
S1131A0085BD80916E00816080936E00109281008C
S1131A108091810082608093810080918100816047
S1131A208093810080918000816080938000809108
S1131A30B10084608093B1008091B0008160809394
S1131A40B00080917A00846080937A0080917A005B
S1131A50826080937A0080917A00816080937A001A
S1131A6080917A00806880937A001092C1000E946D
S1131A70390B0E94B50B0E948A01FBCFE0EBF1E029
S1131A801382128288EE93E0A0E0B0E08483958311
S1131A90A683B78380E191E09183808385EC90E015
S1131AA09587848784EC90E09787868780EC90E024
S1131AB0918B808B81EC90E0938B828B82EC90E015
S1131AC0958B848B86EC90E0978B868B118E128E8F
S1131AD0138E148E08955058BB27AA270E94830D95
S1131AE00C94C70E0E94B90E38F00E94C00E20F06C
S1131AF039F49F3F19F426F40C94B60E0EF4E095D5
S1131B00E7FB0C94B00EE92F0E94D80E58F3BA17D5
S1131B10620773078407950720F079F4A6F50C94FF
S1131B20FA0E0EF4E0950B2EBA2FA02D0B01B9017D
S1131B3090010C01CA01A0011124FF27591B99F03F
S1131B40593F50F4503E68F11A16F040A22F232F4B
S1131B50342F4427585FF3CF469537952795A7959B
S1131B60F0405395C9F77EF41F16BA0B620B730B42
S1131B70840BBAF09150A1F0FF0FBB1F661F771FB3
S1131B80881FC2F70EC0BA0F621F731F841F48F468
S1131B90879577956795B795F7959E3F08F0B0CFF1
S1131BA09395880F08F09927EE0F979587950895D8
S1131BB00E948C0E08F481E008950E94F10D0C94AB
S1131BC0C70E0E94C00E58F00E94B90E40F029F4CE
S1131BD05F3F29F00C94B00E51110C94FB0E0C9441
S1131BE0B60E0E94D80E68F39923B1F3552391F3EE
S1131BF0951B550BBB27AA2762177307840738F078
S1131C009F5F5F4F220F331F441FAA1FA9F335D0D4
S1131C100E2E3AF0E0E832D091505040E695001C88
S1131C20CAF72BD0FE2F29D0660F771F881FBB1F42
S1131C30261737074807AB07B0E809F0BB0B802D20
S1131C40BF01FF2793585F4F3AF09E3F510578F04C
S1131C500C94B00E0C94FB0E5F3FE4F3983ED4F367
S1131C60869577956795B795F7959F5FC9F7880F20
S1131C70911D9695879597F90895E1E0660F771F72
S1131C80881FBB1F621773078407BA0720F0621B03
S1131C90730B840BBA0BEE1F88F7E0950895E89454
S1131CA009C097FB3EF490958095709561957F4FA0
S1131CB08F4F9F4F9923A9F0F92F96E9BB2793954E
S1131CC0F695879577956795B795F111F8CFFAF45E
S1131CD0BB0F11F460FF1BC06F5F7F4F8F4F9F4F8F
S1131CE016C0882311F096E911C0772321F09EE8ED
S1131CF0872F762F05C0662371F096E8862F70E053
S1131D0060E02AF09A95660F771F881FDAF7880F2C
S1131D109695879597F90895990F0008550FAA0B82
S1131D20E0E8FEEF16161706E807F907C0F01216EA
S1131D301306E407F50798F0621B730B840B950BED
S1131D4039F40A2661F0232B242B252B21F4089542
S1131D500A2609F4A140A6958FEF811D811D0895DF
S1131D6097F99F6780E870E060E008959FEF80EC4A
S1131D70089500240A9416161706180609060895ED
S1131D8000240A9412161306140605060895092E53
S1131D900394000C11F4882352F0BB0F40F4BF2BC2
S1131DA011F460FF04C06F5F7F4F8F4F9F4F089502
S1131DB057FD9058440F551F59F05F3F71F04795F8
S1131DC0880F97FB991F61F09F3F79F087950895DD
S1131DD0121613061406551FF2CF4695F1DF08C0FC
S1131DE0161617061806991FF1CF86957105610519
S1131DF008940895E894BB2766277727CB0197F9C1
S1131E0008950E948C0E08F48FEF08950E94190F14
S1131E100C94C70E0E94B90E38F00E94C00E20F038
S1131E20952311F00C94B00E0C94B60E11240C945E
S1131E30FB0E0E94D80E70F3959FC1F3950F50E0EE
S1131E40551F629FF001729FBB27F00DB11D639F68
S1131E50AA27F00DB11DAA1F649F6627B00DA11D0E
S1131E60661F829F2227B00DA11D621F739FB00DB4
S1131E70A11D621F839FA00D611D221F749F332724
S1131E80A00D611D231F849F600D211D822F762FBD
S1131E906A2F11249F5750409AF0F1F088234AF09A
S1131EA0EE0FFF1FBB1F661F771F881F9150504006
S1131EB0A9F79E3F510580F00C94B00E0C94FB0ED4
S1131EC05F3FE4F3983ED4F3869577956795B7958D
S1131ED0F795E7959F5FC1F7FE2B880F911D9695A7
S1131EE0879597F9089597FB072E16F4009407D069
S1131EF077FD09D00E94870F07FC05D03EF490952A
S1131F0081959F4F0895709561957F4F0895AA1B01
S1131F10BB1B51E107C0AA1FBB1FA617B70710F0D0
S1131F20A61BB70B881F991F5A95A9F78095909502
S1131F30BC01CD010895EE0FFF1F0590F491E02D33
S1131F4009940E94E00E88F09F5798F0B92F9927C2
S1131F50B751B0F0E1F0660F771F881F991F1AF090
S1131F60BA95C9F714C0B13091F00E94FA0EB1E0ED
S1131F7008950C94FA0E672F782F8827B85F39F0EC
S1131F80B93FCCF3869577956795B395D9F73EF429
S1131F9090958095709561957F4F8F4F9F4F0895D1
S1131FA00E948C0E880B990B0895A1E21A2EAA1B8D
S1131FB0BB1BFD010DC0AA1FBB1FEE1FFF1FA217F5
S1131FC0B307E407F50720F0A21BB30BE40BF50BF2
S1131FD0661F771F881F991F1A9469F7609570957B
S1131FE0809590959B01AC01BD01CF01089581E0DE
S10F1FF090E0F8940C94FC0FF894FFCFE0
S1131FFC3200E60068011702F802FFFF000000003F
S113200C1B018800B2006801E300C100D500000088
S113201C00007E088800D206D5062020202020202F
S113202C20202020202020202020004D41582E202C
S113203C43B020004D494E2E2043B0200050524F47
S113204C4D2E2043B0200041435455414C2043B005
S113205C200043414E54204D3A004D6178696D6126
S113206C3A20004D696E696D613A200050726F6DB3
S113207C6564696F3A200041637475616C3A2000A1
S113208C5345323031392053656E2E54656D702EA4
S113209C006E616E00696E66006F7666000D0A0054
S9030000FC
