S013000041637469766964616420312E7372656337
S11300000C945E000C9486000C9486000C9486007C
S11300100C9486000C9486000C9486000C94860044
S11300200C9486000C94130B0C9486000C9486009C
S11300300C9486000C9486000C9486000C94860024
S11300400C9488020C9486000C9415040C94EF0311
S11300500C9486000C941E050C9486000C94860067
S11300600C9486000C9486000000000024002700F5
S11300702A0000000000250028002B0004040404CA
S1130080040404040202020202020303030303033E
S1130090010204081020408001020408102001021B
S11300A004081020000000080002010000030407F7
S11300B000000000000000009C0A0F0C11241FBE69
S11300C0CFEFD8E0DEBFCDBF11E0A0E0B1E0ECE6B9
S11300D0FDE102C005900D92A43BB107D9F725E0DC
S11300E0A4EBB1E001C01D92A031B207E1F710E02A
S11300F0CEE5D0E004C02197FE010E94530ECC351A
S1130100D107C9F70E94C50B0C94B40E0C940000DF
S1130110CF92DF92EF92FF920F931F93CF93DF93CF
S11301206C017A018B01C0E0D0E0CE15DF0581F0CF
S1130130D8016D918D01D601ED91FC910190F08172
S1130140E02DC6010995892B11F02196EECF7E0191
S1130150C701DF91CF911F910F91FF90EF90DF9036
S1130160CF900895FC01538D448D252F30E0842FCA
S113017090E0821B930B541710F0CF9608950197CB
S11301800895FC01918D828D981761F0828DDF01B5
S1130190A80FB11D5D968C91928D9F5F9F73928F76
S11301A090E008958FEF9FEF0895FC01918D828D6B
S11301B0981731F0828DE80FF11D858D90E0089538
S11301C08FEF9FEF0895FC01918D228D892F90E090
S11301D0805C9F4F821B91098F739927089584EB4C
S11301E091E00E94E30021E0892B09F420E0822FB2
S11301F00895FC01848DDF01A80FB11DA35ABF4FE0
S11302002C91848D90E001968F739927848FA68911
S1130210B7892C93A089B1898C91837080648C9365
S1130220938D848D981306C00288F389E02D808114
S11302308F7D80830895EF92FF920F931F93CF9346
S1130240DF93EC0181E0888F9B8D8C8D981305C022
S1130250E889F989808185FD26C0F62E0B8D10E092
S11302600F5F1F4F0F731127E02E8C8DE8120CC007
S11302700FB607FCFACFE889F989808185FFF5CFAD
S1130280CE010E94F900F1CF8B8DFE01E80FF11D24
S1130290E35AFF4FF0829FB7F8940B8FEA89FB89EA
S11302A0808180620AC09FB7F894EE89FF896083D9
S11302B0E889F98980818370806480839FBF81E0AD
S11302C090E0DF91CF911F910F91FF90EF900895EF
S11302D0CF93DF93EC01888D8823C9F0EA89FB89E9
S11302E0808185FD05C0A889B9898C9186FD0FC0E0
S11302F00FB607FCF5CF808185FFF2CFA889B989B5
S11303008C9185FFEDCFCE010E94F900E7CFDF91FC
S1130310CF91089580E090E0892B29F00E94EF00AE
S113032081110C94000008956115710579F0FB01A9
S113033001900020E9F73197AF01461B570BDC0110
S1130340ED91FC910280F381E02D099480E090E02E
S113035008958F929F92AF92BF92EF92FF920F9364
S11303601F93CF93DF93CDB7DEB7A1970FB6F89461
S1130370DEBF0FBECDBF7C01FA01CB0119A2223032
S113038008F42AE08E010F5D1F4F822E912CA12CC0
S1130390B12CBF01A50194010E948D0EF901CA017F
S11303A0015011096A3014F4605D01C0695CD80120
S11303B06C93232B242B252B61F7B801C7010E94D2
S11303C09401A1960FB6F894DEBF0FBECDBFDF91A6
S11303D0CF911F910F91FF90EF90BF90AF909F909E
S11303E08F9008950E94AF0E90E0FC01EC55FF4FF2
S11303F02491FC01E057FF4F3491FC01E458FF4F76
S1130400E491EE2309F43CC0222339F1233091F026
S113041038F42130A9F0223001F584B58F7D12C063
S1130420273091F02830A1F02430B9F48091800075
S11304308F7D03C0809180008F77809380000DC0F2
S113044084B58F7784BD09C08091B0008F7703C0D5
S11304508091B0008F7D8093B000F0E0EE0FFF1F1D
S1130460EE58FF4FA591B4919FB7F894611104C061
S11304708C913095382302C0EC913E2B3C939FBF66
S11304800895CF93DF9390E0FC01E057FF4F249150
S1130490FC01E458FF4F8491882361F190E0880FB8
S11304A0991FFC01E859FF4FC591D491FC01EE5806
S11304B0FF4FA591B491611109C09FB7F894888149
S11304C0209582238883EC912E230BC0623061F443
S11304D09FB7F8948881322F309583238883EC91D9
S11304E02E2B2C939FBF06C08FB7F894E8812E2B38
S11304F028838FBFDF91CF9108958230910538F022
S1130500880F991F880F991F05970197F1F7089590
S11305101F920F920FB60F9211242F933F938F9334
S11305209F93AF93BF938091560290915702A091ED
S11305305802B09159023091550223E0230F2D3710
S113054020F40196A11DB11D05C026E8230F0296D3
S1130550A11DB11D2093550280935602909357021A
S1130560A0935802B0935902809151029091520283
S1130570A0915302B09154020196A11DB11D809324
S1130580510290935202A0935302B0935402BF912C
S1130590AF919F918F913F912F910F900FBE0F902C
S11305A01F9018950F931F93CF93DF93EC019A013B
S11305B0452B39F4E881F9810190F081E02D09950A
S11305C005C0AB0160E070E00E94A9018C0165EAFE
S11305D071E0CE010E949401800F911FDF91CF91B1
S11305E01F910F9108950F931F93CF93DF93EC0105
S11305F00E9494018C0165EA71E0CE010E9494018D
S1130600800F911FDF91CF911F910F9108957F92D9
S11306108F929F92AF92BF92CF92DF92EF92FF920E
S11306200F931F93CF93DF938C016A017B01722E8A
S11306309A01AB01C701B6010E94880E882319F004
S113064068EA71E027C046015701E894B7F82FEF34
S11306503FEF4FE75FE7C501B4010E94880E8111A7
S11306600DC02FEF3FEF4FE75FE7C501B4010E94D4
S1130670A90C18161CF46CEA71E00CC02FEF3FEFC4
S11306804FE75FE4C701B6010E94D20D181694F437
S113069060EB71E0C801DF91CF911F910F91FF9042
S11306A0EF90DF90CF90BF90AF909F908F907F900E
S11306B00C9494012FEF3FEF4FE75FECC701B601B5
S11306C00E94A90C87FDE4CF20E030E0A901C70116
S11306D0B6010E94A90C87FF0FC0D801ED91FC91CF
S11306E00190F081E02D6DE2C8010995EC01F7FA63
S11306F0F094F7F8F09402C0C0E0D0E0B12C60E0D0
S113070070E080E09FE3B71440F420E030E040E282
S113071051E40E94AE0CB394F6CFA70196010E9457
S11307203D0C6B017C010E94590E4B015C012AE0D7
S1130730AB01BC01C8010E94A901C80FD91F7720D1
S1130740E9F1C501B4010E94200D9B01AC01C70170
S1130750B6010E943C0C6B017C01D801ED91FC9127
S11307600190F081E02D6EE2C8010995C80FD91FF0
S113077020E030E040E251E4C701B6010E94D70D09
S11307804B015C010E94590E6B01E12CF12C2AE013
S1130790B701A601C8010E94A901C80FD91FC7014A
S11307A0B6010E94200D9B01AC01C501B4010E9459
S11307B03C0C6B017C017A947110DACFCE01DF918D
S11307C0CF911F910F91FF90EF90DF90CF90BF904A
S11307D0AF909F908F907F9008950C9494011F92F6
S11307E00F920FB60F9211242F933F934F935F9361
S11307F06F937F938F939F93AF93BF93EF93FF93E5
S113080084EB91E00E94F900FF91EF91BF91AF91C9
S11308109F918F917F916F915F914F913F912F9114
S11308200F900FBE0F901F9018951F920F920FB646
S11308300F9211242F938F939F93EF93FF93E09143
S1130840C401F091C5018081E091CA01F091CB010E
S113085082FD12C090818091CD018F5F8F732091B2
S1130860CE01821751F0E091CD01F0E0EC54FE4F3F
S1130870958F8093CD0101C08081FF91EF919F916D
S11308808F912F910F900FBE0F901F901895CF92BC
S1130890DF92EF92FF921F93CF93DF93EC016A01F3
S11308A07B01122FE889F98982E080834115514E3A
S11308B061057105B1F060E079E08DE390E0A70196
S11308C096010E948D0EDA01C9010197A109B109AF
S11308D0B695A795979587959C01211580E13807D2
S11308E0A8F0E889F989108260E874E88EE190E064
S11308F0A70196010E948D0EDA01C9010197A10991
S1130900B109B695A795979587959C01EC85FD85CA
S11309103083EE85FF852083188EEC89FD89108352
S1130920EA89FB89808180618083EA89FB898081EF
S113093088608083EA89FB89808180688083EA8972
S1130940FB8980818F7D8083DF91CF911F91FF9000
S1130950EF90DF90CF9008950F931F93CF93DF9381
S1130960CAE5D2E006E912E088859985892B39F039
S1130970EA81FB818C819D810995198618862A96C6
S1130980C017D10789F7DF91CF911F910F91089577
S1130990FC0120813181D901AA0FBB1F220F331F13
S11309A0220F331F220F331FA20FB31FA65ABD4FAE
S11309B02AE001900D922A95E1F7FC018081918152
S11309C0FC01EE0FFF1F880F991F880F991F880FD6
S11309D0991FE80FF91FE65AFD4F81E090E09783D5
S11309E086838091960290919702892B21F5F89441
S11309F0EAE7F0E0808187608083ACE7B0E08C9127
S1130A0080648C938C918F7D8C9380818F7D808387
S1130A108081806880838081886080838C91807FDE
S1130A208C93808180648083789481E090E09093BB
S1130A3097028093960281E090E008951F920F92AE
S1130A400FB60F9211242F933F934F935F936F939D
S1130A507F938F939F93AF93BF93EF93FF932091D3
S1130A607800309179008091980290919902FC016C
S1130A70EE0FFF1F880F991F880F991F880F991F6A
S1130A80E80FF91FE65AFD4F822F90E0932B9583D0
S1130A9084838091980290919902FC01EE0FFF1FCC
S1130AA0880F991F880F991F880F991FE80FF91F46
S1130AB0E65AFD4F81E090E091878087809198020B
S1130AC090919902892B79F481E090E090939902B6
S1130AD080939802ECE7F0E08081807F80838081BE
S1130AE08160808309C01092990210929802ECE709
S1130AF0F0E08081807F80838CEA94E00E940C0681
S1130B00EAE7F0E0808180648083FF91EF91BF91F8
S1130B10AF919F918F917F916F915F914F913F9191
S1130B202F910F900FBE0F901F9018952FB7F89428
S1130B3080919A0290919B02892B19F422239CF4B0
S1130B4008C080919A0290919B02892B91F02223F4
S1130B5084F080919A0290919B02019690939B025B
S1130B6080939A02089580919A0290919B02892B16
S1130B7081F708952FB7F89480919A0290919B027F
S1130B80181619068CF480919A0290919B02019791
S1130B9090939B0280939A0280919A0290919B0277
S1130BA0892B29F47894089522230CF478940895D9
S1130BB010929E0210929D0210929C0281E0089570
S1130BC00E94960580919C02882311F10E94BA0527
S1130BD0E0919E02F0E0EE0FFF1FE156FD4F019001
S1130BE0F081E02D09950E94960580919E0290E087
S1130BF001968F709078992324F40197806F9F6FEA
S1130C00019680939E0280919C02815080939C0265
S1130C100E94BA0581E00895CF93DF93EC010E940E
S1130C20960520919C022031D0F480919D0290E0A1
S1130C30FC01EE0FFF1FE156FD4FD183C0830196E7
S1130C408F709078992324F40197806F9F6F019699
S1130C5080939D022F5F20939C02C1E001C0C0E0FD
S1130C600E94BA058C2FDF91CF9108950F931F93A3
S1130C70CF93DF938C016EE171E084EB91E00E94ED
S1130C80ED034AE050E0B80184EB91E00E94D20207
S1130C9080910001909101010817190750F0E2E0DA
S1130CA0F1E0C1E0D0E08191919108171907D8F4DF
S1130CB038C080910A0190910B01892BC9F1C0E0E1
S1130CC0D0E0D0930B01C0930A01FE01EE0FFF1F89
S1130CD0EE0FFF1FE753FD4F0280F381E02D0995CE
S1130CE0259734F104C02196C530D105E1F68091F1
S1130CF00A0190910B018F3F2FEF9207C9F0880FE3
S1130D00991F880F991FFC01E753FD4F0190F08153
S1130D10E02D09958FEF9FEF90930B0180930A01CB
S1130D2007C080910A0190910B018C179D0749F629
S1130D30DF91CF911F910F9108956530710548F4AB
S1130D40660F771F660F771FFB01E753FD4F9183F3
S1130D50808308956530710548F4660F771F660F28
S1130D60771FFB01E753FD4F938382830895EFEBD5
S1130D70F2E01182108286E396E0938382831582E7
S1130D8014821782168211861086CF010E94C8042D
S1130D90089580E090E008950895CF93DF93EC01E7
S1130DA060E08E810E94F40181E090E00E947D0267
S1130DB061E08E810E94F40181E090E00E947D0256
S1130DC060E08E810E94F40184E690E00E947D023E
S1130DD0DF91CF910895CF92DF92EF92FF920F931C
S1130DE01F93CF93DF936C018C01095F1F4FC0E009
S1130DF0D0E0E62EF12CB7010C2E02C07595679554
S1130E000A94E2F76170F80181918F010E94F40164
S1130E102196C430D10579F7C6010E94CD06DF9131
S1130E20CF911F910F91FF90EF90DF90CF90089595
S1130E30CF92DF92EF92FF920F931F93CF93DF93A2
S1130E406C018C01095F1F4FC0E0D0E0E62EF12C4D
S1130E50B7010C2E02C0759567950A94E2F761708C
S1130E60F80181918F010E94F4012196C830D105C7
S1130E7079F7C6010E94CD06DF91CF911F910F91A2
S1130E80FF90EF90DF90CF9008951F93CF93DF935F
S1130E90EC01162F642F8C810E94F4018D818F3F09
S1130EA019F060E00E94F4018F8584FF05C0612F72
S1130EB0CE010E94180711C0612F70E075956795E7
S1130EC0759567957595679575956795CE010E949B
S1130ED0EB06612FCE010E94EB06DF91CF911F91AB
S1130EE0089540E061E00E94450780ED97E00E948C
S1130EF07D020895FC01443008F043E083894817DB
S1130F0010F04FEF480FDF01A40FB11D54969C91D0
S1130F10690F606840E0CF010E9445070895FC0115
S1130F206089262F2460208B6C6040E00E94450776
S1130F300895AF92BF92CF92DF92EF92FF920F93F8
S1130F401F93CF93DF93EC01423018F08F858860B4
S1130F508F874B8B1C8A80E48D8B6E8B70E0605C7A
S1130F607F4F6F8B222329F0413019F48F858460E1
S1130F708F8761E08C810E9441028D818F3F19F03F
S1130F8061E00E94410261E08E810E9441027E0183
S1130F9087E0E80EF11C00E010E06894AA24A3F8AE
S1130FA0B12C6894CC24C2F8D12C8F8584FD03C065
S1130FB08C2D9D2D02C08A2D9B2D081719074CF4EA
S1130FC061E0F70181917F010E9441020F5F1F4F91
S1130FD0ECCF80E593EC0E947D0260E08C810E945E
S1130FE0F40160E08E810E94F4018D818F3F19F03D
S1130FF060E00E94F4016F8564FD1DC063E0CE01D2
S11310000E94EB0684E991E10E947D0263E0CE0137
S11310100E94EB0684E991E10E947D0263E0CE0127
S11310200E94EB0686E990E00E947D0262E0CE0118
S11310300E94EB0619C0606240E0CE010E944507A1
S113104084E991E10E947D026F85606240E0CE01F7
S11310500E94450786E990E00E947D026F856062E8
S113106040E0CE010E9445076F85606240E0CE01FA
S11310700E94450784E0888BCE010E948F07CE0131
S11310800E94710782E0898B40E066E0CE010E94F5
S11310904507DF91CF911F910F91FF90EF90DF9063
S11310A0CF90BF90AF900895CF92EF920F93FC0131
S11310B0138212828CE391E09183808364838FEFA7
S11310C08583468327830087E186C2861386148638
S11310D015861686178620E041E060E1CF010E9464
S11310E099070F91EF90CF90089541E00E94450732
S11310F081E090E00895BC01990F880B990B0E9440
S1131100220D2DEC3CEC4CE85FE30E94D70D20E06F
S113111030E048EC52E40E94D70D20E030E040E893
S11311205AE30E94D70D60936F0470937004809308
S11311307104909372044091DD025091DE02FA0131
S1131140EE0FFF1FEE0FFF1FE152FD4F608371830F
S1131150828393834F5F5F4F9A0136952795369527
S11311602795ABE7B4E10E94440E9695879564E613
S1131170689F9001699F300D1124421B530B5093BB
S1131180DE024093DD02089541E060E083E794E0ED
S11311900E947A0764E471E083E794E00E94ED031F
S11311A0089541E060E083E794E00E947A0764E4F4
S11311B071E083E794E00E94ED03089541E060E06C
S11311C083E794E00E947A0764E471E083E794E0A3
S11311D00E94ED03089541E060E083E794E00E94FB
S11311E07A0764E471E083E794E00E94ED030895D4
S11311F041E060E083E794E00E947A0764E471E0F0
S113120083E794E00E94ED03089541E060E083E702
S113121094E00E947A0764E471E083E794E00E941A
S1131220ED0308958F929F92AF92BF92CF92DF9277
S1131230EF92FF920F931F93CF93DF9341E060E00F
S113124083E794E00E947A0765E571E083E794E020
S11312500E94ED038090DF029090E002A090E102F2
S1131260B090E202C3EED2E00FE614E0C990D99048
S1131270E990F990282D392D4A2D5B2DC701B6012F
S11312800E94D20D181624F48C2C9D2CAE2CBF2C4D
S1131290C017D10759F741E06BE083E794E00E945F
S11312A07A0722E030E0482D592D6A2D7B2D83E703
S11312B094E00E940703DF91CF911F910F91FF905B
S11312C0EF90DF90CF90BF90AF909F908F90089554
S11312D08F929F92AF92BF92CF92DF92EF92FF9242
S11312E00F931F93CF93DF9341E060E083E794E093
S11312F00E947A076EE571E083E794E00E94ED03B3
S11313008090DF029090E002A090E102B090E202AF
S1131310C3EED2E00FE614E0C990D990E990F990B9
S1131320282D392D4A2D5B2DC701B6010E94A90C29
S1131330882324F48C2C9D2CAE2CBF2CC017D107F1
S113134059F741E06BE083E794E00E947A0722E0DA
S113135030E0482D592D6A2D7B2D83E794E00E94BF
S11313600703DF91CF911F910F91FF90EF90DF90D2
S1131370CF90BF90AF909F908F90089541E060E030
S113138083E794E00E947A0767E671E083E794E0DC
S11313900E94ED0341E06BE083E794E00E947A074A
S11313A040916F04509170046091710470917204C3
S11313B022E030E083E794E00E9407030895CF928F
S11313C0DF92EF92FF920F931F93CF93DF9341E04D
S11313D060E083E794E00E947A0762E771E083E7C4
S11313E094E00E94ED036CE771E084EB91E00E94CD
S11313F0F302C3EED2E00FE614E0C12CD12C760147
S11314002991399149915991C701B6010E943D0C26
S11314106B017C01C017D10799F741E06BE083E7CA
S113142094E00E947A0720E030E048EC52E4C701DF
S1131430B6010E94AE0CAB01BC0122E030E083E7B0
S113144094E00E940703DF91CF911F910F91FF90C9
S1131450EF90DF90CF90089526E040E855E260E0F9
S113146070E084EB91E00E94470420E042E060E1F8
S113147083E794E00E94990740E060E083E794E00A
S11314800E947A0764E971E083E794E00E94ED0327
S113149041E060E083E794E00E947A0764E471E04D
S11314A083E794E00E94ED030E94D8050E94B706EA
S11314B08BE798E00E94D00A61E070E084EC98E049
S11314C00E949D0661E070E082E199E00E94AA0614
S11314D062E070E081ED98E00E949D0662E070E0B9
S11314E088E699E00E94AA0663E070E08BEE98E03B
S11314F00E949D0663E070E08EEB99E00E94AA06CC
S113150060E070E08EED98E00E949D0660E070E07F
S11315108FED99E00E94AA0664E070E088EF98E0FD
S11315200E949D0664E070E085E099E00E94AA06AE
S113153008950E94E0050895CF92EF920F930F2E25
S1131540F7E0CF2EF02D0F2EF6E0EF2EF02D05E074
S113155024E049E068E083E794E00E9454080F9196
S1131560EF90CF900895E0919504F09196048091C6
S11315709704909198040995089581E080939904C3
S1131580089520919904222351F010929904909384
S113159098048093970483EB9AE00E940C060895C4
S11315A09093960480939504EBE8F4E081E090E056
S11315B09183808381EC9AE09383828315821482E1
S11315C01782168211861086CF010E94C8048DEB03
S11315D09AE00E94850B6FE070E00E94BD0B81E0F1
S11315E090E00895CF93DF93EC010E949605A0EB61
S11315F0B0E01C92E1EBF0E010828C9182608C935D
S1131600A0E7B0E08C9181608C931092B20080814D
S1131610836080830E94BA05D0939B04C0939A048C
S1131620DF91CF9108951F920F920FB60F9211245C
S11316302F933F934F935F936F937F938F939F93D6
S1131640AF93BF93EF93FF931092B20080919C04E9
S113165090919D04019690939D0480939C048091A5
S11316609C0490919D040A9750F010929D0410924E
S11316709C0480919A0490919B040E940C06FF9113
S1131680EF91BF91AF919F918F917F916F915F91F6
S11316904F913F912F910F900FBE0F901F9018956F
S11316A0EF92FF920F931F93CF93DF9380910E05D8
S11316B090910F05181619060CF5CEE9D4E000E058
S11316C010E08E81882381F08C819D8101969D8319
S11316D08C832A813B818217930730F0888199811A
S11316E00E940C061D821C820F5F1F4F279680915B
S11316F00E0590910F05081719071CF3DF91CF9180
S11317001F910F91FF90EF90089520910E05309155
S11317100F052031310574F5F901EE0FFF1FEE0FAF
S1131720FF1FEE0FFF1FE21BF30BE256FB4F158268
S1131730148216821382128291838083232B21F4D4
S113174080E59BE00E94F20A20910E0530910F057E
S1131750C901019690930F0580930E05C901880F66
S1131760991F880F991F880F991F821B930B82560C
S11317709B4F089580E090E00895FC017383628399
S11317801582148281E086830895789484B58260FA
S113179084BD84B5816084BD85B5826085BD85B511
S11317A0816085BD80916E00816080936E0010928F
S11317B0810080918100826080938100809181000A
S11317C0816080938100809180008160809380009B
S11317D08091B10084608093B1008091B0008160F9
S11317E08093B00080917A00846080937A00809125
S11317F07A00826080937A0080917A00816080937D
S11318007A0080917A00806880937A001092C100F7
S11318100E942C0A0E94990A0E948A01FBCFE4EBE1
S1131820F1E01382128288EE93E0A0E0B0E08483BA
S11318309583A683B78380E191E09183808385ECCF
S113184090E09587848784EC90E09787868780EC86
S113185090E0918B808B81EC90E0938B828B82EC77
S113186090E0958B848B86EC90E0978B868B118E21
S1131870128E138E148E08955058BB27AA270E94E7
S1131880540C0C94980D0E948A0D38F00E94910D0E
S113189020F039F49F3F19F426F40C94870D0EF4CC
S11318A0E095E7FB0C94810DE92F0E94A90D58F3F4
S11318B0BA17620773078407950720F079F4A6F531
S11318C00C94CB0D0EF4E0950B2EBA2FA02D0B012A
S11318D0B90190010C01CA01A0011124FF27591B71
S11318E099F0593F50F4503E68F11A16F040A22F77
S11318F0232F342F4427585FF3CF469537952795E8
S1131900A795F0405395C9F77EF41F16BA0B620BE6
S1131910730B840BBAF09150A1F0FF0FBB1F661F2D
S1131920771F881FC2F70EC0BA0F621F731F841F70
S113193048F4879577956795B795F7959E3F08F096
S1131940B0CF9395880F08F09927EE0F9795879558
S113195008950E945D0D08F481E008950E94C20C70
S11319600C94980D0E94910D58F00E948A0D40F03D
S113197029F45F3F29F00C94810D51110C94CC0D86
S11319800C94870D0E94A90D68F39923B1F3552394
S113199091F3951B550BBB27AA276217730784077E
S11319A038F09F5F5F4F220F331F441FAA1FA9F314
S11319B035D00E2E3AF0E0E832D091505040E69502
S11319C0001CCAF72BD0FE2F29D0660F771F881F63
S11319D0BB1F261737074807AB07B0E809F0BB0B56
S11319E0802DBF01FF2793585F4F3AF09E3F51056A
S11319F078F00C94810D0C94CC0D5F3FE4F3983E89
S1131A00D4F3869577956795B795F7959F5FC9F752
S1131A10880F911D9695879597F90895E1E0660FD3
S1131A20771F881FBB1F621773078407BA0720F04C
S1131A30621B730B840BBA0BEE1F88F7E0950895B5
S1131A40E89409C097FB3EF4909580957095619554
S1131A507F4F8F4F9F4F9923A9F0F92F96E9BB270A
S1131A609395F695879577956795B795F111F8CF86
S1131A70FAF4BB0F11F460FF1BC06F5F7F4F8F4FF1
S1131A809F4F16C0882311F096E911C0772321F0E7
S1131A909EE8872F762F05C0662371F096E8862F7F
S1131AA070E060E02AF09A95660F771F881FDAF7D6
S1131AB0880F9695879597F90895990F0008550F03
S1131AC0AA0BE0E8FEEF16161706E807F907C0F0C0
S1131AD012161306E407F50798F0621B730B840BC8
S1131AE0950B39F40A2661F0232B242B252B21F4A2
S1131AF008950A2609F4A140A6958FEF811D811D42
S1131B00089597F99F6780E870E060E008959FEF7B
S1131B1080EC089500240A94161617061806090680
S1131B20089500240A94121613061406050608954F
S1131B30092E0394000C11F4882352F0BB0F40F4D7
S1131B40BF2B11F460FF04C06F5F7F4F8F4F9F4F17
S1131B50089557FD9058440F551F59F05F3F71F099
S1131B604795880F97FB991F61F09F3F79F0879500
S1131B700895121613061406551FF2CF4695F1DF89
S1131B8008C0161617061806991FF1CF8695710519
S1131B90610508940895E894BB2766277727CB014D
S1131BA097F908950E945D0D08F48FEF08950E943F
S1131BB0EA0D0C94980D0E948A0D38F00E94910D44
S1131BC020F0952311F00C94810D0C94870D1124B1
S1131BD00C94CC0D0E94A90D70F3959FC1F3950F41
S1131BE050E0551F629FF001729FBB27F00DB11D9D
S1131BF0639FAA27F00DB11DAA1F649F6627B00D2D
S1131C00A11D661F829F2227B00DA11D621F739F15
S1131C10B00DA11D621F839FA00D611D221F749F23
S1131C203327A00D611D231F849F600D211D822F6A
S1131C30762F6A2F11249F5750409AF0F1F0882391
S1131C404AF0EE0FFF1FBB1F661F771F881F9150BE
S1131C505040A9F79E3F510580F00C94810D0C94DF
S1131C60CC0D5F3FE4F3983ED4F386957795679562
S1131C70B795F795E7959F5FC1F7FE2B880F911DE8
S1131C809695879597F90895A29FB001B39FC001D7
S1131C90A39F700D811D1124911DB29F700D811D94
S1131CA01124911D0895EE0FFF1F0590F491E02D6E
S1131CB009940E94B10D88F09F5798F0B92F992785
S1131CC0B751B0F0E1F0660F771F881F991F1AF023
S1131CD0BA95C9F714C0B13091F00E94CB0DB1E0B0
S1131CE008950C94CB0D672F782F8827B85F39F0AF
S1131CF0B93FCCF3869577956795B395D9F73EF4BC
S1131D0090958095709561957F4F8F4F9F4F089563
S1131D100E945D0D880B990B0895A1E21A2EAA1B4F
S1131D20BB1BFD010DC0AA1FBB1FEE1FFF1FA21787
S1131D30B307E407F50720F0A21BB30BE40BF50B84
S1131D40661F771F881F991F1A9469F7609570950D
S1131D50809590959B01AC01BD01CF01089581E070
S10F1D6090E0F8940C94B40EF894FFCFBB
S1131D6C3200E60068011702F802FFFF00000000D1
S1131D7C1B018800B2006801E300C100D5002020DB
S1131D8C202020202020202020206B6579626F6188
S1131D9C72642061646320000000000075088800F0
S1131DACC906CC0620202020202020202020202002
S1131DBC20202020004D41582E2043B020004D49B6
S1131DCC4E2E2043B0200041435455414C2043B087
S1131DDC200050524F4D2E2043B020006C6C656790
S1131DEC756520616C20646F776E5F6B65795269E1
S1131DFC676874005345323031392053656E2E5464
S1131E0C656D702E000D0A006E616E00696E6600C1
S1071E1C6F76660073
S9030000FC
