:100000000C945E000C9486000C9486000C94860080
:100010000C9486000C9486000C9486000C94860048
:100020000C9486000C9486000C9486000C94860038
:100030000C9486000C9486000C9486000C94860028
:100040000C9488020C9486000C9443030C941D03BA
:100050000C9486000C9475030C9486000C94860016
:100060000C9486000C9486000000000024002700F9
:100070002A0000000000250028002B0004040404CE
:100080000404040402020202020203030303030342
:10009000010204081020408001020408102001021F
:1000A00004081020000000080002010000030407FB
:1000B0000000000000000000EB054C0611241FBEEC
:1000C000CFEFD8E0DEBFCDBF11E0A0E0B1E0E0E5CA
:1000D000FDE002C005900D92A232B107D9F722E0EF
:1000E000A2E2B1E001C01D92A334B207E1F710E033
:1000F000CEE5D0E004C02197FE010E947906CC3500
:10010000D107C9F70E9402060C94A6060C940000C1
:10011000FC01538D448D252F30E0842F90E0821B0D
:10012000930B541710F0CF96089501970895FC0192
:10013000918D828D981761F0828DDF01A80FB11D1E
:100140005D968C91928D9F5F9F73928F90E0089542
:100150008FEF9FEF0895FC01918D828D981731F0FC
:10016000828DE80FF11D858D90E008958FEF9FEF50
:100170000895FC01918D228D892F90E0805C9F4F26
:10018000821B91098F7399270895FC01848DDF01EB
:10019000A80FB11DA35ABF4F2C91848D90E00196FA
:1001A0008F739927848FA689B7892C93A089B189E9
:1001B0008C91837080648C93938D848D981306C08A
:1001C0000288F389E02D80818F7D80830895EF92EE
:1001D000FF920F931F93CF93DF93EC0181E0888F01
:1001E0009B8D8C8D981305C0E889F989808185FDE8
:1001F00026C0F62E0B8D10E00F5F1F4F0F731127D7
:10020000E02E8C8DE8120CC00FB607FCFACFE889FF
:10021000F989808185FFF5CFCE010E94C500F1CF1D
:100220008B8DFE01E80FF11DE35AFF4FF0829FB75F
:10023000F8940B8FEA89FB89808180620AC09FB79E
:10024000F894EE89FF896083E889F9898081837059
:10025000806480839FBF81E090E0DF91CF911F9108
:100260000F91FF90EF900895CF93DF93EC01888D6D
:100270008823C9F0EA89FB89808185FD05C0A889AA
:10028000B9898C9186FD0FC00FB607FCF5CF808130
:1002900085FFF2CFA889B9898C9185FFEDCFCE017A
:1002A0000E94C500E7CFDF91CF91089582E291E0EF
:1002B0000E94B90021E0892B09F420E0822F0895E3
:1002C00080E090E0892B29F00E94560181110C9466
:1002D00000000895CF92DF92EF92FF920F931F9349
:1002E000CF93DF936C017A018B01C0E0D0E0CE1593
:1002F000DF0581F0D8016D918D01D601ED91FC9162
:100300000190F081E02DC6010995892B11F021960D
:10031000EECF7E01C701DF91CF911F910F91FF902A
:10032000EF90DF90CF9008956115710579F0FB0192
:1003300001900020E9F73197AF01461B570BDC0114
:10034000ED91FC910280F381E02D099480E090E032
:1003500008958F929F92AF92BF92EF92FF920F9368
:100360001F93CF93DF93CDB7DEB7A1970FB6F89465
:10037000DEBF0FBECDBF7C01FA01CB0119A2223036
:1003800008F42AE08E010F5D1F4F822E912CA12CC4
:10039000B12CBF01A50194010E947F06F901CA0199
:1003A000015011096A3014F4605D01C0695CD80124
:1003B0006C93232B242B252B61F7B801C7010E94D6
:1003C0009401A1960FB6F894DEBF0FBECDBFDF91AA
:1003D000CF911F910F91FF90EF90BF90AF909F90A2
:1003E0008F9008950E94A10690E0FC01EC55FF4F0C
:1003F0002491FC01E057FF4F3491FC01E458FF4F7A
:10040000E491EE2309F43CC0222339F1233091F02A
:1004100038F42130A9F0223001F584B58F7D12C067
:10042000273091F02830A1F02430B9F48091800079
:100430008F7D03C0809180008F77809380000DC0F6
:1004400084B58F7784BD09C08091B0008F7703C0D9
:100450008091B0008F7D8093B000F0E0EE0FFF1F21
:10046000EE58FF4FA591B4919FB7F894611104C065
:100470008C913095382302C0EC913E2B3C939FBF6A
:100480000895CF93DF9390E0FC01E057FF4F249154
:10049000FC01E458FF4F8491882361F190E0880FBC
:1004A000991FFC01E859FF4FC591D491FC01EE580A
:1004B000FF4FA591B491611109C09FB7F89488814D
:1004C000209582238883EC912E230BC0623061F447
:1004D0009FB7F8948881322F309583238883EC91DD
:1004E0002E2B2C939FBF06C08FB7F894E8812E2B3C
:1004F00028838FBFDF91CF9108958230910538F026
:10050000880F991F880F991F05970197F1F7089594
:100510001F920F920FB60F9211242F933F938F9338
:100520009F93AF93BF938091C4019091C501A09117
:10053000C601B091C7013091C30123E0230F2D37CD
:1005400020F40196A11DB11D05C026E8230F0296D7
:10055000A11DB11D2093C3018093C4019093C501D7
:10056000A093C601B093C7018091BF019091C001D3
:10057000A091C101B091C2010196A11DB11D80934E
:10058000BF019093C001A093C101B093C201BF917C
:10059000AF919F918F913F912F910F900FBE0F9030
:1005A0001F901895CF92DF92EF92FF920F931F93B7
:1005B000CF93DF93EC014115510539F4E881F981BE
:1005C0000190F081E02D099527C06B01770FEE08AF
:1005D000FF084A305105D1F4F7FE16C0E881F981D1
:1005E0000190F081E02D6DE209958C01442755279B
:1005F000BA014C195D096E097F092AE0CE010E94FB
:10060000A901080F191F09C02AE001C0242FB70152
:10061000A601CE010E94A9018C016EE171E0CE011C
:100620000E949401800F911FDF91CF911F910F9134
:10063000FF90EF90DF90CF9008951F920F920FB62A
:100640000F9211242F933F934F935F936F937F9358
:100650008F939F93AF93BF93EF93FF9382E291E0C9
:100660000E94C500FF91EF91BF91AF919F918F9133
:100670007F916F915F914F913F912F910F900FBE9E
:100680000F901F9018951F920F920FB60F92112482
:100690002F938F939F93EF93FF93E0913201F0910B
:1006A00033018081E0913801F091390182FD12C05F
:1006B000908180913B018F5F8F7320913C01821765
:1006C00051F0E0913B01F0E0EE5DFE4F958F80939D
:1006D0003B0101C08081FF91EF919F918F912F91FC
:1006E0000F900FBE0F901F9018951F920F920FB68C
:1006F0000F9211242F933F938F939F93EF93FF9328
:100700008091040290910502209178003091790047
:10071000FC01EE0FFF1F880F991F880F991F880F8C
:10072000991FE80FF91FE853FE4F3583248381E0BA
:1007300090E091878087FF91EF919F918F913F91FA
:100740002F910F900FBE0F901F9018952FB7F89410
:100750008091060290910702892B19F422239CF4C0
:1007600008C08091060290910702892B91F0222304
:1007700084F08091060290910702019690930702FF
:100780008093060208958091060290910702892BBA
:1007900081F708952FB7F89480910602909107028F
:1007A000181619068CF480910602909107020197A1
:1007B00090930702809306028091060290910702AF
:1007C000892B29F47894089522230CF478940895C1
:1007D00010920A02109209021092080281E0089514
:1007E0000E94A60380910802882311F10E94CA0387
:1007F000E0910A02F0E0EE0FFF1FE55FFD4F019070
:10080000F081E02D09950E94A60380910A0290E0F4
:1008100001968F709078992324F40197806F9F6FD1
:10082000019680930A028091080281508093080209
:100830000E94CA0381E00895ECE7F0E080818F7D9B
:1008400080838081806480838081807F8083EAE7E9
:10085000F0E0808180688083808180628083ABE764
:10086000B0E08C91887F8C938081866080838081CA
:10087000886080837894808180648083089580E09C
:1008800090E008950895CF93DF93EC0160E08E81AE
:100890000E94F40181E090E00E947D0261E08E817F
:1008A0000E94F40181E090E00E947D0260E08E8170
:1008B0000E94F40184E690E00E947D02DF91CF91D6
:1008C0000895CF92DF92EF92FF920F931F93CF93F1
:1008D000DF936C018C01095F1F4FC0E0D0E0E62E72
:1008E000F12CB7010C2E02C0759567950A94E2F7BA
:1008F0006170F80181918F010E94F4012196C4304A
:10090000D10579F7C6010E944304DF91CF911F9171
:100910000F91FF90EF90DF90CF900895CF92DF92EC
:10092000EF92FF920F931F93CF93DF936C018C0193
:10093000095F1F4FC0E0D0E0E62EF12CB7010C2E6E
:1009400002C0759567950A94E2F76170F80181918C
:100950008F010E94F4012196C830D10579F7C601B4
:100960000E944304DF91CF911F910F91FF90EF9070
:10097000DF90CF9008951F93CF93DF93EC01162F54
:10098000642F8C810E94F4018D818F3F19F060E00B
:100990000E94F4018F8584FF05C0612FCE010E9463
:1009A0008E0411C0612F70E07595679575956795F8
:1009B0007595679575956795CE010E946104612FC5
:1009C000CE010E946104DF91CF911F91089540E014
:1009D00061E00E94BB0480ED97E00E947D020895D3
:1009E000FC016089262F2460208B6C6040E00E940F
:1009F000BB040895AF92BF92CF92DF92EF92FF9225
:100A00000F931F93CF93DF93EC01423018F08F8543
:100A100088608F874B8B1C8A80E48D8B6E8B70E097
:100A2000605C7F4F6F8B222329F0413019F48F8552
:100A300084608F8761E08C810E9441028D818F3FAD
:100A400019F061E00E94410261E08E810E94410242
:100A50007E0187E0E80EF11C00E010E06894AA2413
:100A6000A3F8B12C6894CC24C2F8D12C8F8584FDD6
:100A700003C08C2D9D2D02C08A2D9B2D08171907B0
:100A80004CF461E0F70181917F010E9441020F5F08
:100A90001F4FECCF80E593EC0E947D0260E08C81DB
:100AA0000E94F40160E08E810E94F4018D818F3FED
:100AB00019F060E00E94F4016F8564FD1DC063E0E1
:100AC000CE010E94610484E991E10E947D0263E00D
:100AD000CE010E94610484E991E10E947D0263E0FD
:100AE000CE010E94610486E990E00E947D0262E0EE
:100AF000CE010E94610419C0606240E0CE010E94F4
:100B0000BB0484E991E10E947D026F85606240E050
:100B1000CE010E94BB0486E990E00E947D026F85B1
:100B2000606240E0CE010E94BB046F85606240E0DD
:100B3000CE010E94BB0484E0888BCE010E94F004A9
:100B4000CE010E94E70482E0898B40E066E0CE019E
:100B50000E94BB04DF91CF911F910F91FF90EF9006
:100B6000DF90CF90BF90AF900895CF92EF920F9308
:100B7000FC011382128286E191E091838083648379
:100B80008FEF8583468327830087E186C28613869D
:100B9000148615861686178620E041E060E1CF01B5
:100BA0000E94FA040F91EF90CF90089541E00E94C7
:100BB000BB0481E090E0089520E042E060E18BE238
:100BC00092E00E94FA040E941C040E94E803089527
:100BD0000E94F0030895CF92EF920F930F2EF7E04B
:100BE000CF2EF02D0F2EF6E0EF2EF02D05E024E0B5
:100BF00049E068E08BE292E00E94B5050F91EF902A
:100C0000CF900895789484B5826084BD84B5816066
:100C100084BD85B5826085BD85B5816085BD8091C7
:100C20006E00816080936E0010928100809181003F
:100C30008260809381008091810081608093810037
:100C4000809180008160809380008091B1008460F9
:100C50008093B1008091B00081608093B00080915A
:100C60007A00846080937A0080917A008260809319
:100C70007A0080917A00816080937A0080917A0076
:100C8000806880937A001092C1000E94DC050E9467
:100C9000E8050E946001FBCFE2E2F1E013821282DC
:100CA00088EE93E0A0E0B0E084839583A683B783C9
:100CB00084E091E09183808385EC90E09587848740
:100CC00084EC90E09787868780EC90E0918B808B16
:100CD00081EC90E0938B828B82EC90E0958B848BFF
:100CE00086EC90E0978B868B118E128E138E148E6D
:100CF0000895EE0FFF1F0590F491E02D0994A1E2F5
:100D00001A2EAA1BBB1BFD010DC0AA1FBB1FEE1F85
:100D1000FF1FA217B307E407F50720F0A21BB30BD0
:100D2000E40BF50B661F771F881F991F1A9469F74C
:100D300060957095809590959B01AC01BD01CF01A8
:100D4000089581E090E0F8940C94A606F894FFCF03
:100D500000000000E7006A0188003401B900970034
:100D6000AB0000000000D6056A013F0442040D0AF2
:020D7000000081
:00000001FF
