S013000041637469766964616420312E7372656337
S11300000C945E000C9486000C9486000C9486007C
S11300100C9486000C9486000C9486000C94860044
S11300200C9486000C94850B0C9486000C9486002A
S11300300C9486000C9486000C9486000C94860024
S11300400C943F020C9486000C9427040C94010435
S11300500C9486000C9430050C9486000C94860055
S11300600C9486000C9486000000000024002700F5
S11300702A0000000000250028002B0004040404CA
S1130080040404040202020202020303030303033E
S1130090010204081020408001020408102001021B
S11300A004081020000000080002010000030407F7
S11300B00000000000000000FB0A810C11241FBE98
S11300C0CFEFD8E0DEBFCDBF11E0A0E0B1E0E2E8C1
S11300D0FEE102C005900D92A23AB107D9F724E0DF
S11300E0A2EAB1E001C01D92AD3FB207E1F710E012
S11300F0CEE5D0E004C02197FE010E94DE0ECC358F
S1130100D107C9F70E94370C0C943F0F0C940000E0
S1130110CF92DF92EF92FF920F931F93CF93DF93CF
S11301206C017A018B01C0E0D0E0CE15DF0581F0CF
S1130130D8016D918D01D601ED91FC910190F08172
S1130140E02DC6010995892B11F02196EECF7E0191
S1130150C701DF91CF911F910F91FF90EF90DF9036
S1130160CF900895FC01538D448D252F30E0842FCA
S113017090E0821B930B541710F0CF9608950197CB
S11301800895FC01918D828D981761F0828DDF01B5
S1130190A80FB11D5D968C91928D9F5F9F73928F76
S11301A090E008958FEF9FEF0895FC01918D828D6B
S11301B0981731F0828DE80FF11D858D90E0089538
S11301C08FEF9FEF0895FC01918D228D892F90E090
S11301D0805C9F4F821B91098F739927089582EA4F
S11301E091E00E94E30021E0892B09F420E0822FB2
S11301F00895FC01848DDF01A80FB11DA35ABF4FE0
S11302002C91848D90E001968F739927848FA68911
S1130210B7892C93A089B1898C91837080648C9365
S1130220938D848D981306C00288F389E02D808114
S11302308F7D80830895EF92FF920F931F93CF9346
S1130240DF93EC0181E0888F9B8D8C8D981305C022
S1130250E889F989808185FD26C0F62E0B8D10E092
S11302600F5F1F4F0F731127E02E8C8DE8120CC007
S11302700FB607FCFACFE889F989808185FFF5CFAD
S1130280CE010E94F900F1CF8B8DFE01E80FF11D24
S1130290E35AFF4FF0829FB7F8940B8FEA89FB89EA
S11302A0808180620AC09FB7F894EE89FF896083D9
S11302B0E889F98980818370806480839FBF81E0AD
S11302C090E0DF91CF911F910F91FF90EF900895EF
S11302D0CF93DF93EC01888D8823C9F0EA89FB89E9
S11302E0808185FD05C0A889B9898C9186FD0FC0E0
S11302F00FB607FCF5CF808185FFF2CFA889B989B5
S11303008C9185FFEDCFCE010E94F900E7CFDF91FC
S1130310CF91089580E090E0892B29F00E94EF00AE
S113032081110C94000008956115710579F0FB01A9
S113033001900020E9F73197AF01461B570BDC0110
S1130340ED91FC910280F381E02D099480E090E02E
S113035008950E943A0F90E0FC01EC55FF4F249160
S1130360FC01E057FF4F3491FC01E458FF4FE49146
S1130370EE2309F43CC0222339F1233091F038F400
S11303802130A9F0223001F584B58F7D12C02730C9
S113039091F02830A1F02430B9F4809180008F7D51
S11303A003C0809180008F77809380000DC084B556
S11303B08F7784BD09C08091B0008F7703C080918E
S11303C0B0008F7D8093B000F0E0EE0FFF1FEE5879
S11303D0FF4FA591B4919FB7F894611104C08C911B
S11303E03095382302C0EC913E2B3C939FBF089577
S11303F0CF93DF9390E0FC01E057FF4F2491FC0181
S1130400E458FF4F8491882361F190E0880F991F8D
S1130410FC01E859FF4FC591D491FC01EE58FF4F00
S1130420A591B491611109C09FB7F8948881209572
S113043082238883EC912E230BC0623061F49FB732
S1130440F8948881322F309583238883EC912E2B66
S11304502C939FBF06C08FB7F894E8812E2B288376
S11304608FBFDF91CF9108958230910538F0880FC6
S1130470991F880F991F05970197F1F708951F9207
S11304800F920FB60F9211242F933F938F939F9344
S1130490AF93BF938091440290914502A09146028C
S11304A0B09147023091430223E0230F2D3720F40B
S11304B00196A11DB11D05C026E8230F0296A11DBA
S11304C0B11D209343028093440290934502A0936C
S11304D04602B093470280913F0290914002A0915E
S11304E04102B09142020196A11DB11D80933F02C9
S11304F090934002A0934102B0934202BF91AF9106
S11305009F918F913F912F910F900FBE0F901F904D
S113051018950F931F93CF93DF93EC010E949401DE
S11305208C0163E971E0CE010E949401800F911F58
S1130530DF91CF911F910F910895AF92BF92CF9207
S1130540DF92EF92FF920F931F93CF93DF93CDB778
S1130550DEB7A1970FB6F894DEBF0FBECDBF5C0126
S11305604115510541F4DC01ED91FC910190F081BC
S1130570E02D099525C019A2423008F44AE080E034
S113058090E08E010F5D1F4FC42ED12CE12CF12C75
S1130590A70196010E94180FE62FCA01B901015064
S11305A01109EA3014F4E05D01C0E95CD801EC9370
S11305B0232B242B252B61F7B801C5010E9494013C
S11305C0A1960FB6F894DEBF0FBECDBFDF91CF91D9
S11305D01F910F91FF90EF90DF90CF90BF90AF905D
S11305E008952F923F924F925F926F927F928F92D3
S11305F09F92AF92BF92CF92DF92EF92FF920F93AE
S11306001F93CF93DF93CDB7DEB7A1970FB6F894BE
S1130610DEBF0FBECDBF8C014A015B01D22E9A0111
S1130620AB01C501B4010E94130F882319F066E9D8
S113063071E027C024013501E89477F82FEF3FEFEC
S11306404FE75FE7C301B2010E94130F81110DC090
S11306502FEF3FEF4FE75FE7C301B2010E941B0D8D
S113066018161CF46AE971E00CC02FEF3FEF4FE756
S11306705FE4C501B4010E94440E181634F46EE917
S113068071E0C8010E949401A1C02FEF3FEF4FE732
S11306905FECC501B4010E941B0D87FDF0CF20E083
S11306A030E0A901C501B4010E941B0D87FF0FC0F2
S11306B0D801ED91FC910190F081E02D6DE2C8012B
S11306C009951C01B7FAB094B7F8B09402C0212C74
S11306D0312CF12C60E070E080E09FE3FD1440F4E5
S11306E020E030E040E251E40E94200DF394F6CF84
S11306F0A50194010E94AF0C4B015C010E94E40E21
S1130700562E672E782EC92E19A2262F372F482F42
S1130710592F7E01B1E2EB0EF11CCA01B9012AE0A6
S113072030E040E050E00E94180F605DF7016293F2
S11307307F01211531054105510579F7BF01C80134
S11307400E9494017101E80EF91EDD20F1F1652D7E
S1130750762D872D9C2D0E94920D9B01AC01C50125
S1130760B4010E94AE0C4B015C01D801ED91FC91E7
S11307700190F081E02D6EE2C8010995E80EF91EA2
S113078020E030E040E251E4C501B4010E94490E8A
S11307902B013C010E94E40E4B015C014AE050E055
S11307A0C8010E949D02E80EF91EB40180E090E0A9
S11307B00E94920D9B01AC01C301B2010E94AE0CD8
S11307C04B015C01DA94D110DBCFC701A1960FB6BF
S11307D0F894DEBF0FBECDBFDF91CF911F910F9173
S11307E0FF90EF90DF90CF90BF90AF909F908F904D
S11307F07F906F905F904F903F902F9008950C944E
S113080094011F920F920FB60F9211242F933F93CE
S11308104F935F936F937F938F939F93AF93BF9304
S1130820EF93FF9382EA91E00E94F900FF91EF9128
S1130830BF91AF919F918F917F916F915F914F91F4
S11308403F912F910F900FBE0F901F9018951F92FC
S11308500F920FB60F9211242F938F939F93EF93C0
S1130860FF93E091B201F091B3018081E091B8016E
S1130870F091B90182FD12C090818091BB018F5F1C
S11308808F732091BC01821751F0E091BB01F0E01D
S1130890EE55FE4F958F8093BB0101C08081FF917F
S11308A0EF919F918F912F910F900FBE0F901F90FA
S11308B01895CF92DF92EF92FF921F93CF93DF931D
S11308C0EC016A017B01122FE889F98982E08083B7
S11308D04115514E61057105B1F060E079E08DE399
S11308E090E0A70196010E94180FDA01C90101974F
S11308F0A109B109B695A795979587959C012115EE
S113090080E13807A8F0E889F989108260E874E882
S11309108EE190E0A70196010E94180FDA01C90147
S11309200197A109B109B695A795979587959C015B
S1130930EC85FD853083EE85FF852083188EEC8958
S1130940FD891083EA89FB89808180618083EA893B
S1130950FB89808188608083EA89FB898081806843
S11309608083EA89FB8980818F7D8083DF91CF91A9
S11309701F91FF90EF90DF90CF9008950F931F93F6
S1130980CF93DF93C8E4D2E004E812E08885998528
S1130990892B39F0EA81FB818C819D810995198627
S11309A018862A96C017D10789F7DF91CF911F9136
S11309B00F910895FC0120813181D901AA0FBB1F39
S11309C0220F331F220F331F220F331FA20FB31F17
S11309D0A85BBD4F2AE001900D922A95E1F7FC0136
S11309E080819181FC01EE0FFF1F880F991F880FF2
S11309F0991F880F991FE80FF91FE85BFD4F81E0ED
S1130A0090E0978386838091840290918502892B5C
S1130A1021F5F894EAE7F0E0808187608083ACE711
S1130A20B0E08C9180648C938C918F7D8C938081C9
S1130A308F7D8083808180688083808188608083CB
S1130A408C91807F8C93808180648083789481E012
S1130A5090E0909385028093840281E090E0089571
S1130A601F920F920FB60F9211242F933F934F931F
S1130A705F936F937F938F939F93AF93BF93EF9302
S1130A80FF932091780030917900809186029091B3
S1130A908702FC01EE0FFF1F880F991F880F991F13
S1130AA0880F991FE80FF91FE85BFD4F822F90E034
S1130AB0932B958384838091860290918702FC0115
S1130AC0EE0FFF1F880F991F880F991F880F991F1A
S1130AD0E80FF91FE85BFD4F81E090E09187808784
S1130AE08091860290918702892B79F481E090E0CD
S1130AF09093870280938602ECE7F0E08081807F08
S1130B00808380818160808309C010928702109263
S1130B108602ECE7F0E08081807F80838EEB94E0B6
S1130B200E941E06EAE7F0E0808180648083FF91E2
S1130B30EF91BF91AF919F918F917F916F915F9151
S1130B404F913F912F910F900FBE0F901F901895CA
S1130B502FB7F8948091880290918902892B19F417
S1130B6022239CF408C08091880290918902892BE9
S1130B7091F0222384F08091880290918902019659
S1130B8090938902809388020895809188029091BD
S1130B908902892B81F708952FB7F89480918802F0
S1130BA090918902181619068CF48091880290910C
S1130BB08902019790938902809388028091880228
S1130BC090918902892B29F47894089522230CF4B6
S1130BD07894089510928C0210928B0210928A02DB
S1130BE081E008950E94A80580918A02882311F16A
S1130BF00E94CC05E0918C02F0E0EE0FFF1FE3575A
S1130C00FD4F0190F081E02D09950E94A805809187
S1130C108C0290E001968F709078992324F40197C8
S1130C20806F9F6F019680938C0280918A0281501D
S1130C3080938A020E94CC0581E00895CF93DF93CC
S1130C40EC010E94A80520918A022031D0F4809101
S1130C508B0290E0FC01EE0FFF1FE357FD4FD183A1
S1130C60C08301968F709078992324F40197806F44
S1130C709F6F019680938B022F5F20938A02C1E0BD
S1130C8001C0C0E00E94CC058C2FDF91CF91089564
S1130C90CF93DF93209100013091010182179307D4
S1130CA050F0E2E0F1E0C1E0D0E02191319182170F
S1130CB09307D8F438C080910A0190910B01892BD5
S1130CC0C9F1C0E0D0E0D0930B01C0930A01FE014A
S1130CD0EE0FFF1FEE0FFF1FE954FD4F0280F3815B
S1130CE0E02D0995259734F104C02196C530D1052E
S1130CF0E1F680910A0190910B018F3F2FEF92074B
S1130D00C9F0880F991F880F991FFC01E954FD4F02
S1130D100190F081E02D09958FEF9FEF90930B01E7
S1130D2080930A0107C080910A0190910B018C17EE
S1130D309D0749F6DF91CF9108956530710548F418
S1130D40660F771F660F771FFB01E954FD4F9183F0
S1130D50808308956530710548F4660F771F660F28
S1130D60771FFB01E954FD4F938382830895EDEAD5
S1130D70F2E01182108288E496E0938382831582E4
S1130D8014821782168211861086CF010E94DA041B
S1130D90089580E090E008950895CF93DF93EC01E7
S1130DA060E08E810E94AB0181E090E00E943402F9
S1130DB061E08E810E94AB0181E090E00E943402E8
S1130DC060E08E810E94AB0184E690E00E943402D0
S1130DD0DF91CF910895CF92DF92EF92FF920F931C
S1130DE01F93CF93DF936C018C01095F1F4FC0E009
S1130DF0D0E0E62EF12CB7010C2E02C07595679554
S1130E000A94E2F76170F80181918F010E94AB01AD
S1130E102196C430D10579F7C6010E94CD06DF9131
S1130E20CF911F910F91FF90EF90DF90CF90089595
S1130E30CF92DF92EF92FF920F931F93CF93DF93A2
S1130E406C018C01095F1F4FC0E0D0E0E62EF12C4D
S1130E50B7010C2E02C0759567950A94E2F761708C
S1130E60F80181918F010E94AB012196C830D10510
S1130E7079F7C6010E94CD06DF91CF911F910F91A2
S1130E80FF90EF90DF90CF9008951F93CF93DF935F
S1130E90EC01162F642F8C810E94AB018D818F3F52
S1130EA019F060E00E94AB018F8584FF05C0612FBB
S1130EB0CE010E94180711C0612F70E075956795E7
S1130EC0759567957595679575956795CE010E949B
S1130ED0EB06612FCE010E94EB06DF91CF911F91AB
S1130EE0089540E061E00E94450780ED97E00E948C
S1130EF034020895FC01443008F043E08389481724
S1130F0010F04FEF480FDF01A40FB11D54969C91D0
S1130F10690F606840E0CF010E9445070895FC0115
S1130F206089262F2460208B6C6040E00E94450776
S1130F300895AF92BF92CF92DF92EF92FF920F93F8
S1130F401F93CF93DF93EC01423018F08F858860B4
S1130F508F874B8B1C8A80E48D8B6E8B70E0605C7A
S1130F607F4F6F8B222329F0413019F48F858460E1
S1130F708F8761E08C810E94F8018D818F3F19F089
S1130F8061E00E94F80161E08E810E94F8017E0117
S1130F9087E0E80EF11C00E010E06894AA24A3F8AE
S1130FA0B12C6894CC24C2F8D12C8F8584FD03C065
S1130FB08C2D9D2D02C08A2D9B2D081719074CF4EA
S1130FC061E0F70181917F010E94F8010F5F1F4FDB
S1130FD0ECCF80E593EC0E94340260E08C810E94A7
S1130FE0AB0160E08E810E94AB018D818F3F19F0CF
S1130FF060E00E94AB016F8564FD1DC063E0CE011B
S11310000E94EB0684E991E10E94340263E0CE0180
S11310100E94EB0684E991E10E94340263E0CE0170
S11310200E94EB0686E990E00E94340262E0CE0161
S11310300E94EB0619C0606240E0CE010E944507A1
S113104084E991E10E9434026F85606240E0CE0140
S11310500E94450786E990E00E9434026F85606231
S113106040E0CE010E9445076F85606240E0CE01FA
S11310700E94450784E0888BCE010E948F07CE0131
S11310800E94710782E0898B40E066E0CE010E94F5
S11310904507DF91CF911F910F91FF90EF90DF9063
S11310A0CF90BF90AF900895CF92EF920F93FC0131
S11310B01382128282E291E09183808364838FEFB2
S11310C08583468327830087E186C2861386148638
S11310D015861686178620E041E060E1CF010E9464
S11310E099070F91EF90CF90089541E00E94450732
S11310F081E090E008954091CE025091CF02FA0130
S1131100EE0FFF1FEE0FFF1FE053FD4F608371834F
S1131110828393834436510519F421E02093CB0252
S1131120CA01019664E670E00E94B60E9093CF0265
S11311308093CE028091CC029091CD02019690933F
S1131140CD028093CC02089541E060E080E694E013
S11311500E947A076AE271E080E694E00E94FF034D
S1131160089541E060E080E694E00E947A076AE234
S113117071E080E694E00E94FF03089541E060E09E
S113118080E694E00E947A076AE271E080E694E0E7
S11311900E94FF03089541E060E080E694E00E942D
S11311A07A076AE271E080E694E00E94FF03089502
S11311B041E060E080E694E00E947A076AE271E030
S11311C080E694E00E94FF0308958F929F92AF926D
S11311D0BF92CF92DF92EF92FF920F931F93CF9320
S11311E0DF9341E060E080E694E00E947A076BE3DD
S11311F071E080E694E00E94FF038090D00290901A
S1131200D102A090D202B090D302C4EDD2E000E6A5
S113121014E0C990D990E990F99020E030E0A90158
S1131220C701B6010E94440E181674F4282D392DF6
S11312304A2D5B2DC701B6010E94440E181624F4F2
S11312408C2C9D2CAE2CBF2CC017D10711F741E07C
S11312506BE080E694E00E947A0722E030E0482DBB
S1131260592D6A2D7B2D80E694E00E94F102DF91D6
S1131270CF911F910F91FF90EF90DF90CF90BF908F
S1131280AF909F908F9008958F929F92AF92BF924C
S1131290CF92DF92EF92FF920F931F93CF93DF933E
S11312A041E060E080E694E00E947A0764E471E043
S11312B080E694E00E94FF038090D0029090D102D7
S11312C0A090D202B090D302C4EDD2E000E614E0C4
S11312D0C990D990E990F99020E030E0A901C701C4
S11312E0B6010E94440E181674F4282D392D4A2D87
S11312F05B2DC701B6010E941B0D882324F48C2C9E
S11313009D2CAE2CBF2CC017D10711F741E06BE028
S113131080E694E00E947A0722E030E0482D592DBF
S11313206A2D7B2D80E694E00E94F102DF91CF913B
S11313301F910F91FF90EF90DF90CF90BF90AF90EF
S11313409F908F90089541E060E080E694E00E94D1
S11313507A076DE471E080E694E00E94FF0341E0C7
S11313606BE080E694E00E947A078091CE0290912F
S1131370CF021816190664F4880F991F880F991F55
S1131380FC01E453FD4F408151816281738103C0AC
S113139040E050E0BA0122E030E080E694E00E94B0
S11313A0F1020895AF92BF92CF92DF92EF92FF9233
S11313B00F931F93CF93DF9341E060E080E694E0C6
S11313C00E947A0768E571E080E694E00E94FF03DA
S11313D062E671E082EA91E00E9489028091CB0288
S11313E0811109C0A090CE02B090CF0282E0A8166D
S11313F0B104D4F433C0C4EDD2E000E614E060E0FC
S113140070E0CB0129913991499159910E94AF0C17
S11314100C171D07B9F720E030E048EC52E40E94B5
S1131420200D6B017C0132C0C4EDD2E08501000FB8
S1131430111F000F111F00531D4FC12CD12C760119
S11314402991399149915991C701B6010E94AF0C74
S11314506B017C01C017D10799F703C0C12CD12CB3
S11314607601A114B10479F0B501BB0C880B990B7A
S11314700E94940D9B01AC01C701B6010E94200D8E
S11314806B017C0103C0C12CD12C760141E06BE0DF
S113149080E694E00E947A0722E030E0B701A601DA
S11314A080E694E00E94F102DF91CF911F910F91A9
S11314B0FF90EF90DF90CF90BF90AF90089541E000
S11314C060E080E694E00E947A076AE771E080E6D3
S11314D094E00E94FF0341E06BE080E694E00E9408
S11314E07A076091CC027091CD024AE050E080E628
S11314F094E00E949D02089526E040E855E260E0F1
S113150070E082EA91E00E94590420E042E060E148
S113151080E694E00E949907E0EDF2E020E634E0F2
S113152080E090E0A0E8BFEB81939193A193B19305
S1131530E217F307C9F740E060E080E694E00E9418
S11315407A0762E871E080E694E00E94FF0341E0DC
S113155060E080E694E00E947A076AE271E080E647
S113156094E00E94FF030E94EA050E94B7068BE7FD
S113157098E00E94420B61E070E084EA98E00E94E7
S11315809D0661E070E085EE98E00E94AA0662E0A4
S113159070E081EB98E00E949D0662E070E084E4D4
S11315A099E00E94AA0663E070E08BEC98E00E9448
S11315B09D0663E070E083EA99E00E94AA0660E079
S11315C070E08EEB98E00E949D0660E070E082ED92
S11315D099E00E94AA0664E070E088ED98E00E9419
S11315E09D0664E070E08FE59AE00E94AA060895E3
S11315F00E94F2050895CF92EF920F930F2EF7E019
S1131600CF2EF02D0F2EF6E0EF2EF02D05E024E086
S113161049E068E080E694E00E9454080F91EF905E
S1131620CF900895209184043091850484EF91E053
S1131630289FB001299F700D389F700D112480E000
S113164090E00E94920D20E030E040E85AE30E94CE
S1131650490EE0918204F09183040995089581E094
S113166080938604089520918604222351F01092D9
S11316708604909385048093840482E19BE00E9415
S11316801E0608959093830480938204E8E7F4E0AF
S113169081E090E09183808383E39BE09383828362
S11316A0158214821782168211861086CF010E9439
S11316B0DA048FE29BE00E94F70B6FE070E00E9477
S11316C02F0C81E090E00895CF93DF93EC010E940A
S11316D0A805A0EBB0E01C92E1EBF0E010828C9145
S11316E082608C93A0E7B0E08C9181608C9310921F
S11316F0B2008081836080830E94CC05D0938804EB
S1131700C0938704DF91CF9108951F920F920FB673
S11317100F9211242F933F934F935F936F937F9373
S11317208F939F93AF93BF93EF93FF931092B20065
S11317308091890490918A04019690938A048093FD
S113174089048091890490918A040A9751F4109233
S11317508A041092890480918704909188040E94DD
S11317601E06FF91EF91BF91AF919F918F917F9151
S11317706F915F914F913F912F910F900FBE0F90FA
S11317801F901895EF92FF920F931F93CF93DF93BF
S11317908091FB049091FC04181619060CF5CBE813
S11317A0D4E000E010E08E81882381F08C819D815B
S11317B001969D838C832A813B818217930730F0A5
S11317C0888199810E941E061D821C820F5F1F4F13
S11317D027968091FB049091FC04081719071CF3C9
S11317E0DF91CF911F910F91FF90EF900895209179
S11317F0FB043091FC042031310574F5F901EE0F3E
S1131800FF1FEE0FFF1FEE0FFF1FE21BF30BE55749
S1131810FB4F158214821682138212829183808375
S1131820232B21F482EC9BE00E94640B2091FB04A7
S11318303091FC04C90101969093FC048093FB044D
S1131840C901880F991F880F991F880F991F821B40
S1131850930B85579B4F089580E090E00895FC0119
S1131860738362831582148281E086830895789459
S113187084B5826084BD84B5816084BD85B5826091
S113188085BD85B5816085BD80916E008160809342
S11318906E001092810080918100826080938100AB
S11318A080918100816080938100809180008160BB
S11318B0809380008091B10084608093B100809116
S11318C0B00081608093B00080917A00846080933E
S11318D07A0080917A00826080937A0080917A0005
S11318E0816080937A0080917A00806880937A0086
S11318F01092C1000E947C0A0E94F80A0E948A0188
S1131900FBCFE2EAF1E01382128288EE93E0A0E0DA
S1131910B0E084839583A683B78380E191E09183CB
S1131920808385EC90E09587848784EC90E09787AA
S1131930868780EC90E0918B808B81EC90E0938B98
S1131940828B82EC90E0958B848B86EC90E0978B75
S1131950868B118E128E138E148E08955058BB27C9
S1131960AA270E94C60C0C940A0E0E94FC0D38F0A3
S11319700E94030E20F039F49F3F19F426F40C94CE
S1131980F90D0EF4E095E7FB0C94F30DE92F0E949A
S11319901B0E58F3BA17620773078407950720F0E4
S11319A079F4A6F50C943D0E0EF4E0950B2EBA2FA7
S11319B0A02D0B01B90190010C01CA01A001112451
S11319C0FF27591B99F0593F50F4503E68F11A16FD
S11319D0F040A22F232F342F4427585FF3CF46958E
S11319E037952795A795F0405395C9F77EF41F16B0
S11319F0BA0B620B730B840BBAF09150A1F0FF0F7A
S1131A00BB1F661F771F881FC2F70EC0BA0F621F65
S1131A10731F841F48F4879577956795B795F79555
S1131A209E3F08F0B0CF9395880F08F09927EE0FEA
S1131A309795879508950E94CF0D08F481E0089545
S1131A400E94340D0C940A0E0E94030E58F00E945A
S1131A50FC0D40F029F45F3F29F00C94F30D511173
S1131A600C943E0E0C94F90D0E941B0E68F39923FE
S1131A70B1F3552391F3951B550BBB27AA27621786
S1131A807307840738F09F5F5F4F220F331F441F93
S1131A90AA1FA9F335D00E2E3AF0E0E832D09150C7
S1131AA05040E695001CCAF72BD0FE2F29D0660FB4
S1131AB0771F881FBB1F261737074807AB07B0E8F7
S1131AC009F0BB0B802DBF01FF2793585F4F3AF0FD
S1131AD09E3F510578F00C94F30D0C943E0E5F3F3D
S1131AE0E4F3983ED4F3869577956795B795F79583
S1131AF09F5FC9F7880F911D9695879597F908956B
S1131B00E1E0660F771F881FBB1F62177307840706
S1131B10BA0720F0621B730B840BBA0BEE1F88F715
S1131B20E0950895E89409C097FB3EF4909580955C
S1131B30709561957F4F8F4F9F4F9923A9F0F92F8F
S1131B4096E9BB279395F695879577956795B7950D
S1131B50F111F8CFFAF4BB0F11F460FF1BC06F5FF3
S1131B607F4F8F4F9F4F16C0882311F096E911C005
S1131B70772321F09EE8872F762F05C0662371F026
S1131B8096E8862F70E060E02AF09A95660F771F3A
S1131B90881FDAF7880F9695879597F90895990F16
S1131BA00008550FAA0BE0E8FEEF16161706E80723
S1131BB0F907C0F012161306E407F50798F0621B44
S1131BC0730B840B950B39F40A2661F0232B242B19
S1131BD0252B21F408950A2609F4A140A6958FEF38
S1131BE0811D811D089597F99F6780E870E060E08A
S1131BF008959FEF80EC089500240A9416161706A2
S1131C0018060906089500240A94121613061406E9
S1131C1005060895092E0394000C11F4882352F04C
S1131C20BB0F40F4BF2B11F460FF04C06F5F7F4F04
S1131C308F4F9F4F089557FD9058440F551F59F0EB
S1131C405F3F71F04795880F97FB991F61F09F3FA5
S1131C5079F087950895121613061406551FF2CFCE
S1131C604695F1DF08C0161617061806991FF1CF1E
S1131C7086957105610508940895E894BB27662745
S1131C807727CB0197F908950E94CF0D08F48FEFC1
S1131C9008950E945C0E0C940A0E0E94FC0D38F00C
S1131CA00E94030E20F0952311F00C94F30D0C9474
S1131CB0F90D11240C943E0E0E941B0E70F3959F97
S1131CC0C1F3950F50E0551F629FF001729FBB272F
S1131CD0F00DB11D639FAA27F00DB11DAA1F649FCB
S1131CE06627B00DA11D661F829F2227B00DA11D7E
S1131CF0621F739FB00DA11D621F839FA00D611D04
S1131D00221F749F3327A00D611D231F849F600D24
S1131D10211D822F762F6A2F11249F5750409AF04D
S1131D20F1F088234AF0EE0FFF1FBB1F661F771FD9
S1131D30881F91505040A9F79E3F510580F00C94A4
S1131D40F30D0C943E0E5F3FE4F3983ED4F3869576
S1131D5077956795B795F795E7959F5FC1F7FE2B44
S1131D60880F911D9695879597F9089597FB072EEF
S1131D7016F4009407D077FD09D00E94CA0E07FC20
S1131D8005D03EF4909581959F4F08957095619587
S1131D907F4F0895AA1BBB1B51E107C0AA1FBB1F9D
S1131DA0A617B70710F0A61BB70B881F991F5A95E3
S1131DB0A9F780959095BC01CD010895EE0FFF1F02
S1131DC00590F491E02D09940E94230E88F09F570A
S1131DD098F0B92F9927B751B0F0E1F0660F771F4B
S1131DE0881F991F1AF0BA95C9F714C0B13091F041
S1131DF00E943D0EB1E008950C943D0E672F782F9C
S1131E008827B85F39F0B93FCCF386957795679505
S1131E10B395D9F73EF490958095709561957F4F71
S1131E208F4F9F4F08950E94CF0D880B990B0895F3
S1131E30A1E21A2EAA1BBB1BFD010DC0AA1FBB1FCA
S1131E40EE1FFF1FA217B307E407F50720F0A21B3C
S1131E50B30BE40BF50B661F771F881F991F1A94A9
S1131E6069F760957095809590959B01AC01BD01D3
S1131E70CF01089581E090E0F8940C943F0FF8941A
S1051E80FFCF8E
S1131E823200E60068011702F802FFFF00000000BA
S1131E921B018800B2006801E300C100D500000004
S1131EA2000075088800C906CC06202020202020C6
S1131EB220202020202020202020004D41582E20A8
S1131EC243B020004D494E2E2043B02000414354DC
S1131ED255414C2043B0200050524F4D2E2043B068
S1131EE220006C6C6567756520616C20646F776E89
S1131EF25F6B657952696768740043414E54204DA3
S1131F023A005345323031392053656E2E54656D93
S1131F12702E000D0A006E616E00696E66006F76A7
S1051F22660053
S9030000FC
