:100000000C945D000C9485000C9485000C94850084
:100010000C9485000C9485000C9485000C9485004C
:100020000C9485000C94EA090C9485000C948500CE
:100030000C9485000C9485000C9485000C9485002C
:100040000C9430010C9485000C9485000C94850070
:100050000C9485000C947A030C9485000C94850014
:100060000C9485000C9485000000000024002700FB
:100070002A0000000000250028002B0004040404CE
:100080000404040402020202020203030303030342
:10009000010204081020408001020408102001021F
:1000A00004081020000000080002010000030407FB
:1000B0000000000000000000600911241FBECFEF07
:1000C000D8E0DEBFCDBF11E0A0E0B1E0E0EFFAE1A3
:1000D00002C005900D92A637B107D9F724E0A6E734
:1000E000B1E001C01D92A534B207E1F710E0CDE503
:1000F000D0E004C02197FE010E941A0DCC35D10733
:10010000C9F70E949C0A0C94760D0C9400006115AE
:10011000710579F0FB0101900020E9F73197AF01FB
:10012000461B570BDC01ED91FC910280F381E02D21
:10013000099480E090E0089590E0FC01EC55FF4FB9
:100140002491FC01E057FF4F3491FC01E458FF4F2C
:10015000E491EE2309F43CC0222339F1233091F0DD
:1001600038F42130A9F0223001F584B58F7D12C01A
:10017000273091F02830A1F02430B9F4809180002C
:100180008F7D03C0809180008F77809380000DC0A9
:1001900084B58F7784BD09C08091B0008F7703C08C
:1001A0008091B0008F7D8093B000F0E0EE0FFF1FD4
:1001B000EE58FF4FA591B4919FB7F894611104C018
:1001C0008C913095382302C0EC913E2B3C939FBF1D
:1001D0000895CF93DF9390E0FC01E057FF4F249107
:1001E000FC01E458FF4F8491882361F190E0880F6F
:1001F000991FFC01E859FF4FC591D491FC01EE58BD
:10020000FF4FA591B491611109C09FB7F8948881FF
:10021000209582238883EC912E230BC0623061F4F9
:100220009FB7F8948881322F309583238883EC918F
:100230002E2B2C939FBF06C08FB7F894E8812E2BEE
:1002400028838FBFDF91CF9108958230910538F0D8
:10025000880F991F880F991F05970197F1F7089547
:100260001F920F920FB60F9211242F933F938F93EB
:100270009F93AF93BF9380917B0190917C01A0915C
:100280007D01B0917E0130917A0123E0230F2D375B
:1002900020F40196A11DB11D05C026E8230F02968A
:1002A000A11DB11D20937A0180937B0190937C0165
:1002B000A0937D01B0937E018091760190917701AA
:1002C000A0917801B09179010196A11DB11D809393
:1002D000760190937701A0937801B0937901BF9153
:1002E000AF919F918F913F912F910F900FBE0F90E3
:1002F0001F901895AF92BF92CF92DF92EF92FF922C
:100300000F931F93CF93DF93CDB7DEB7A1970FB6AF
:10031000F894DEBF0FBECDBF5C014115510541F41D
:10032000DC01ED91FC910190F081E02D099525C053
:1003300019A2423008F44AE080E090E08E010F5D9F
:100340001F4FC42ED12CE12CF12CA70196010E9445
:10035000540DE62FCA01B90101501109EA3014F415
:10036000E05D01C0E95CD801EC93232B242B252B05
:1003700061F7B801C5010E948700A1960FB6F894F5
:10038000DEBF0FBECDBFDF91CF911F910F91FF90C8
:10039000EF90DF90CF90BF90AF9008952F923F9253
:1003A0004F925F926F927F928F929F92AF92BF9285
:1003B000CF92DF92EF92FF920F931F93CF93DF9331
:1003C000CDB7DEB7A1970FB6F894DEBF0FBECDBF95
:1003D0008C014A015B01D22E9A01AB01C501B40127
:1003E0000E944F0D882319F069E671E027C02401AF
:1003F0003501E89477F82FEF3FEF4FE75FE7C30150
:10040000B2010E944F0D81110DC02FEF3FEF4FE75A
:100410005FE7C301B2010E94570B18161CF46DE68A
:1004200071E00CC02FEF3FEF4FE75FE4C501B4016F
:100430000E94800C181634F461E771E0C8010E9434
:100440008700A1C02FEF3FEF4FE75FECC501B4017C
:100450000E94570B87FDF0CF20E030E0A901C501D5
:10046000B4010E94570B87FF0FC0D801ED91FC919A
:100470000190F081E02D6DE2C80109951C01B7FAE9
:10048000B094B7F8B09402C0212C312CF12C60E06C
:1004900070E080E09FE3FD1440F420E030E040E2B3
:1004A00051E40E945C0BF394F6CFA50194010E94E5
:1004B000EB0A4B015C010E94200D562E672E782E10
:1004C000C92E19A2262F372F482F592F7E01B1E2AE
:1004D000EB0EF11CCA01B9012AE030E040E050E027
:1004E0000E94540D605DF70162937F012115310573
:1004F0004105510579F7BF01C8010E9487007101CC
:10050000E80EF91EDD20F1F1652D762D872D9C2D4D
:100510000E94CE0B9B01AC01C501B4010E94EA0A06
:100520004B015C01D801ED91FC910190F081E02D2F
:100530006EE2C8010995E80EF91E20E030E040E2C5
:1005400051E4C501B4010E94850C2B013C010E94BD
:10055000200D4B015C014AE050E0C8010E947A0185
:10056000E80EF91EB40180E090E00E94CE0B9B01E2
:10057000AC01C301B2010E94EA0A4B015C01DA94AA
:10058000D110DBCFC701A1960FB6F894DEBF0FBE26
:10059000CDBFDF91CF911F910F91FF90EF90DF9032
:1005A000CF90BF90AF909F908F907F906F905F9013
:1005B0004F903F902F9008950C948700CF92DF9238
:1005C000EF92FF920F931F93CF93DF936C017A0109
:1005D0008B01C0E0D0E0CE15DF0581F0D8016D9130
:1005E0008D01D601ED91FC910190F081E02DC601C5
:1005F0000995892B11F02196EECF7E01C701DF917D
:10060000CF911F910F91FF90EF90DF90CF900895C1
:100610000F931F93CF93DF93CFE7D1E00BEB11E064
:1006200088859985892B39F0EA81FB818C819D81B0
:100630000995198618862A96C017D10789F7DF9180
:10064000CF911F910F910895FC0120813181D90133
:10065000AA0FBB1F220F331F220F331F220F331F7E
:10066000A20FB31FA158BE4F2AE001900D922A9508
:10067000E1F7FC0180819181FC01EE0FFF1F880FE3
:10068000991F880F991F880F991FE80FF91FE158CC
:10069000FE4F81E090E0978386838091BD01909129
:1006A000BE01892B21F5F894EAE7F0E080818760AC
:1006B0008083ACE7B0E08C9180648C938C918F7DCB
:1006C0008C9380818F7D808380818068808380810E
:1006D000886080838C91807F8C938081806480830C
:1006E000789481E090E09093BE018093BD0181E019
:1006F00090E008951F920F920FB60F9211242F933E
:100700003F934F935F936F937F938F939F93AF9399
:10071000BF93EF93FF93809178002091790090E050
:10072000922B9093BC018093BB018091BF0190916B
:10073000C0012091BB013091BC01FC01EE0FFF1FF5
:10074000880F991F880F991F880F991FE80FF91FAD
:10075000E158FE4F358324838091BF019091C00101
:10076000FC01EE0FFF1F880F991F880F991F880F3C
:10077000991FE80FF91FE158FE4F81E090E0918743
:1007800080878091BF019091C001892B79F481E02D
:1007900090E09093C0018093BF01ECE7F0E080818E
:1007A000807F808380818160808309C01092C00136
:1007B0001092BF01ECE7F0E08081807F808388E0C9
:1007C00093E00E946F04EAE7F0E080818064808318
:1007D000FF91EF91BF91AF919F918F917F916F9119
:1007E0005F914F913F912F910F900FBE0F901F90EF
:1007F00018952FB7F8948091C1019091C201892B6F
:1008000019F422239CF408C08091C1019091C20187
:10081000892B91F0222384F08091C1019091C20133
:1008200001969093C2018093C10108958091C10106
:100830009091C201892B81F708952FB7F894809188
:10084000C1019091C201181619068CF48091C10162
:100850009091C20101979093C2018093C101809150
:10086000C1019091C201892B29F478940895222323
:100870000CF4789408951092C5011092C40110925E
:10088000C30181E008950E94F9038091C301882388
:1008900011F10E941D04E091C501F0E0EE0FFF1F71
:1008A000EA53FE4F0190F081E02D09950E94F90373
:1008B0008091C50190E001968F709078992324F47F
:1008C0000197806F9F6F01968093C5018091C3014E
:1008D00081508093C3010E941D0481E00895CF934D
:1008E000DF93EC010E94F9032091C3012031D0F481
:1008F0008091C40190E0FC01EE0FFF1FEA53FE4F10
:10090000D183C08301968F709078992324F4019746
:10091000806F9F6F01968093C4012F5F2093C30166
:10092000C1E001C0C0E00E941D048C2FDF91CF9177
:100930000895CF93DF932091000130910101821738
:10094000930750F0E2E0F1E0C1E0D0E02191319175
:1009500082179307D8F438C080910A0190910B0157
:10096000892BC9F1C0E0D0E0D0930B01C0930A01FC
:10097000FE01EE0FFF1FEE0FFF1FE051FE4F028042
:10098000F381E02D0995259734F104C02196C530F7
:10099000D105E1F680910A0190910B018F3F2FEF75
:1009A0009207C9F0880F991F880F991FFC01E05129
:1009B000FE4F0190F081E02D09958FEF9FEF90930E
:1009C0000B0180930A0107C080910A0190910B01ED
:1009D0008C179D0749F6DF91CF9108956530710519
:1009E00048F4660F771F660F771FFB01E051FE4F3B
:1009F0009183808308956530710548F4660F771FF1
:100A0000660F771FFB01E051FE4F938382830895A9
:100A1000E6EEF1E01182108289E994E0938382830B
:100A2000158214821782168211861086CF010E94C9
:100A30002403089580E090E008950895CF93DF9314
:100A4000EC0160E08E810E949C0081E090E00E94B9
:100A5000250161E08E810E949C0081E090E00E946F
:100A6000250160E08E810E949C0084E690E00E9457
:100A70002501DF91CF910895CF92DF92EF92FF92FF
:100A80000F931F93CF93DF936C018C01095F1F4F6E
:100A9000C0E0D0E0E62EF12CB7010C2E02C0759517
:100AA00067950A94E2F76170F80181918F010E94C5
:100AB0009C002196C430D10579F7C6010E941E051D
:100AC000DF91CF911F910F91FF90EF90DF90CF902A
:100AD0000895CF92DF92EF92FF920F931F93CF93DF
:100AE000DF936C018C01095F1F4FC0E0D0E0E62E60
:100AF000F12CB7010C2E02C0759567950A94E2F7A8
:100B00006170F80181918F010E949C002196C8308C
:100B1000D10579F7C6010E941E05DF91CF911F9183
:100B20000F91FF90EF90DF90CF9008951F93CF9398
:100B3000DF93EC01162F642F8C810E949C008D8125
:100B40008F3F19F060E00E949C008F8584FF05C0F4
:100B5000612FCE010E94690511C0612F70E075956B
:100B60006795759567957595679575956795CE01A8
:100B70000E943C05612FCE010E943C05DF91CF9180
:100B80001F91089540E061E00E94960580ED97E096
:100B90000E9425010895FC01443008F043E0838958
:100BA000481710F04FEF480FDF01A40FB11D549606
:100BB0009C91690F606840E0CF010E9496050895FE
:100BC000FC016089262F2460208B6C6040E00E942D
:100BD00096050895AF92BF92CF92DF92EF92FF9267
:100BE0000F931F93CF93DF93EC01423018F08F8562
:100BF00088608F874B8B1C8A80E48D8B6E8B70E0B6
:100C0000605C7F4F6F8B222329F0413019F48F8570
:100C100084608F8761E08C810E94E9008D818F3F25
:100C200019F061E00E94E90061E08E810E94E90014
:100C30007E0187E0E80EF11C00E010E06894AA2431
:100C4000A3F8B12C6894CC24C2F8D12C8F8584FDF4
:100C500003C08C2D9D2D02C08A2D9B2D08171907CE
:100C60004CF461E0F70181917F010E94E9000F5F80
:100C70001F4FECCF80E593EC0E94250160E08C8152
:100C80000E949C0060E08E810E949C008D818F3FBD
:100C900019F060E00E949C006F8564FD1DC063E058
:100CA000CE010E943C0584E991E10E94250163E0A8
:100CB000CE010E943C0584E991E10E94250163E098
:100CC000CE010E943C0586E990E00E94250162E089
:100CD000CE010E943C0519C0606240E0CE010E9436
:100CE000960584E991E10E9425016F85606240E0EC
:100CF000CE010E94960586E990E00E9425016F854D
:100D0000606240E0CE010E9496056F85606240E01F
:100D1000CE010E94960584E0888BCE010E94E005FA
:100D2000CE010E94C20582E0898B40E066E0CE01E0
:100D30000E949605DF91CF911F910F91FF90EF9048
:100D4000DF90CF90BF90AF900895CF92EF920F9326
:100D5000FC011382128280E191E09183808364839D
:100D60008FEF8583468327830087E186C2861386BB
:100D7000148615861686178620E041E060E1CF01D3
:100D80000E94EA050F91EF90CF90089541E00E94F4
:100D9000960581E090E0089541E060E088EA93E004
:100DA0000E94CB0568E171E088EA93E00E94DC02D2
:100DB000089541E060E088EA93E00E94CB0568E195
:100DC00071E088EA93E00E94DC02089541E060E06F
:100DD00088EA93E00E94CB0568E171E088EA93E03D
:100DE0000E94DC02089541E060E088EA93E00E94FE
:100DF000CB0568E171E088EA93E00E94DC02089587
:100E000041E060E088EA93E00E94CB0568E171E090
:100E100088EA93E00E94DC02089541E060E088EAFD
:100E200093E00E94CB0569E271E088EA93E00E94BA
:100E3000DC0241E06BE088EA93E00E94CB05409140
:100E40000A0250910B0260910C0270910D0222E097
:100E500030E088EA93E00E94CE01089541E060E02E
:100E600088EA93E00E94CB0562E371E088EA93E0B0
:100E70000E94DC0241E06BE088EA93E00E94CB052F
:100E800040910E0250910F02609110027091110278
:100E900022E030E088EA93E00E94CE01089541E02C
:100EA00060E088EA93E00E94CB056BE371E088EA9A
:100EB00093E00E94DC0241E06BE088EA93E00E944C
:100EC000CB05409106025091070260910802709193
:100ED000090222E030E088EA93E00E94CE01089502
:100EE00041E060E088EA93E00E94CB0565E471E0B0
:100EF00088EA93E00E94DC0241E06BE088EA93E03C
:100F00000E94CB058091A6039091A703181619069D
:100F100064F4880F991F880F991FFC01EE5EFD4F46
:100F2000408151816281738103C040E050E0BA0189
:100F300022E030E088EA93E00E94CE01089541E08B
:100F400060E088EA93E00E94CB0560E571E088EA02
:100F500093E00E94DC0241E06BE088EA93E00E94AB
:100F6000CB0560910402709105024AE050E088EAE6
:100F700093E00E947A0108958F929F92AF92BF9260
:100F8000CF92DF92EF92FF920F931F93CF93DF9355
:100F90008090160290901702A0901802B09019024B
:100FA000CAE1D2E006EA13E0C990D990E990F9903D
:100FB00020E030E0A901C701B6010E94800C18169C
:100FC00074F4282D392D4A2D5B2DC701B6010E94DE
:100FD000800C181624F48C2C9D2CAE2CBF2CC01722
:100FE000D10711F7882D992DAA2DBB2D80930A02C8
:100FF00090930B02A0930C02B0930D02DF91CF915E
:101000001F910F91FF90EF90DF90CF90BF90AF9026
:101010009F908F9008958F929F92AF92BF92CF92A0
:10102000DF92EF92FF920F931F93CF93DF93809005
:10103000160290901702A0901802B0901902CAE10F
:10104000D2E006EA13E0C990D990E990F99020E047
:1010500030E0A901C701B6010E94800C181674F493
:10106000282D392D4A2D5B2DC701B6010E94570B43
:10107000882324F48C2C9D2CAE2CBF2CC017D107B8
:1010800011F7882D992DAA2DBB2D80930E029093D8
:101090000F02A0931002B0931102DF91CF911F9124
:1010A0000F91FF90EF90DF90CF90BF90AF909F9007
:1010B0008F900895CF92DF92EF92FF920F931F933C
:1010C000CF93DF93C6E1D2E006EA13E0C12CD12C26
:1010D00076012991399149915991C701B6010E9430
:1010E000EB0A6B017C01C017D10799F760910402EC
:1010F000709105026115710549F410920602109273
:101100000702109208021092090212C080E090E0DB
:101110000E94CE0B9B01AC01C701B6010E945C0B83
:10112000609306027093070280930802909309026D
:10113000DF91CF911F910F91FF90EF90DF90CF90B3
:1011400008954091A6035091A703FA01EE0FFF1FE7
:10115000EE0FFF1FEA5EFD4F6083718382839383EE
:1011600020910402309105022436310530F42F5FBE
:101170003F4F3093050220930402CA01019664E6B2
:1011800070E00E94F20C9093A7038093A603209135
:101190000402309105022F5F3F4F309305022093E8
:1011A0000402181619069CF4880F991F880F991FBE
:1011B000FC01EE5EFD4F80819181A281B38180931D
:1011C000120290931302A0931402B09315020E948E
:1011D000BC070E940B080E945A08089520E042E0D4
:1011E00060E188EA93E00E94EA05E6E1F2E086EA3F
:1011F00093E01192119211921192E817F907C9F731
:1012000040E060E088EA93E00E94CB0568E571E089
:1012100088EA93E00E94DC0241E060E088EA93E023
:101220000E94CB0568E171E088EA93E00E94DC024D
:101230000E943B040E94080581EA98E00E94A709E9
:1012400061E070E08CEC96E00E94EE0461E070E0FA
:101250008DE097E00E94FB0462E070E089ED96E08B
:101260000E94EE0462E070E08EE297E00E94FB04D0
:1012700063E070E083EF96E00E94EE0463E070E0CC
:1012800080E797E00E94FB0460E070E086EE96E065
:101290000E94EE0460E070E08FE497E00E94FB049F
:1012A00064E070E080E097E00E94EE0464E070E0AB
:1012B0008FE997E00E94FB0408950E94430408957B
:1012C000CF92EF920F930F2EF7E0CF2EF02D0F2E2F
:1012D000F6E0EF2EF02D05E024E049E068E088EA32
:1012E00093E00E94A5060F91EF90CF900895209172
:1012F000CC033091CD0384EF91E0289FB001299F6A
:10130000700D389F700D112480E090E00E94CE0B8C
:1013100020E030E040E85AE30E94850CE091CA03E7
:10132000F091CB030995089581E08093CE03089551
:101330002091CE03222351F01092CE039093CD033F
:101340008093CC0387E799E00E946F0408959093FF
:10135000CB038093CA03E0ECF3E081E090E091835B
:10136000808388E999E093838283158214821782AF
:10137000168211861086CF010E94240384E999E029
:101380000E945C0A6FE070E00E94940A81E090E0A5
:101390000895CF93DF93EC010E94F903A0EBB0E036
:1013A0001C92E1EBF0E010828C9182608C93A0E7BC
:1013B000B0E08C9181608C931092B2008081836048
:1013C00080830E941D04D093D003C093CF03DF918C
:1013D000CF9108951F920F920FB60F9211242F9361
:1013E0003F934F935F936F937F938F939F93AF93AD
:1013F000BF93EF93FF931092B2008091D10390912D
:10140000D20301969093D2038093D1038091D103AC
:101410009091D2030A9751F41092D2031092D10303
:101420008091CF039091D0030E946F04FF91EF91C0
:10143000BF91AF919F918F917F916F915F914F91EC
:101440003F912F910F900FBE0F901F901895EF9224
:10145000FF920F931F93CF93DF938091430490915A
:101460004404181619060CF5C3EDD3E000E010E0B3
:101470008E81882381F08C819D8101969D838C8350
:101480002A813B818217930730F0888199810E94DD
:101490006F041D821C820F5F1F4F279680914304AB
:1014A00090914404081719071CF3DF91CF911F9105
:1014B0000F91FF90EF9008952091430430914404E0
:1014C0002031310574F5F901EE0FFF1FEE0FFF1FFC
:1014D000EE0FFF1FE21BF30BED52FC4F158214823F
:1014E00016821382128291838083232B21F487E258
:1014F0009AE00E94C9092091430430914404C90133
:1015000001969093440480934304C901880F991F66
:10151000880F991F880F991F821B930B8D529C4F28
:10152000089580E090E00895FC0173836283158242
:10153000148281E086830895789484B5826084BDA6
:1015400084B5816084BD85B5826085BD85B58160C7
:1015500085BD80916E00816080936E001092810045
:101560008091810082608093810080918100816000
:1015700080938100809180008160809380008091C1
:10158000B10084608093B1008091B000816080934D
:10159000B00080917A00846080937A0080917A0014
:1015A000826080937A0080917A00816080937A00D3
:1015B00080917A00806880937A001092C1000E9426
:1015C000EE08C0E0D0E00E945D092097E1F30E94A0
:1015D0000000F9CF5058BB27AA270E94020B0C9499
:1015E000460C0E94380C38F00E943F0C20F039F471
:1015F0009F3F19F426F40C94350C0EF4E095E7FBAC
:101600000C942F0CE92F0E94570C58F3BA1762075D
:1016100073078407950720F079F4A6F50C94790CEC
:101620000EF4E0950B2EBA2FA02D0B01B9019001FD
:101630000C01CA01A0011124FF27591B99F0593F41
:1016400050F4503E68F11A16F040A22F232F342F89
:101650004427585FF3CF469537952795A795F040D7
:101660005395C9F77EF41F16BA0B620B730B840BEC
:10167000BAF09150A1F0FF0FBB1F661F771F881FA4
:10168000C2F70EC0BA0F621F731F841F48F48795FC
:1016900077956795B795F7959E3F08F0B0CF9395EE
:1016A000880F08F09927EE0F9795879508950E9467
:1016B0000B0C08F481E008950E94700B0C94460C0A
:1016C0000E943F0C58F00E94380C40F029F45F3F14
:1016D00029F00C942F0C51110C947A0C0C94350CAD
:1016E0000E94570C68F39923B1F3552391F3951B8E
:1016F000550BBB27AA2762177307840738F09F5F33
:101700005F4F220F331F441FAA1FA9F335D00E2E9F
:101710003AF0E0E832D091505040E695001CCAF70C
:101720002BD0FE2F29D0660F771F881FBB1F2617CF
:1017300037074807AB07B0E809F0BB0B802DBF01A6
:10174000FF2793585F4F3AF09E3F510578F00C9475
:101750002F0C0C947A0C5F3FE4F3983ED4F38695FB
:1017600077956795B795F7959F5FC9F7880F911D96
:101770009695879597F90895E1E0660F771F881F82
:10178000BB1F621773078407BA0720F0621B730B35
:10179000840BBA0BEE1F88F7E0950895E89409C012
:1017A00097FB3EF490958095709561957F4F8F4F94
:1017B0009F4F9923A9F0F92F96E9BB279395F695AA
:1017C000879577956795B795F111F8CFFAF4BB0F28
:1017D00011F460FF1BC06F5F7F4F8F4F9F4F16C08C
:1017E000882311F096E911C0772321F09EE8872F16
:1017F000762F05C0662371F096E8862F70E060E0D2
:101800002AF09A95660F771F881FDAF7880F96954A
:10181000879597F90895990F0008550FAA0BE0E8EE
:10182000FEEF16161706E807F907C0F012161306A2
:10183000E407F50798F0621B730B840B950B39F4E2
:101840000A2661F0232B242B252B21F408950A2648
:1018500009F4A140A6958FEF811D811D089597F988
:101860009F6780E870E060E008959FEF80EC089546
:1018700000240A941616170618060906089500246F
:101880000A9412161306140605060895092E0394E9
:10189000000C11F4882352F0BB0F40F4BF2B11F45D
:1018A00060FF04C06F5F7F4F8F4F9F4F089557FDBC
:1018B0009058440F551F59F05F3F71F04795880FBE
:1018C00097FB991F61F09F3F79F087950895121655
:1018D00013061406551FF2CF4695F1DF08C0161601
:1018E00017061806991FF1CF8695710561050894B2
:1018F0000895E894BB2766277727CB0197F90895C9
:101900000E940B0C08F48FEF08950E94980C0C9421
:10191000460C0E94380C38F00E943F0C20F09523B2
:1019200011F00C942F0C0C94350C11240C947A0C9F
:101930000E94570C70F3959FC1F3950F50E0551F0F
:10194000629FF001729FBB27F00DB11D639FAA2714
:10195000F00DB11DAA1F649F6627B00DA11D661F63
:10196000829F2227B00DA11D621F739FB00DA11D84
:10197000621F839FA00D611D221F749F3327A00D3E
:10198000611D231F849F600D211D822F762F6A2FDA
:1019900011249F5750409AF0F1F088234AF0EE0F3F
:1019A000FF1FBB1F661F771F881F91505040A9F76C
:1019B0009E3F510580F00C942F0C0C947A0C5F3FE5
:1019C000E4F3983ED4F3869577956795B795F795A8
:1019D000E7959F5FC1F7FE2B880F911D9695879520
:1019E00097F9089597FB072E16F4009407D077FD1A
:1019F00009D00E94060D07FC05D03EF49095819514
:101A00009F4F0895709561957F4F0895AA1BBB1B4A
:101A100051E107C0AA1FBB1FA617B70710F0A61BEE
:101A2000B70B881F991F5A95A9F780959095BC010F
:101A3000CD010895EE0FFF1F0590F491E02D09945C
:101A40000E945F0C88F09F5798F0B92F9927B751E3
:101A5000B0F0E1F0660F771F881F991F1AF0BA9552
:101A6000C9F714C0B13091F00E94790CB1E008952B
:101A70000C94790C672F782F8827B85F39F0B93F1D
:101A8000CCF3869577956795B395D9F73EF4909505
:101A90008095709561957F4F8F4F9F4F08950E945D
:101AA0000B0C880B990B0895A1E21A2EAA1BBB1BE5
:101AB000FD010DC0AA1FBB1FEE1FFF1FA217B3071A
:101AC000E407F50720F0A21BB30BE40BF50B661F30
:101AD000771F881F991F1A9469F7609570958095F4
:101AE00090959B01AC01BD01CF010895F894FFCF03
:101AF0003200E60068011702F802FFFF0000000054
:101B0000C606DE021A051D052020202020202020E8
:101B10002020202020202020004D41582E2043B09E
:101B200020004D494E2E2043B0200050524F4D2EE4
:101B30002043B0200041435455414C2043B0200085
:101B400043414E54204D3A005345323031392053F1
:101B5000656E2E54656D702E006E616E00696E6646
:061B6000006F7666000034
:00000001FF
