:100000000C945E000C9486000C9486000C94860080
:100010000C9486000C9486000C9486000C94860048
:100020000C9486000C940E0B0C9486000C948600A5
:100030000C9486000C9486000C9486000C94860028
:100040000C9488020C9486000C9415040C94EF0315
:100050000C9486000C940F050C9486000C9486007A
:100060000C9486000C9486000000000024002700F9
:100070002A0000000000250028002B0004040404CE
:100080000404040402020202020203030303030342
:10009000010204081020408001020408102001021F
:1000A00004081020000000080002010000030407FB
:1000B00000000000000000008B0A0A0C11241FBE83
:1000C000CFEFD8E0DEBFCDBF11E0A0E0B1E0E2E6C7
:1000D000FDE102C005900D92A83DB107D9F724E0DB
:1000E000A8EDB1E001C01D92A23FB207E1F710E018
:1000F000CEE5D0E004C02197FE010E944E0ECC3523
:10010000D107C9F70E94C00B0C94AF0E0C940000ED
:10011000CF92DF92EF92FF920F931F93CF93DF93D3
:100120006C017A018B01C0E0D0E0CE15DF0581F0D3
:10013000D8016D918D01D601ED91FC910190F08176
:10014000E02DC6010995892B11F02196EECF7E0195
:10015000C701DF91CF911F910F91FF90EF90DF903A
:10016000CF900895FC01538D448D252F30E0842FCE
:1001700090E0821B930B541710F0CF9608950197CF
:100180000895FC01918D828D981761F0828DDF01B9
:10019000A80FB11D5D968C91928D9F5F9F73928F7A
:1001A00090E008958FEF9FEF0895FC01918D828D6F
:1001B000981731F0828DE80FF11D858D90E008953C
:1001C0008FEF9FEF0895FC01918D228D892F90E094
:1001D000805C9F4F821B91098F739927089588ED4A
:1001E00091E00E94E30021E0892B09F420E0822FB6
:1001F0000895FC01848DDF01A80FB11DA35ABF4FE4
:100200002C91848D90E001968F739927848FA68915
:10021000B7892C93A089B1898C91837080648C9369
:10022000938D848D981306C00288F389E02D808118
:100230008F7D80830895EF92FF920F931F93CF934A
:10024000DF93EC0181E0888F9B8D8C8D981305C026
:10025000E889F989808185FD26C0F62E0B8D10E096
:100260000F5F1F4F0F731127E02E8C8DE8120CC00B
:100270000FB607FCFACFE889F989808185FFF5CFB1
:10028000CE010E94F900F1CF8B8DFE01E80FF11D28
:10029000E35AFF4FF0829FB7F8940B8FEA89FB89EE
:1002A000808180620AC09FB7F894EE89FF896083DD
:1002B000E889F98980818370806480839FBF81E0B1
:1002C00090E0DF91CF911F910F91FF90EF900895F3
:1002D000CF93DF93EC01888D8823C9F0EA89FB89ED
:1002E000808185FD05C0A889B9898C9186FD0FC0E4
:1002F0000FB607FCF5CF808185FFF2CFA889B989B9
:100300008C9185FFEDCFCE010E94F900E7CFDF9100
:10031000CF91089580E090E0892B29F00E94EF00B2
:1003200081110C94000008956115710579F0FB01AD
:1003300001900020E9F73197AF01461B570BDC0114
:10034000ED91FC910280F381E02D099480E090E032
:1003500008958F929F92AF92BF92EF92FF920F9368
:100360001F93CF93DF93CDB7DEB7A1970FB6F89465
:10037000DEBF0FBECDBF7C01FA01CB0119A2223036
:1003800008F42AE08E010F5D1F4F822E912CA12CC4
:10039000B12CBF01A50194010E94880EF901CA0188
:1003A000015011096A3014F4605D01C0695CD80124
:1003B0006C93232B242B252B61F7B801C7010E94D6
:1003C0009401A1960FB6F894DEBF0FBECDBFDF91AA
:1003D000CF911F910F91FF90EF90BF90AF909F90A2
:1003E0008F9008950E94AA0E90E0FC01EC55FF4FFB
:1003F0002491FC01E057FF4F3491FC01E458FF4F7A
:10040000E491EE2309F43CC0222339F1233091F02A
:1004100038F42130A9F0223001F584B58F7D12C067
:10042000273091F02830A1F02430B9F48091800079
:100430008F7D03C0809180008F77809380000DC0F6
:1004400084B58F7784BD09C08091B0008F7703C0D9
:100450008091B0008F7D8093B000F0E0EE0FFF1F21
:10046000EE58FF4FA591B4919FB7F894611104C065
:100470008C913095382302C0EC913E2B3C939FBF6A
:100480000895CF93DF9390E0FC01E057FF4F249154
:10049000FC01E458FF4F8491882361F190E0880FBC
:1004A000991FFC01E859FF4FC591D491FC01EE580A
:1004B000FF4FA591B491611109C09FB7F89488814D
:1004C000209582238883EC912E230BC0623061F447
:1004D0009FB7F8948881322F309583238883EC91DD
:1004E0002E2B2C939FBF06C08FB7F894E8812E2B3C
:1004F00028838FBFDF91CF9108958230910538F026
:10050000880F991F880F991F05970197F1F7089594
:100510001F920F920FB60F9211242F933F938F9338
:100520009F93AF93BF9380917A0290917B02A091A9
:100530007C02B0917D023091790223E0230F2D37A8
:1005400020F40196A11DB11D05C026E8230F0296D7
:10055000A11DB11D2093790280937A0290937B02B2
:10056000A0937C02B0937D028091750290917602F7
:10057000A0917702B09178020196A11DB11D8093E0
:10058000750290937602A0937702B0937802BF91A0
:10059000AF919F918F913F912F910F900FBE0F9030
:1005A0001F9018950F931F93CF93DF93EC019A013F
:1005B000452B39F4E881F9810190F081E02D09950E
:1005C00005C0AB0160E070E00E94A9018C0168ECFD
:1005D00071E0CE010E949401800F911FDF91CF91B5
:1005E0001F910F9108950F931F93CF93DF93EC0109
:1005F0000E9494018C0168EC71E0CE010E9494018C
:10060000800F911FDF91CF911F910F9108957F92DD
:100610008F929F92AF92BF92CF92DF92EF92FF9212
:100620000F931F93CF93DF938C016A017B01722E8E
:100630009A01AB01C701B6010E94830E882319F00D
:100640006BEC71E027C046015701E894B7F82FEF33
:100650003FEF4FE75FE7C501B4010E94830E8111B0
:100660000DC02FEF3FEF4FE75FE7C501B4010E94D8
:10067000A40C18161CF46FEC71E00CC02FEF3FEFC8
:100680004FE75FE4C701B6010E94CD0D181694F440
:1006900063ED71E0C801DF91CF911F910F91FF9041
:1006A000EF90DF90CF90BF90AF909F908F907F9012
:1006B0000C9494012FEF3FEF4FE75FECC701B601B9
:1006C0000E94A40C87FDE4CF20E030E0A901C7011F
:1006D000B6010E94A40C87FF0FC0D801ED91FC91D8
:1006E0000190F081E02D6DE2C8010995EC01F7FA67
:1006F000F094F7F8F09402C0C0E0D0E0B12C60E0D4
:1007000070E080E09FE3B71440F420E030E040E286
:1007100051E40E94A90CB394F6CFA70196010E9460
:10072000380C6B017C010E94540E4B015C012AE0E5
:10073000AB01BC01C8010E94A901C80FD91F7720D5
:10074000E9F1C501B4010E941B0D9B01AC01C70179
:10075000B6010E94370C6B017C01D801ED91FC9130
:100760000190F081E02D6EE2C8010995C80FD91FF4
:1007700020E030E040E251E4C701B6010E94D20D12
:100780004B015C010E94540E6B01E12CF12C2AE01C
:10079000B701A601C8010E94A901C80FD91FC7014E
:1007A000B6010E941B0D9B01AC01C501B4010E9462
:1007B000370C6B017C017A947110DACFCE01DF9196
:1007C000CF911F910F91FF90EF90DF90CF90BF904E
:1007D000AF909F908F907F9008950C9494011F92FA
:1007E0000F920FB60F9211242F933F934F935F9365
:1007F0006F937F938F939F93AF93BF93EF93FF93E9
:1008000088ED91E00E94F900FF91EF91BF91AF91C7
:100810009F918F917F916F915F914F913F912F9118
:100820000F900FBE0F901F9018951F920F920FB64A
:100830000F9211242F938F939F93EF93FF93E09147
:10084000E801F091E9018081E091EE01F091EF0182
:1008500082FD12C090818091F1018F5F8F73209192
:10086000F201821751F0E091F101F0E0E852FE4F01
:10087000958F8093F10101C08081FF91EF919F914D
:100880008F912F910F900FBE0F901F901895CF92C0
:10089000DF92EF92FF921F93CF93DF93EC016A01F7
:1008A0007B01122FE889F98982E080834115514E3E
:1008B00061057105B1F060E079E08DE390E0A7019A
:1008C00096010E94880EDA01C9010197A109B109B8
:1008D000B695A795979587959C01211580E13807D6
:1008E000A8F0E889F989108260E874E88EE190E068
:1008F000A70196010E94880EDA01C9010197A1099A
:10090000B109B695A795979587959C01EC85FD85CE
:100910003083EE85FF852083188EEC89FD89108356
:10092000EA89FB89808180618083EA89FB898081F3
:1009300088608083EA89FB89808180688083EA8976
:10094000FB8980818F7D8083DF91CF911F91FF9004
:10095000EF90DF90CF9008950F931F93CF93DF9385
:10096000CEE7D2E00AE812E0E881F981808591853E
:10097000892B41F00280F381E02D0995E881F9810E
:10098000118610862296C017D10771F7DF91CF919B
:100990001F910F910895DC01ED91FC911197EE0FDD
:1009A000FF1FE258FD4F91838083ED91FC91EE0F84
:1009B000FF1FE258FD4F0190F081E02D81E090E0B3
:1009C0009783868380918A0290918B02892B21F5EF
:1009D000F894EAE7F0E0808187608083ACE7B0E0DC
:1009E0008C9180648C938C918F7D8C9380818F7D92
:1009F00080838081806880838081886080838C91FF
:100A0000807F8C93808180648083789481E090E003
:100A100090938B0280938A0281E090E008951F9268
:100A20000F920FB60F9211242F933F934F935F9322
:100A30006F937F938F939F93AF93BF93EF93FF93A6
:100A40008091780020917900E0918C02F0918D02E4
:100A5000EE0FFF1FE258FD4F0190F081E02D90E076
:100A6000922B95838483E0918C02F0918D02EE0F9E
:100A7000FF1FE258FD4F0190F081E02D81E090E0F2
:100A80009187808780918C0290918D02892B79F4D7
:100A900081E090E090938D0280938C02ECE7F0E08F
:100AA0008081807F808380818160808309C01092F3
:100AB0008D0210928C02ECE7F0E08081807F8083D1
:100AC0008CEA94E00E94F005EAE7F0E0808180641F
:100AD0008083FF91EF91BF91AF919F918F917F9113
:100AE0006F915F914F913F912F910F900FBE0F909B
:100AF0001F9018952FB7F89480918E0290918F02D5
:100B0000892B19F422239CF408C080918E029091C5
:100B10008F02892B91F0222384F080918E02909194
:100B20008F02019690938F0280938E020895809198
:100B30008E0290918F02892B81F708952FB7F89438
:100B400080918E0290918F02181619068CF4809174
:100B50008E0290918F02019790938F0280938E0264
:100B600080918E0290918F02892B29F478940895B8
:100B700022230CF47894089510929202109291021C
:100B80001092900281E008950E947A05809190026F
:100B9000882311F10E949E05E0919202F0E0EE0F91
:100BA000FF1FED56FD4F0190F081E02D09950E9449
:100BB0007A058091920290E001968F709078992347
:100BC00024F40197806F9F6F019680939202809129
:100BD00090028150809390020E949E0581E00895CA
:100BE000CF93DF93EC010E947A052091900220318F
:100BF000D0F48091910290E0FC01EE0FFF1FED56C2
:100C0000FD4FD183C08301968F709078992324F48F
:100C10000197806F9F6F0196809391022F5F2093C1
:100C20009002C1E001C0C0E00E949E058C2FDF91C0
:100C3000CF9108950F931F93CF93DF93E091B30269
:100C4000F091B402048115816EE171E088ED91E0CC
:100C50000E94ED034AE050E0B80188ED91E00E9467
:100C6000D20280910001909101010817190750F0FC
:100C7000E2E0F1E0C1E0D0E081919191081719071D
:100C8000D8F438C080910A0190910B01892BC9F1E9
:100C9000C0E0D0E0D0930B01C0930A01FE01EE0F3B
:100CA000FF1FEE0FFF1FEB54FD4F0280F381E02D7D
:100CB0000995259734F104C02196C530D105E1F698
:100CC00080910A0190910B018F3F2FEF9207C9F09D
:100CD000880F991F880F991FFC01EB54FD4F01905D
:100CE000F081E02D09958FEF9FEF90930B0180939A
:100CF0000A0107C080910A0190910B018C179D0792
:100D000049F6DF91CF911F910F91089565307105DC
:100D100048F4660F771F660F771FFB01EB54FD4FFA
:100D20009183808308956530710548F4660F771FBD
:100D3000660F771FFB01EB54FD4F93838283089569
:100D4000E091B302F091B40211821082E091B302FB
:100D5000F091B4028AE196E0938382831582148233
:100D60001782168211861086CF010E94CB04089547
:100D700080E090E008950895CF93DF93EC0160E068
:100D80008E810E94F40181E090E00E947D0261E08A
:100D90008E810E94F40181E090E00E947D0260E07B
:100DA0008E810E94F40184E690E00E947D02DF9132
:100DB000CF910895CF92DF92EF92FF920F931F93FE
:100DC000CF93DF936C018C01095F1F4FC0E0D0E02F
:100DD000E62EF12CB7010C2E02C0759567950A948A
:100DE000E2F76170F80181918F010E94F401219670
:100DF000C430D10579F7C6010E94BC06DF91CF91BE
:100E00001F910F91FF90EF90DF90CF900895CF92B8
:100E1000DF92EF92FF920F931F93CF93DF936C01BA
:100E20008C01095F1F4FC0E0D0E0E62EF12CB70126
:100E30000C2E02C0759567950A94E2F76170F8016F
:100E400081918F010E94F4012196C830D10579F774
:100E5000C6010E94BC06DF91CF911F910F91FF90B8
:100E6000EF90DF90CF9008951F93CF93DF93EC0125
:100E7000162F642F8C810E94F4018D818F3F19F011
:100E800060E00E94F4018F8584FF05C0612FCE01D0
:100E90000E94070711C0612F70E0759567957595E1
:100EA00067957595679575956795CE010E94DA06E9
:100EB000612FCE010E94DA06DF91CF911F91089534
:100EC00040E061E00E94340780ED97E00E947D02DF
:100ED0000895FC01443008F043E08389481710F07E
:100EE0004FEF480FDF01A40FB11D54969C91690F7D
:100EF000606840E0CF010E9434070895FC016089DA
:100F0000262F2460208B6C6040E00E9434070895F7
:100F1000AF92BF92CF92DF92EF92FF920F931F9307
:100F2000CF93DF93EC01423018F08F8588608F8774
:100F30004B8B1C8A80E48D8B6E8B70E0605C7F4FE6
:100F40006F8B222329F0413019F48F8584608F87BD
:100F500061E08C810E9441028D818F3F19F061E038
:100F60000E94410261E08E810E9441027E0187E081
:100F7000E80EF11C00E010E06894AA24A3F8B12C5C
:100F80006894CC24C2F8D12C8F8584FD03C08C2DAD
:100F90009D2D02C08A2D9B2D081719074CF461E086
:100FA000F70181917F010E9441020F5F1F4FECCF3B
:100FB00080E593EC0E947D0260E08C810E94F40148
:100FC00060E08E810E94F4018D818F3F19F060E016
:100FD0000E94F4016F8564FD1DC063E0CE010E9494
:100FE000DA0684E991E10E947D0263E0CE010E946D
:100FF000DA0684E991E10E947D0263E0CE010E945D
:10100000DA0686E990E00E947D0262E0CE010E944D
:10101000DA0619C0606240E0CE010E94340784E91C
:1010200091E10E947D026F85606240E0CE010E94E6
:10103000340786E990E00E947D026F85606240E09F
:10104000CE010E9434076F85606240E0CE010E94AD
:10105000340784E0888BCE010E947E07CE010E9477
:10106000600782E0898B40E066E0CE010E94340791
:10107000DF91CF911F910F91FF90EF90DF90CF9074
:10108000BF90AF900895CF92EF920F93FC0113821F
:1010900012828CE391E09183808364838FEF858358
:1010A000468327830087E186C286138614861586C9
:1010B0001686178620E041E060E1CF010E94880794
:1010C0000F91EF90CF90089541E00E94340781E0A6
:1010D00090E00895BC01990F880B990B0E941D0D9B
:1010E0002DEC3CEC4CE85FE30E94D20D20E030E0B8
:1010F00048EC52E40E94D20D20E030E040E85AE390
:101100000E94D20D60935B0470935C0480935D0435
:1011100090935E044091C9025091CA02FA01EE0F09
:10112000FF1FEE0FFF1FE553FD4F60837183828326
:1011300093834F5F5F4F9A01369527953695279594
:10114000ABE7B4E10E943F0E9695879564E6689FF1
:101150009001699F300D1124421B530B5093CA021A
:101160004093C902089541E060E08FE594E00E9459
:10117000690764E471E08FE594E00E94ED0308954F
:1011800041E060E08FE594E00E94690764E471E06B
:101190008FE594E00E94ED03089541E060E08FE563
:1011A00094E00E94690764E471E08FE594E00E9496
:1011B000ED03089541E060E08FE594E00E94690747
:1011C00064E471E08FE594E00E94ED03089541E04E
:1011D00060E08FE594E00E94690764E471E08FE5C8
:1011E00094E00E94ED03089541E060E08FE594E013
:1011F0000E94690764E471E08FE594E00E94ED03CA
:1012000008958F929F92AF92BF92CF92DF92EF920A
:10121000FF920F931F93CF93DF9341E060E08FE540
:1012200094E00E94690765E571E08FE594E00E9413
:10123000ED038090CB029090CC02A090CD02B090B4
:10124000CE02CFECD2E00BE514E0C990D990E99042
:10125000F990282D392D4A2D5B2DC701B6010E942A
:10126000CD0D181624F48C2C9D2CAE2CBF2CC01741
:10127000D10759F741E06BE08FE594E00E946907E0
:1012800022E030E0482D592D6A2D7B2D8FE594E02A
:101290000E940703DF91CF911F910F91FF90EF9074
:1012A000DF90CF90BF90AF909F908F9008958F92D6
:1012B0009F92AF92BF92CF92DF92EF92FF920F93E5
:1012C0001F93CF93DF9341E060E08FE594E00E94AD
:1012D00069076EE571E08FE594E00E94ED03809070
:1012E000CB029090CC02A090CD02B090CE02CFEC79
:1012F000D2E00BE514E0C990D990E990F990282D3F
:10130000392D4A2D5B2DC701B6010E94A40C8823FC
:1013100024F48C2C9D2CAE2CBF2CC017D10759F770
:1013200041E06BE08FE594E00E94690722E030E045
:10133000482D592D6A2D7B2D8FE594E00E940703DF
:10134000DF91CF911F910F91FF90EF90DF90CF90A1
:10135000BF90AF909F908F90089541E060E08FE53F
:1013600094E00E94690767E671E08FE594E00E94CF
:10137000ED0341E06BE08FE594E00E946907409146
:101380005B0450915C0460915D0470915E0422E006
:1013900030E08FE594E00E9407030895CF92DF923A
:1013A000EF92FF920F931F93CF93DF9341E060E0A2
:1013B0008FE594E00E94690762E771E08FE594E0B1
:1013C0000E94ED036CE771E088ED91E00E94F3026A
:1013D000CFECD2E00BE514E0C12CD12C76012991A1
:1013E000399149915991C701B6010E94380C6B019E
:1013F0007C01C017D10799F741E06BE08FE594E0DD
:101400000E94690720E030E048EC52E4C701B601D1
:101410000E94A90CAB01BC0122E030E08FE594E012
:101420000E940703DF91CF911F910F91FF90EF90E2
:10143000DF90CF90089526E040E855E260E070E04C
:1014400088ED91E00E94470420E042E060E18FE5F2
:1014500094E00E94880740E060E08FE594E00E94FD
:10146000690764E971E08FE594E00E94ED0341E0D3
:1014700060E08FE594E00E94690764E471E08FE525
:1014800094E00E94ED030E94BC050E94A0068AE63B
:1014900098E00E94C50A61E070E083EB98E00E944A
:1014A000860661E070E081E099E00E94930662E0C8
:1014B00070E080EC98E00E94860662E070E087E5CC
:1014C00099E00E94930663E070E08AED98E00E9444
:1014D000860663E070E08DEA99E00E94930660E082
:1014E00070E08DEC98E00E94860660E070E08EEC83
:1014F00099E00E94930664E070E087EE98E00E9415
:10150000860664E070E084EF98E00E9493060895F8
:101510000E94C4050895CF92EF920F930F2EF7E02B
:10152000CF2EF02D0F2EF6E0EF2EF02D05E024E06B
:1015300049E068E08FE594E00E9443080F91EF9046
:10154000CF900895A0917704B0917804E091790448
:10155000F0917A0414968D919C91159709950895B0
:1015600081E080937B04089565EA71E088ED91E065
:101570000E94F30280917B04882331F010927B0457
:1015800082EA9AE00E94F005089590937A0480938D
:101590007904E0917704F091780481E090E0918300
:1015A0008083E0917704F091780484EB9AE0938350
:1015B0008283158214821782168211861086CF01CB
:1015C0000E94CB0480EB9AE00E94800B6FE070E0F9
:1015D0000E94B80B81E090E00895CF93DF93EC0177
:1015E0000E947A05A0EBB0E01C92E1EBF0E01082E3
:1015F0008C9182608C93A0E7B0E08C9181608C9399
:101600001092B2008081836080830E949E05D093F7
:101610007D04C0937C04DF91CF9108951F920F92B7
:101620000FB60F9211242F933F934F935F936F93B5
:101630007F938F939F93AF93BF93EF93FF931092FA
:10164000B20080917E0490917F04019690937F0474
:1016500080937E0480917E0490917F040A9750F0DD
:1016600010927F0410927E0480917C0490917D04FE
:101670000E94F005FF91EF91BF91AF919F918F91E3
:101680007F916F915F914F913F912F910F900FBE7E
:101690000F901F901895EF92FF920F931F93CF9387
:1016A000DF938091F0049091F104181619060CF55F
:1016B000C0E8D4E000E010E08E81882381F08C81C6
:1016C0009D8101969D838C832A813B81821793079C
:1016D00030F0888199810E94F0051D821C820F5F85
:1016E0001F4F27968091F0049091F1040817190775
:1016F0001CF3DF91CF911F910F91FF90EF90089510
:101700002091F0043091F1042031310574F5F90194
:10171000EE0FFF1FEE0FFF1FEE0FFF1FE21BF30B7D
:10172000E058FB4F15821482168213821282918335
:101730008083232B21F48BE49BE00E94ED0A20910F
:10174000F0043091F104C90101969093F104809363
:10175000F004C901880F991F880F991F880F991FDE
:10176000821B930B80589B4F089580E090E0089572
:10177000FC01738362831582148281E0868308955D
:10178000789484B5826084BD84B5816084BD85B55C
:10179000826085BD85B5816085BD80916E00816068
:1017A00080936E001092810080918100826080930E
:1017B0008100809181008160809381008091800010
:1017C0008160809380008091B10084608093B1003B
:1017D0008091B00081608093B00080917A00846035
:1017E00080937A0080917A00826080937A00809161
:1017F0007A00816080937A0080917A00806880937B
:101800007A001092C1000E941B0A0E94880A0E945E
:101810008A01FBCFE8EDF1E01382128288EE93E0BB
:10182000A0E0B0E084839583A683B78380E191E054
:101830009183808385EC90E09587848784EC90E0A9
:101840009787868780EC90E0918B808B81EC90E08D
:10185000938B828B82EC90E0958B848B86EC90E06E
:10186000978B868B118E128E138E148E089550587E
:10187000BB27AA270E944F0C0C94930D0E94850D44
:1018800038F00E948C0D20F039F49F3F19F426F4B3
:101890000C94820D0EF4E095E7FB0C947C0DE92F7F
:1018A0000E94A40D58F3BA176207730784079507BF
:1018B00020F079F4A6F50C94C60D0EF4E0950B2EED
:1018C000BA2FA02D0B01B90190010C01CA01A00192
:1018D0001124FF27591B99F0593F50F4503E68F1ED
:1018E0001A16F040A22F232F342F4427585FF3CF2E
:1018F000469537952795A795F0405395C9F77EF4FF
:101900001F16BA0B620B730B840BBAF09150A1F047
:10191000FF0FBB1F661F771F881FC2F70EC0BA0FCD
:10192000621F731F841F48F4879577956795B79555
:10193000F7959E3F08F0B0CF9395880F08F0992750
:10194000EE0F9795879508950E94580D08F481E051
:1019500008950E94BD0C0C94930D0E948C0D58F0BC
:101960000E94850D40F029F45F3F29F00C947C0D16
:1019700051110C94C70D0C94820D0E94A40D68F3B4
:101980009923B1F3552391F3951B550BBB27AA2738
:1019900062177307840738F09F5F5F4F220F331F72
:1019A000441FAA1FA9F335D00E2E3AF0E0E832D03A
:1019B00091505040E695001CCAF72BD0FE2F29D03D
:1019C000660F771F881FBB1F261737074807AB070F
:1019D000B0E809F0BB0B802DBF01FF2793585F4F84
:1019E0003AF09E3F510578F00C947C0D0C94C70D95
:1019F0005F3FE4F3983ED4F3869577956795B79566
:101A0000F7959F5FC9F7880F911D9695879597F970
:101A10000895E1E0660F771F881FBB1F62177307E9
:101A20008407BA0720F0621B730B840BBA0BEE1FFE
:101A300088F7E0950895E89409C097FB3EF49095E7
:101A40008095709561957F4F8F4F9F4F9923A9F097
:101A5000F92F96E9BB279395F69587957795679526
:101A6000B795F111F8CFFAF4BB0F11F460FF1BC06A
:101A70006F5F7F4F8F4F9F4F16C0882311F096E9FD
:101A800011C0772321F09EE8872F762F05C06623AB
:101A900071F096E8862F70E060E02AF09A95660F64
:101AA000771F881FDAF7880F9695879597F908951D
:101AB000990F0008550FAA0BE0E8FEEF161617065F
:101AC000E807F907C0F012161306E407F50798F0C7
:101AD000621B730B840B950B39F40A2661F0232BE0
:101AE000242B252B21F408950A2609F4A140A6955C
:101AF0008FEF811D811D089597F99F6780E870E041
:101B000060E008959FEF80EC089500240A94161673
:101B1000170618060906089500240A9412161306DB
:101B2000140605060895092E0394000C11F4882369
:101B300052F0BB0F40F4BF2B11F460FF04C06F5F85
:101B40007F4F8F4F9F4F089557FD9058440F551F5B
:101B500059F05F3F71F04795880F97FB991F61F02F
:101B60009F3F79F087950895121613061406551FA6
:101B7000F2CF4695F1DF08C0161617061806991F12
:101B8000F1CF86957105610508940895E894BB2707
:101B900066277727CB0197F908950E94580D08F41E
:101BA0008FEF08950E94E50D0C94930D0E94850D12
:101BB00038F00E948C0D20F0952311F00C947C0DD0
:101BC0000C94820D11240C94C70D0E94A40D70F387
:101BD000959FC1F3950F50E0551F629FF001729FD2
:101BE000BB27F00DB11D639FAA27F00DB11DAA1FE1
:101BF000649F6627B00DA11D661F829F2227B00D2E
:101C0000A11D621F739FB00DA11D621F839FA00DB8
:101C1000611D221F749F3327A00D611D231F849F08
:101C2000600D211D822F762F6A2F11249F5750405F
:101C30009AF0F1F088234AF0EE0FFF1FBB1F661FDA
:101C4000771F881F91505040A9F79E3F510580F0A3
:101C50000C947C0D0C94C70D5F3FE4F3983ED4F3D5
:101C6000869577956795B795F795E7959F5FC1F747
:101C7000FE2B880F911D9695879597F90895A29F41
:101C8000B001B39FC001A39F700D811D1124911D50
:101C9000B29F700D811D1124911D0895EE0FFF1F3D
:101CA0000590F491E02D09940E94AC0D88F09F57A7
:101CB00098F0B92F9927B751B0F0E1F0660F771F70
:101CC000881F991F1AF0BA95C9F714C0B13091F066
:101CD0000E94C60DB1E008950C94C60D672F782FB1
:101CE0008827B85F39F0B93FCCF38695779567952B
:101CF000B395D9F73EF490958095709561957F4F97
:101D00008F4F9F4F08950E94580D880B990B08958F
:101D1000A1E21A2EAA1BBB1BFD010DC0AA1FBB1FEF
:101D2000EE1FFF1FA217B307E407F50720F0A21B61
:101D3000B30BE40BF50B661F771F881F991F1A94CE
:101D400069F760957095809590959B01AC01BD01F8
:101D5000CF01089581E090E0F8940C94AF0EF894D0
:021D6000FFCFB3
:101D62003200E60068011702F802FFFF00000000DF
:101D72001B018800B2006801E300C100D5002020E9
:101D8200202020202020202020206B6579626F6196
:101D9200726420616463200000000000640888000F
:101DA200B806BB0620202020202020202020202032
:101DB20020202020004D41582E2043B020004D49C4
:101DC2004E2E2043B0200041435455414C2043B095
:101DD200200050524F4D2E2043B020006C6C65679E
:101DE200756520616C20646F776E5F6B65795269EF
:101DF200676874005345323031392053656E2E5472
:101E0200656D702E004573746F7920656E20656C68
:101E12002063616C6C6261636B2064656C20736526
:101E22006E736F72203A29000D0A006E616E0069AE
:081E32006E66006F7666000089
:00000001FF
