:100000000C945E000C9486000C9486000C94860080
:100010000C9486000C9486000C9486000C94860048
:100020000C9486000C9486000C9486000C94860038
:100030000C9486000C9486000C9486000C94860028
:100040000C9488020C9486000C9445030C941F03B6
:100050000C9486000C9443040C9486000C94860047
:100060000C9486000C9486000000000024002700F9
:100070002A0000000000250028002B0004040404CE
:100080000404040402020202020203030303030342
:10009000010204081020408001020408102001021F
:1000A00004081020000000080002010000030407FB
:1000B00000000000000000009807F90711241FBE8F
:1000C000CFEFD8E0DEBFCDBF11E0A0E0B1E0EAEABB
:1000D000F0E102C005900D92A43FB107D9F722E0EC
:1000E000A4EFB1E001C01D92AF3EB207E1F710E00E
:1000F000CEE5D0E004C02197FE010E942608CC3551
:10010000D107C9F70E94AF070C9453080C94000064
:10011000FC01538D448D252F30E0842F90E0821B0D
:10012000930B541710F0CF96089501970895FC0192
:10013000918D828D981761F0828DDF01A80FB11D1E
:100140005D968C91928D9F5F9F73928F90E0089542
:100150008FEF9FEF0895FC01918D828D981731F0FC
:10016000828DE80FF11D858D90E008958FEF9FEF50
:100170000895FC01918D228D892F90E0805C9F4F26
:10018000821B91098F7399270895FC01848DDF01EB
:10019000A80FB11DA35ABF4F2C91848D90E00196FA
:1001A0008F739927848FA689B7892C93A089B189E9
:1001B0008C91837080648C93938D848D981306C08A
:1001C0000288F389E02D80818F7D80830895EF92EE
:1001D000FF920F931F93CF93DF93EC0181E0888F01
:1001E0009B8D8C8D981305C0E889F989808185FDE8
:1001F00026C0F62E0B8D10E00F5F1F4F0F731127D7
:10020000E02E8C8DE8120CC00FB607FCFACFE889FF
:10021000F989808185FFF5CFCE010E94C500F1CF1D
:100220008B8DFE01E80FF11DE35AFF4FF0829FB75F
:10023000F8940B8FEA89FB89808180620AC09FB79E
:10024000F894EE89FF896083E889F9898081837059
:10025000806480839FBF81E090E0DF91CF911F9108
:100260000F91FF90EF900895CF93DF93EC01888D6D
:100270008823C9F0EA89FB89808185FD05C0A889AA
:10028000B9898C9186FD0FC00FB607FCF5CF808130
:1002900085FFF2CFA889B9898C9185FFEDCFCE017A
:1002A0000E94C500E7CFDF91CF91089584EF91E0E0
:1002B0000E94B90021E0892B09F420E0822F0895E3
:1002C00080E090E0892B29F00E94560181110C9466
:1002D00000000895CF92DF92EF92FF920F931F9349
:1002E000CF93DF936C017A018B01C0E0D0E0CE1593
:1002F000DF0581F0D8016D918D01D601ED91FC9162
:100300000190F081E02DC6010995892B11F021960D
:10031000EECF7E01C701DF91CF911F910F91FF902A
:10032000EF90DF90CF9008956115710579F0FB0192
:1003300001900020E9F73197AF01461B570BDC0114
:10034000ED91FC910280F381E02D099480E090E032
:1003500008958F929F92AF92BF92EF92FF920F9368
:100360001F93CF93DF93CDB7DEB7A1970FB6F89465
:10037000DEBF0FBECDBF7C01FA01CB0119A2223036
:1003800008F42AE08E010F5D1F4F822E912CA12CC4
:10039000B12CBF01A50194010E942C08F901CA01EA
:1003A000015011096A3014F4605D01C0695CD80124
:1003B0006C93232B242B252B61F7B801C7010E94D6
:1003C0009401A1960FB6F894DEBF0FBECDBFDF91AA
:1003D000CF911F910F91FF90EF90BF90AF909F90A2
:1003E0008F9008950E944E0890E0FC01EC55FF4F5D
:1003F0002491FC01E057FF4F3491FC01E458FF4F7A
:10040000E491EE2309F43CC0222339F1233091F02A
:1004100038F42130A9F0223001F584B58F7D12C067
:10042000273091F02830A1F02430B9F48091800079
:100430008F7D03C0809180008F77809380000DC0F6
:1004400084B58F7784BD09C08091B0008F7703C0D9
:100450008091B0008F7D8093B000F0E0EE0FFF1F21
:10046000EE58FF4FA591B4919FB7F894611104C065
:100470008C913095382302C0EC913E2B3C939FBF6A
:100480000895CF93DF9390E0FC01E057FF4F249154
:10049000FC01E458FF4F8491882361F190E0880FBC
:1004A000991FFC01E859FF4FC591D491FC01EE580A
:1004B000FF4FA591B491611109C09FB7F89488814D
:1004C000209582238883EC912E230BC0623061F447
:1004D0009FB7F8948881322F309583238883EC91DD
:1004E0002E2B2C939FBF06C08FB7F894E8812E2B3C
:1004F00028838FBFDF91CF9108958230910538F026
:10050000880F991F880F991F05970197F1F7089594
:100510001F920F920FB60F9211242F933F938F9338
:100520009F93AF93BF938091960290919702A09171
:100530009802B09199023091950223E0230F2D3754
:1005400020F40196A11DB11D05C026E8230F0296D7
:10055000A11DB11D2093950280939602909397025E
:10056000A0939802B0939902809191029091920287
:10057000A0919302B09194020196A11DB11D8093A8
:10058000910290939202A0939302B0939402BF9130
:10059000AF919F918F913F912F910F900FBE0F9030
:1005A0001F901895CF92DF92EF92FF920F931F93B7
:1005B000CF93DF93EC014115510539F4E881F981BE
:1005C0000190F081E02D099527C06B01770FEE08AF
:1005D000FF084A305105D1F4F7FE16C0E881F981D1
:1005E0000190F081E02D6DE209958C01442755279B
:1005F000BA014C195D096E097F092AE0CE010E94FB
:10060000A901080F191F09C02AE001C0242FB70152
:10061000A601CE010E94A9018C0160EF71E0CE011C
:100620000E949401800F911FDF91CF911F910F9134
:10063000FF90EF90DF90CF9008950C9494011F925B
:100640000F920FB60F9211242F933F934F935F9306
:100650006F937F938F939F93AF93BF93EF93FF938A
:1006600084EF91E00E94C500FF91EF91BF91AF919F
:100670009F918F917F916F915F914F913F912F91BA
:100680000F900FBE0F901F9018951F920F920FB6EC
:100690000F9211242F938F939F93EF93FF93E091E9
:1006A0000402F09105028081E0910A02F0910B02B0
:1006B00082FD12C0908180910D028F5F8F73209117
:1006C0000E02821751F0E0910D02F0E0EC50FE4F67
:1006D000958F80930D0201C08081FF91EF919F91D2
:1006E0008F912F910F900FBE0F901F9018952FB7DD
:1006F000F89480919A0290919B02892B19F42223FD
:100700009CF408C080919A0290919B02892B91F0F1
:10071000222384F080919A0290919B0201969093FB
:100720009B0280939A02089580919A0290919B0275
:10073000892B81F708952FB7F89480919A029091B0
:100740009B02181619068CF480919A0290919B02D4
:10075000019790939B0280939A0280919A029091C4
:100760009B02892B29F47894089522230CF4789421
:100770000895CF93DF938091B2029091B3022091BC
:100780000001309101018217930774F0E2E0F1E07B
:10079000C1E0D0E0219131918091B2029091B302F9
:1007A000821793076CF54AC080910A0190910B0162
:1007B000892B09F44BC0C0E0D0E0D0930B01C0936B
:1007C0000A016091B2027091B3024AE050E084EFF6
:1007D00091E00E94D2024AE050E0BE0184EF91E035
:1007E0000E94D202FE01EE0FFF1FEE0FFF1FE45624
:1007F000FD4F0280F381E02D099525973CF104C05F
:100800002196C530D10531F680910A0190910B01F6
:100810008F3F2FEF9207D1F0880F991F880F991FF4
:10082000FC01E456FD4F0190F081E02D09958FEF1A
:100830009FEF90930B0180930A0108C080910A01F9
:1008400090910B018C179D0709F0B7CFDF91CF91E5
:1008500008956530710548F4660F771F660F771F9E
:10086000FB01E456FD4F9183808308956530710547
:1008700048F4660F771F660F771FFB01E456FD4FA4
:100880009383828308951F920F920FB60F921124C3
:100890002F933F934F935F936F937F938F939F9388
:1008A000AF93BF93EF93FF938091B0029091B10209
:1008B00001969093B1028093B002C39784F0809127
:1008C0007800909179009093B3028093B20289EB03
:1008D00093E00E94D7041092B1021092B002FF91EF
:1008E000EF91BF91AF919F918F917F916F915F91A8
:1008F0004F913F912F910F900FBE0F901F90189521
:10090000ECE7F0E080818F7D80838081806480834C
:100910008081807F8083EAE7F0E080818068808347
:10092000808180628083ABE7B0E08C91887F8C937C
:1009300080818660808380818860808378948081D4
:100940008064808308951092B6021092B5021092CE
:10095000B40281E008950E9477038091B402882355
:1009600011F10E949B03E091B602F0E0EE0FFF1F31
:10097000E954FD4F0190F081E02D09950E94770325
:100980008091B60290E001968F709078992324F4BC
:100990000197806F9F6F01968093B6028091B40299
:1009A00081508093B4020E949B0381E00895CF930D
:1009B000DF93EC010E9477032091B4022031D0F440
:1009C0008091B50290E0FC01EE0FFF1FE954FD4F4E
:1009D000D183C08301968F709078992324F4019776
:1009E000806F9F6F01968093B5022F5F2093B402B2
:1009F000C1E001C0C0E00E949B038C2FDF91CF912A
:100A0000089580E090E008950895CF93DF93EC017E
:100A100060E08E810E94F40181E090E00E947D02FE
:100A200061E08E810E94F40181E090E00E947D02ED
:100A300060E08E810E94F40184E690E00E947D02D5
:100A4000DF91CF910895CF92DF92EF92FF920F93B3
:100A50001F93CF93DF936C018C01095F1F4FC0E0A0
:100A6000D0E0E62EF12CB7010C2E02C075956795EB
:100A70000A94E2F76170F80181918F010E94F401FC
:100A80002196C430D10579F7C6010E940505DF9192
:100A9000CF911F910F91FF90EF90DF90CF9008952D
:100AA000CF92DF92EF92FF920F931F93CF93DF933A
:100AB0006C018C01095F1F4FC0E0D0E0E62EF12CE5
:100AC000B7010C2E02C0759567950A94E2F7617024
:100AD000F80181918F010E94F4012196C830D1055F
:100AE00079F7C6010E940505DF91CF911F910F9103
:100AF000FF90EF90DF90CF9008951F93CF93DF93F7
:100B0000EC01162F642F8C810E94F4018D818F3FA0
:100B100019F060E00E94F4018F8584FF05C0612F09
:100B2000CE010E94500511C0612F70E07595679548
:100B3000759567957595679575956795CE010E9432
:100B40002305612FCE010E942305DF91CF911F91D4
:100B5000089540E061E00E947D0580ED97E00E94ED
:100B60007D020895FC01443008F043E08389481772
:100B700010F04FEF480FDF01A40FB11D54969C9168
:100B8000690F606840E0CF010E947D050895FC0177
:100B90006089262F2460208B6C6040E00E947D05D8
:100BA0000895AF92BF92CF92DF92EF92FF920F9390
:100BB0001F93CF93DF93EC01423018F08F8588604C
:100BC0008F874B8B1C8A80E48D8B6E8B70E0605C12
:100BD0007F4F6F8B222329F0413019F48F85846079
:100BE0008F8761E08C810E9441028D818F3F19F0D7
:100BF00061E00E94410261E08E810E9441027E011B
:100C000087E0E80EF11C00E010E06894AA24A3F845
:100C1000B12C6894CC24C2F8D12C8F8584FD03C0FC
:100C20008C2D9D2D02C08A2D9B2D081719074CF481
:100C300061E0F70181917F010E9441020F5F1F4F28
:100C4000ECCF80E593EC0E947D0260E08C810E94F5
:100C5000F40160E08E810E94F4018D818F3F19F0D4
:100C600060E00E94F4016F8564FD1DC063E0CE0169
:100C70000E94230584E991E10E947D0263E0CE0198
:100C80000E94230584E991E10E947D0263E0CE0188
:100C90000E94230586E990E00E947D0262E0CE0179
:100CA0000E94230519C0606240E0CE010E947D05CC
:100CB00084E991E10E947D026F85606240E0CE018F
:100CC0000E947D0586E990E00E947D026F8560624A
:100CD00040E0CE010E947D056F85606240E0CE015C
:100CE0000E947D0584E0888BCE010E94C705CE015D
:100CF0000E94A90582E0898B40E066E0CE010E9457
:100D00007D05DF91CF911F910F91FF90EF90DF90C4
:100D1000CF90BF90AF900895CF92EF920F93FC01C8
:100D20001382128282E291E09183808364838FEF49
:100D30008583468327830087E186C28613861486CF
:100D400015861686178620E041E060E1CF010E94FB
:100D5000D1050F91EF90CF90089541E00E947D055D
:100D600081E090E0089541E060E087ED92E00E942C
:100D7000B2056AE271E087ED92E00E941D030895DA
:100D800041E060E087ED92E00E94B2056BE371E024
:100D900087ED92E00E941D03089541E060E087ED39
:100DA00092E00E94B2056CE471E087ED92E00E944F
:100DB0001D03089541E060E087ED92E00E94B205D6
:100DC0006DE571E087ED92E00E941D03089541E01A
:100DD00060E087ED92E00E94B2056EE671E087ED7B
:100DE00092E00E941D03089541E060E087ED92E0EB
:100DF0000E94B2056FE771E087ED92E00E941D034B
:100E0000089541E060E087ED92E00E94B20560E95C
:100E100071E087ED92E00E941D03089541E060E0DB
:100E200087ED92E00E94B20561EA71E087ED92E001
:100E30000E941D03089541E060E087ED92E00E946A
:100E4000B20562EB71E087ED92E00E941D03089508
:100E500041E060E087ED92E00E94B20563EC71E052
:100E600087ED92E00E941D03089520E042E060E1DA
:100E700087ED92E00E94D1050E9480040E94A304A5
:100E800061E070E083EB96E00E94290461E070E08D
:100E900080EC96E00E94360462E070E08DEC96E013
:100EA0000E94290462E070E08AED96E00E94360418
:100EB00063E070E081E097E00E94290463E070E065
:100EC0008EE097E00E94360460E070E087EE96E0E6
:100ED0000E94290460E070E084EF96E00E943604EE
:100EE00064E070E08BE197E00E94290464E070E028
:100EF00088E297E00E94360440E060E087ED92E0EF
:100F00000E94B20564ED71E087ED92E00E941D033E
:100F100041E060E087ED92E00E94B20561EE71E091
:100F200087ED92E00E941D0308950E94AB0408958E
:100F3000CF92EF920F930F2EF7E0CF2EF02D0F2EC2
:100F4000F6E0EF2EF02D05E024E049E068E087EDC3
:100F500092E00E948C060F91EF90CF9008957894C4
:100F600084B5826084BD84B5816084BD85B58260AE
:100F700085BD85B5816085BD80916E00816080935F
:100F80006E001092810080918100826080938100C8
:100F900080918100816080938100809180008160D8
:100FA000809380008091B10084608093B100809133
:100FB000B00081608093B00080917A00846080935B
:100FC0007A0080917A00826080937A0080917A0022
:100FD000816080937A0080917A00806880937A00A3
:100FE0001092C1000E9435070E9495070E9460017F
:100FF000FBCFE4EFF1E01382128288EE93E0A0E0F1
:10100000B0E084839583A683B78380E191E09183E8
:10101000808385EC90E09587848784EC90E09787C7
:10102000868780EC90E0918B808B81EC90E0938BB5
:10103000828B82EC90E0958B848B86EC90E0978B92
:10104000868B118E128E138E148E0895EE0FFF1F55
:101050000590F491E02D0994A1E21A2EAA1BBB1B66
:10106000FD010DC0AA1FBB1FEE1FFF1FA217B30774
:10107000E407F50720F0A21BB30BE40BF50B661F8A
:10108000771F881F991F1A9469F76095709580954E
:1010900090959B01AC01BD01CF01089581E090E0E6
:0A10A000F8940C945308F894FFCF65
:1010AA003200960068011702F802FFFF00000000F4
:1010BA00E7006A0188003401B9009700AB0000001C
:1010CA000000AD066A01010504055550204B6579FB
:1010DA005550202020202020202000444F574E2009
:1010EA004B65795550202020202020005550204B58
:1010FA006579446F776E20202020202000444F57C6
:10110A004E204B6579446F776E2020202000555081
:10111A00204B65795269676874202020202000449A
:10112A004F574E204B65795269676874202020001A
:10113A005550204B65794C6566742020202020206C
:10114A0000444F574E204B65794C65667420202029
:10115A0020005550204B657953656C6563742020D7
:10116A00202000444F574E204B657953656C6563C8
:10117A00742020004B657920506164205465737493
:10118A0000536973742E456D622E20323031390056
:04119A000D0A00003A
:00000001FF
