S013000041637469766964616420312E7372656337
S11300000C945D000C9485000C9485000C94850080
S11300100C9485000C9485000C9485000C94850048
S11300200C9485000C9485000C9485000C94850038
S11300300C9485000C9485000C9485000C94850028
S11300400C94F0010C9485000C9485000C948500AC
S11300500C9485000C9485000C9485000C94850008
S11300600C9485000C9485000000000024002700F7
S11300702A0000000000250028002B0004040404CA
S1130080040404040202020202020303030303033E
S1130090010204081020408001020408102001021B
S11300A004081020000000080002010000030407F7
S11300B00000000000000000D40411241FBECFEF94
S11300C0D8E0DEBFCDBF11E0A0E0B1E0E2E8FAE0A5
S11300D002C005900D92AE39B107D9F721E0AEE91F
S11300E0B1E001C01D92A13CB207E1F710E0CDE5FB
S11300F0D0E004C02197FE010E943905CC35D10718
S1130100C9F70E94EB040C943F050C9400003FB720
S1130110F8948091A3019091A401A091A501B091BC
S1130120A60126B5A89B05C02F3F19F00196A11D75
S1130130B11D3FBFBA2FA92F982F8827820F911D79
S1130140A11DB11DBC01CD0142E0660F771F881FC0
S1130150991F4A95D1F7089590E0FC01EC55FF4FA3
S11301602491FC01E057FF4F3491FC01E458FF4F08
S1130170E491EE2309F43CC0222339F1233091F0B9
S113018038F42130A9F0223001F584B58F7D12C0F6
S1130190273091F02830A1F02430B9F48091800008
S11301A08F7D03C0809180008F77809380000DC085
S11301B084B58F7784BD09C08091B0008F7703C068
S11301C08091B0008F7D8093B000F0E0EE0FFF1FB0
S11301D0EE58FF4FA591B4919FB7F894611104C0F4
S11301E08C913095382302C0EC913E2B3C939FBFF9
S11301F00895CF93DF9390E0FC01E057FF4F2491E3
S1130200FC01E458FF4F8491882361F190E0880F4A
S1130210991FFC01E859FF4FC591D491FC01EE5898
S1130220FF4FA591B491611109C09FB7F8948881DB
S1130230209582238883EC912E230BC0623061F4D5
S11302409FB7F8948881322F309583238883EC916B
S11302502E2B2C939FBF06C08FB7F894E8812E2BCA
S113026028838FBFDF91CF9108951F93CF93DF939E
S1130270182FEB0161E00E94F900209711F460E06F
S113028004C0CF3FD10539F461E0812FDF91CF91D4
S11302901F910C94AC00E12FF0E0EC55FF4FE4917A
S11302A0E330F9F048F4E130B9F0E230A1F584B577
S11302B0806284BDC8BD34C0E730E9F0E83019F18C
S11302C0E43049F580918000806280938000D0936F
S11302D08B00C0938A0024C084B5806884BDC7BDE8
S11302E01FC080918000806880938000D093890033
S11302F0C093880015C08091B00080688093B000DE
S1130300C093B3000DC08091B00080628093B000B0
S1130310C093B40005C0C038D1050CF0B5CFAFCF41
S1130320DF91CF911F9108958E3008F08E50877021
S1130330806480937C0080917A00806480937A004A
S113034080917A0086FDFCCF80917800209179001D
S113035090E0922B08958230910538F0880F991F10
S1130360880F991F05970197F1F708958F929F922F
S1130370AF92BF92CF92DF92EF92FF926B017C011A
S11303800E9487004B015C01C114D104E104F10413
S1130390F1F00E948700DC01CB0188199909AA09B0
S11303A0BB09883E9340A105B10570F321E0C21A50
S11303B0D108E108F10888EE880E83E0981EA11C9C
S11303C0B11CC114D104E104F10419F7DDCFFF908D
S11303D0EF90DF90CF90BF90AF909F908F90089553
S11303E01F920F920FB60F9211242F933F938F9366
S11303F09F93AF93BF9380919F019091A001A0918F
S1130400A101B091A20130919E0123E0230F2D3769
S113041020F40196A11DB11D05C026E8230F029604
S1130420A11DB11D20939E0180939F019093A00173
S1130430A093A101B093A2018091A3019091A40182
S1130440A091A501B091A6010196A11DB11D8093B3
S1130450A3019093A401A093A501B093A601BF9119
S1130460AF919F918F913F912F910F900FBE0F905D
S11304701F9018956115710579F0FB01019000201A
S1130480E9F73197AF01461B570BDC01ED91FC9165
S11304900280F381E02D099480E090E00895CF92EA
S11304A0DF92EF92FF920F931F93CF93DF936C0130
S11304B07A018B01C0E0D0E0CE15DF0581F0D801D0
S11304C06D918D01D601ED91FC910190F081E02DAB
S11304D0C6010995892B11F02196EECF7E01C70143
S11304E0DF91CF911F910F91FF90EF90DF90CF900C
S11304F0089580E090E008950895CF93DF93EC0190
S113050060E08E810E94AC0081E090E00E94AB012B
S113051061E08E810E94AC0081E090E00E94AB011A
S113052060E08E810E94AC0084E690E00E94AB0102
S1130530DF91CF910895CF92DF92EF92FF920F93C4
S11305401F93CF93DF936C018C01095F1F4FC0E0B1
S1130550D0E0E62EF12CB7010C2E02C075956795FC
S11305600A94E2F76170F80181918F010E94AC0056
S11305702196C430D10579F7C6010E947D02DF912E
S1130580CF911F910F91FF90EF90DF90CF9008953E
S1130590CF92DF92EF92FF920F931F93CF93DF934B
S11305A06C018C01095F1F4FC0E0D0E0E62EF12CF6
S11305B0B7010C2E02C0759567950A94E2F7617035
S11305C0F80181918F010E94AC002196C830D105B9
S11305D079F7C6010E947D02DF91CF911F910F919F
S11305E0FF90EF90DF90CF9008951F93CF93DF9308
S11305F0EC01162F642F8C810E94AC008D818F3FFB
S113060019F060E00E94AC008F8584FF05C0612F63
S1130610CE010E94C80211C0612F70E075956795E4
S1130620759567957595679575956795CE010E9443
S11306309B02612FCE010E949B02DF91CF911F91FB
S1130640089540E061E00E94F50280ED97E00E9489
S1130650AB010895FC01443008F043E08389481756
S113066010F04FEF480FDF01A40FB11D54969C9179
S1130670690F606840E0CF010E94F5020895FC0113
S11306806089262F2460208B6C6040E00E94F50274
S11306900895AF92BF92CF92DF92EF92FF920F93A1
S11306A01F93CF93DF93EC01423018F08F8588605D
S11306B08F874B8B1C8A80E48D8B6E8B70E0605C23
S11306C07F4F6F8B222329F0413019F48F8584608A
S11306D08F8761E08C810E94F9008D818F3F19F032
S11306E061E00E94F90061E08E810E94F9007E01C0
S11306F087E0E80EF11C00E010E06894AA24A3F857
S1130700B12C6894CC24C2F8D12C8F8584FD03C00D
S11307108C2D9D2D02C08A2D9B2D081719074CF492
S113072061E0F70181917F010E94F9000F5F1F4F83
S1130730ECCF80E593EC0E94AB0160E08C810E94D9
S1130740AC0060E08E810E94AC008D818F3F19F077
S113075060E00E94AC006F8564FD1DC063E0CE01C3
S11307600E949B0284E991E10E94AB0163E0CE0107
S11307700E949B0284E991E10E94AB0163E0CE01F7
S11307800E949B0286E990E00E94AB0162E0CE01E8
S11307900E949B0219C0606240E0CE010E94F502F3
S11307A084E991E10E94AB016F85606240E0CE0173
S11307B00E94F50286E990E00E94AB016F856062B9
S11307C040E0CE010E94F5026F85606240E0CE01F8
S11307D00E94F50284E0888BCE010E943F03CE0183
S11307E00E94210382E0898B40E066E0CE010E94F2
S11307F0F502DF91CF911F910F91FF90EF90DF9061
S1130800CF90BF90AF900895CF92EF920F93FC01D9
S11308101382128288E691E09183808364838FEF50
S11308208583468327830087E186C28613861486E0
S113083015861686178620E041E060E1CF010E940C
S113084049030F91EF90CF90089541E00E94F50283
S113085081E090E00895BC014091040150E041150D
S11308605105C1F08091050190910601681779073F
S1130870A0F0E7E0F1E080E090E005C02191319143
S11308806217730760F0019684179507B9F78FEF25
S11308909FEF08958FEF9FEF089580E090E0089513
S11308A061E08AE00E94F90020E042E060E189EA28
S11308B091E00E94490364E670E08AE00E943501F9
S11308C040E060E089EA91E00E942A0360E771E079
S11308D089EA91E00E943A0241E060E089EA91E00D
S11308E00E942A036DE771E089EA91E00E943A02CE
S11308F060ED77E080E090E00E94B60141E060E0C6
S113090089EA91E00E942A036CE871E089EA91E0A7
S11309100E943A02089580E00E9494019093A801F5
S11309208093A7010E942B049093030180930201FA
S1130930209100013091010182179307A1F162E334
S113094070E080E090E00E94B60180E00E94940193
S11309509093A8018093A7010E942B049093030114
S113096080930201209100013091010182179307C5
S1130970D1F0909301018093000141E060E089EAA5
S113098091E00E942A03809102019091030121E1E8
S1130990289FB001299F700D1124615F7E4F89EA61
S11309A091E00E943A020895CF92EF920F930F2E96
S11309B0F7E0CF2EF02D0F2EF6E0EF2EF02D05E010
S11309C024E049E068E089EA91E00E9404040F9180
S11309D0EF90CF900895789484B5826084BD84B5F7
S11309E0816084BD85B5826085BD85B5816085BD26
S11309F080916E00816080936E00109281008091DE
S1130A008100826080938100809181008160809365
S1130A108100809180008160809380008091B1008A
S1130A2084608093B1008091B00081608093B000B5
S1130A3080917A00846080937A0080917A00826049
S1130A4080937A0080917A00816080937A0080910B
S1130A507A00806880937A001092C1000E9450044A
S1130A60C0E0D0E00E948B042097E1F30E940000D4
S1130A70F9CFEE0FFF1F0590F491E02D0994F8943F
S1050A80FFCFA2
S1130A82FFFFFFFF051E00960068011702F802200F
S1130A925269676874204B65793A20204F4B2000D5
S1130AA2205570204B65793A20202020204F4B207E
S1130AB20020446F776E204B65793A2020204F4BFB
S1130AC22000204C656674204B65793A2020204F23
S1130AD24B20002053656C656374204B65793A2082
S1130AE24F4B20000000000025044F0279027C02D3
S1130AF24B657920506164205465737400536973A3
S1130B02742E456D622E2032303139005072657375
S1110B127320616E79206B65792E2E2E000003
S9030000FC
