S013000041637469766964616420332E7372656335
S11300000C945D000C9485000C9485000C94850080
S11300100C9485000C9485000C9485000C94850048
S11300200C9485000C9460080C9485000C94850055
S11300300C9485000C9485000C9485000C94850028
S11300400C94D8010C9485000C9485000C948500C4
S11300500C9485000C946C030C9485000C9485001E
S11300600C9485000C9485000000000024002700F7
S11300702A0000000000250028002B0004040404CA
S1130080040404040202020202020303030303033E
S1130090010204081020408001020408102001021B
S11300A004081020000000080002010000030407F7
S11300B00000000000000000B50811241FBECFEFAF
S11300C0D8E0DEBFCDBF11E0A0E0B1E0E6EAF2E1A6
S11300D002C005900D92A438B107D9F722E0A4E834
S11300E0B1E001C01D92A630B207E1F710E0CDE502
S11300F0D0E004C02197FE010E942909CC35D10724
S1130100C9F70E94CC080C9451090C9400006115A5
S1130110710579F0FB0101900020E9F73197AF01F7
S1130120461B570BDC01ED91FC910280F381E02D1D
S1130130099480E090E008958F929F92AF92BF92CD
S1130140EF92FF920F931F93CF93DF93CDB7DEB758
S1130150A1970FB6F894DEBF0FBECDBF7C01FA01A4
S1130160CB0119A2223008F42AE08E010F5D1F4F43
S1130170822E912CA12CB12CBF01A50194010E94C7
S11301802F09F901CA01015011096A3014F4605DA4
S113019001C0695CD8016C93232B242B252B61F7B8
S11301A0B801C7010E948700A1960FB6F894DEBF7C
S11301B00FBECDBFDF91CF911F910F91FF90EF90B4
S11301C0BF90AF909F908F90089590E0FC01EC5504
S11301D0FF4F2491FC01E057FF4F3491FC01E45898
S11301E0FF4FE491EE2309F43CC0222339F123307C
S11301F091F038F42130A9F0223001F584B58F7DD7
S113020012C0273091F02830A1F02430B9F4809145
S113021080008F7D03C0809180008F778093800061
S11302200DC084B58F7784BD09C08091B0008F77ED
S113023003C08091B0008F7D8093B000F0E0EE0F9A
S1130240FF1FEE58FF4FA591B4919FB7F894611129
S113025004C08C913095382302C0EC913E2B3C9322
S11302609FBF0895CF93DF9390E0FC01E057FF4FC9
S11302702491FC01E458FF4F8491882361F190E0BC
S1130280880F991FFC01E859FF4FC591D491FC01D7
S1130290EE58FF4FA591B491611109C09FB7F8942E
S11302A08881209582238883EC912E230BC06230B1
S11302B061F49FB7F8948881322F30958323888323
S11302C0EC912E2B2C939FBF06C08FB7F894E88136
S11302D02E2B28838FBFDF91CF9108951F93CF9347
S11302E0DF93182FEB0161E00E943201209711F493
S11302F060E004C0CF3FD10539F461E0812FDF9184
S1130300CF911F910C94E500E12FF0E0EC55FF4FE5
S1130310E491E330F9F048F4E130B9F0E230A1F5CA
S113032084B5806284BDC8BD34C0E730E9F0E830EC
S113033019F1E43049F58091800080628093800057
S1130340D0938B00C0938A0024C084B5806884BD98
S1130350C7BD1FC080918000806880938000D093C7
S11303608900C093880015C08091B0008068809394
S1130370B000C093B3000DC08091B0008062809340
S1130380B000C093B40005C0C038D1050CF0B5CF9F
S1130390AFCFDF91CF911F9108958230910538F04E
S11303A0880F991F880F991F05970197F1F70895F2
S11303B01F920F920FB60F9211242F933F938F9396
S11303C09F93AF93BF938091890190918A01A091EB
S11303D08B01B0918C013091880123E0230F2D37DC
S11303E020F40196A11DB11D05C026E8230F029635
S11303F0A11DB11D209388018093890190938A01E6
S1130400A0938B01B0938C0180918401909185011C
S1130410A0918601B09187010196A11DB11D809321
S1130420840190938501A0938601B0938701BF91C5
S1130430AF919F918F913F912F910F900FBE0F908D
S11304401F901895CF92DF92EF92FF920F931F9314
S1130450CF93DF934115510579F4DC01ED91FC91C3
S11304600190F081E02DDF91CF911F910F91FF90CA
S1130470EF90DF90CF9009946B01770FEE08FF089F
S11304804A30510519F5F7FE1FC0EC01E881F981E6
S11304900190F081E02D6DE209958C0144275527E8
S11304A0BA014C195D096E097F092AE0CE010E9448
S11304B09C00800F911FDF91CF911F910F91FF90AE
S11304C0EF90DF90CF9008952AE001C0242FB70168
S11304D0A601DF91CF911F910F91FF90EF90DF90D4
S11304E0CF900C949C000C948700CF92DF92EF92F3
S11304F0FF920F931F93CF93DF936C017A018B01CB
S1130500C0E0D0E0CE15DF0581F0D8016D918D01FA
S1130510D601ED91FC910190F081E02DC601099581
S1130520892B11F02196EECF7E01C701DF91CF9187
S11305301F910F91FF90EF90DF90CF9008952FB708
S1130540F89480918D0190918E01892B19F42223C6
S11305509CF408C080918D0190918E01892B91F0BB
S1130560222384F080918D0190918E0101969093C5
S11305708E0180938D01089580918D0190918E015B
S1130580892B81F708952FB7F89480918D0190916C
S11305908E01181619068CF480918D0190918E01AC
S11305A0019790938E0180938D0180918D0190919C
S11305B08E01892B29F47894089522230CF47894DD
S11305C00895CF93DF938091A3019091A401C297E2
S11305D000F18091A3019091A401863E910508F455
S11305E04CC08091A3019091A4018836914008F4F5
S11305F047C08091A3019091A4018731924008F4EF
S113060042C08091A3019091A401883F9240D8F404
S11306103DC08091000190910101892B09F43FC0F4
S1130620C0E0D0E0D0930101C0930001FE01EE0FC1
S1130630FF1FEE0FFF1FE157FE4F0280F381E02DF5
S11306400995259764F180910001909101018F3FF4
S11306502FEF920721F1880F991F880F991FFC0132
S1130660E157FE4F0190F081E02D09958FEF9FEF48
S1130670909301018093000112C0C1E0D0E008C052
S1130680C2E0D0E005C0C3E0D0E002C0C4E0D0E0E6
S11306908091000190910101C817D90719F6DF91E3
S11306A0CF9108956530710548F4660F771F660F82
S11306B0771FFB01E157FE4F9183808308956530D6
S11306C0710548F4660F771F660F771FFB01E1572A
S11306D0FE4F9383828308951F920F920FB60F9259
S11306E011242F933F934F935F936F937F938F9333
S11306F09F93AF93BF93EF93FF938091A5018F5F77
S11307008093A501833380F0809178002091790053
S113071090E0922B9093A4018093A30181EE92E048
S11307200E94FC031092A501FF91EF91BF91AF913C
S11307309F918F917F916F915F914F913F912F91F5
S11307400F900FBE0F901F901895ECE7F0E080819A
S11307508F7D80838081806480838081807F80839B
S1130760EAE7F0E080818068808380818062808312
S1130770ABE7B0E08C91887F8C9380818660808326
S113078080818860808378948081806480830895E8
S11307901092A8011092A7011092A60181E0089579
S11307A00E949F028091A601882311F10E94C30236
S11307B0E091A801F0E0EE0FFF1FE755FE4F019016
S11307C0F081E02D09950E949F028091A80190E09C
S11307D001968F709078992324F40197806F9F6F0E
S11307E001968093A8018091A60181508093A6016F
S11307F00E94C30281E00895CF93DF93EC010E942D
S11308009F022091A6012031D0F48091A70190E0AD
S1130810FC01EE0FFF1FE755FE4FD183C083019605
S11308208F709078992324F40197806F9F6F0196BD
S11308308093A7012F5F2093A601C1E001C0C0E00F
S11308400E94C3028C2FDF91CF91089580E090E045
S113085008950895CF93DF93EC0160E08E810E94A8
S1130860E50081E090E00E94CD0161E08E810E946C
S1130870E50081E090E00E94CD0160E08E810E945D
S1130880E50084E690E00E94CD01DF91CF910895C8
S1130890CF92DF92EF92FF920F931F93CF93DF9348
S11308A06C018C01095F1F4FC0E0D0E0E62EF12CF3
S11308B0B7010C2E02C0759567950A94E2F7617032
S11308C0F80181918F010E94E5002196C430D10581
S11308D079F7C6010E942A04DF91CF911F910F91ED
S11308E0FF90EF90DF90CF900895CF92DF92EF9238
S11308F0FF920F931F93CF93DF936C018C01095FD9
S11309001F4FC0E0D0E0E62EF12CB7010C2E02C040
S1130910759567950A94E2F76170F80181918F01EA
S11309200E94E5002196C830D10579F7C6010E94DE
S11309302A04DF91CF911F910F91FF90EF90DF90E8
S1130940CF9008951F93CF93DF93EC01162F642F5C
S11309508C810E94E5008D818F3F19F060E00E9438
S1130960E5008F8584FF05C0612FCE010E947504C8
S113097011C0612F70E075956795759567957595AC
S1130980679575956795CE010E944804612FCE0145
S11309900E944804DF91CF911F91089540E061E0E7
S11309A00E94A20480ED97E00E94CD010895FC010D
S11309B0443008F043E08389481710F04FEF480FA4
S11309C0DF01A40FB11D54969C91690F606840E04B
S11309D0CF010E94A2040895FC016089262F24609F
S11309E0208B6C6040E00E94A2040895AF92BF92F5
S11309F0CF92DF92EF92FF920F931F93CF93DF93E7
S1130A00EC01423018F08F8588608F874B8B1C8AED
S1130A1080E48D8B6E8B70E0605C7F4F6F8B222344
S1130A2029F0413019F48F8584608F8761E08C81CF
S1130A300E9432018D818F3F19F061E00E943201E2
S1130A4061E08E810E9432017E0187E0E80EF11C94
S1130A5000E010E06894AA24A3F8B12C6894CC2494
S1130A60C2F8D12C8F8584FD03C08C2D9D2D02C02E
S1130A708A2D9B2D081719074CF461E0F701819129
S1130A807F010E9432010F5F1F4FECCF80E593EC92
S1130A900E94CD0160E08C810E94E50060E08E81BF
S1130AA00E94E5008D818F3F19F060E00E94E5000F
S1130AB06F8564FD1DC063E0CE010E94480484E993
S1130AC091E10E94CD0163E0CE010E94480484E9D3
S1130AD091E10E94CD0163E0CE010E94480486E9C1
S1130AE090E00E94CD0162E0CE010E94480419C04A
S1130AF0606240E0CE010E94A20484E991E10E9478
S1130B00CD016F85606240E0CE010E94A20486E9B7
S1130B1090E00E94CD016F85606240E0CE010E94AA
S1130B20A2046F85606240E0CE010E94A20484E0CA
S1130B30888BCE010E94EC04CE010E94CE0482E098
S1130B40898B40E066E0CE010E94A204DF91CF9140
S1130B501F910F91FF90EF90DF90CF90BF90AF90D7
S1130B600895CF92EF920F93FC011382128288E0D2
S1130B7091E09183808364838FEF85834683278309
S1130B800087E186C2861386148615861686178624
S1130B9020E041E060E1CF010E94F6040F91EF9064
S1130BA0CF90089540E068E10E94A204089540E0D7
S1130BB06CE10E94A204089541E00E94A20481E035
S1130BC090E0089508950895089508950895089566
S1130BD080910102909102028093E4010895809132
S1130BE00502823011F40E94E80508958091010203
S1130BF090910202089580910102909102028093E3
S1130C00E301089580910502823069F01CF4882381
S1130C1031F008958330F9F0843009F1089582E0C9
S1130C208093050208950E94F60580910102909137
S1130C3002022091E401821B910927FD93950397F9
S1130C4020F483E080930502089584E080930502F4
S1130C500E94FB05089582E080930502089582E0D6
S1130C608093050208958091EC01893019F48FEF87
S1130C708093EC01E091EC01EF5FE093EC01F0E094
S1130C80EE0FFF1FE351FE4F8091E5019091E601C5
S1130C9091838083089560910301653050F46F5F00
S1130CA06093030183E3689FB00111248AE00E94EA
S1130CB06E01089560910301623050F061506093B9
S1130CC0030183E3689FB00111248AE00E946E014E
S1130CD008958091EB0189301CF08FEF8093EB0134
S1130CE0E091EB01EF5FE093EB01EE0FFF0BE351BB
S1130CF0FE4F8081918108958091EB0118161CF0BC
S1130D008AE08093EB01E091EB01E150E093EB0189
S1130D10EE0FFF0BE351FE4F8081918108951092F5
S1130D20E6011092E5011092EA011092E901109295
S1130D30020210920102089580910502823091F01E
S1130D402CF4882341F0813051F00895833079F0F8
S1130D508430A1F0089582E08093050208950E94F2
S1130D60330608950E9433060E948F0608950E9458
S1130D707C069093E6018093E50108950E94FB05AB
S1130D800E945A0608958091010290910202909364
S1130D90EA018093E9019093E6018093E5010895C7
S1130DA08091E9019091EA019093020280930102FB
S1130DB00895809105028230A9F02CF4882341F033
S1130DC0813051F00895833099F08430C1F0089552
S1130DD082E08093050208950E94C30682E0809316
S1130DE0050208950E94D00681E0809305020895CB
S1130DF00E9469069093E6018093E50108950E949C
S1130E00FB058091E9019091EA012091E70130917D
S1130E10E8012817390721F09093E8018093E7014E
S1130E200E944B060895CF93C82F40E06DE089ECF3
S1130E3091E00E94D704C23081F01CF4C13031F03B
S1130E4020C0C33089F0C430B1F01BC060E171E050
S1130E5089EC91E00E94730214C064E171E089ECB2
S1130E6091E00E9473020DC068E171E089EC91E0A9
S1130E700E94730206C06CE171E089EC91E00E946B
S1130E807302CF91089580910502811148C0809129
S1130E90E1019091E2010097C9F440E060E089EC3F
S1130EA091E00E94D70460E271E089EC91E00E9435
S1130EB0730241E060E089EC91E00E94D70468E3AA
S1130EC071E089EC91E00E9473020FC080FD0DC0B7
S1130ED080910201882329F089EC91E00E94D205D7
S1130EE004C089EC91E00E94D7058091E1019091C2
S1130EF0E201409754F09091020181E089278093A8
S1130F0002011092E2011092E1018091E1019091BD
S1130F10E20101969093E2018093E101089589EC46
S1130F2091E00E94CE0480910502813041F48091C9
S1130F300102909102029093E6018093E501809171
S1130F400502843061F480910102909102022091A3
S1130F50E301821B910927FD9395069708F540E06C
S1130F6060E089EC91E00E94D70460E571E089ECCF
S1130F7091E00E947302809105020E94130740E0F1
S1130F8060E089EC91E00E94D7046091E5017091E2
S1130F90E6014AE050E089EC91E00E9422020895C3
S1130FA082E080930502DBCF0E94A5030E94C80360
S1130FB061E070E089ED96E00E94520361E070E028
S1130FC082EE95E00E945F0362E070E08CE996E0B7
S1130FD00E94520362E070E083EE95E00E945F039A
S1130FE063E070E084EE95E00E94520363E070E0F9
S1130FF085EE95E00E945F0360E070E086EE95E088
S11310000E94520360E070E087EE95E00E945F0367
S113101064E070E082E096E00E94520364E070E0D5
S11310208FEE95E00E945F03EDEEF1E081E092E047
S113103011921192E817F907D9F720E042E060E134
S113104089EC91E00E94F6046091030183E3689FB8
S1131050B00111248AE00E946E0140E060E089EC56
S113106091E00E94D70461E671E089EC91E00E946E
S1131070730241E060E089EC91E00E94D70462E7EA
S113108071E089EC91E00E94730210920502F894D9
S1131090A0EBB0E01C92E1EBF0E010828C91826056
S11310A08C93A0E7B0E08C9181608C931092B20095
S11310B0808187608083789408950E94D003089586
S11310C01F920F920FB60F9211242F933F934F93B9
S11310D05F936F937F938F939F93AF93BF93EF939C
S11310E0FF931092B20040910302509104024F5FAB
S11310F05F4F9A01A3E9B1E20E941A099695879578
S113110096958795969587956DE3689F9001699F5D
S1131110300D1124CA01821B930B90930402809317
S113112003028091030290910402892B69F4809157
S113113001029091020201969093020280930102AF
S113114083E497E00E94FC03FF91EF91BF91AF917C
S11311509F918F917F916F915F914F913F912F91CB
S11311600F900FBE0F901F901895CF92EF920F9390
S11311700F2EF7E0CF2EF02D0F2EF6E0EF2EF02DF0
S113118005E024E049E068E089EC91E00E94B105C3
S11311900F91EF90CF900895789484B5826084BDC8
S11311A084B5816084BD85B5826085BD85B5816067
S11311B085BD80916E00816080936E0010928100E5
S11311C080918100826080938100809181008160A0
S11311D08093810080918000816080938000809161
S11311E0B10084608093B1008091B00081608093ED
S11311F0B00080917A00846080937A0080917A00B4
S1131200826080937A0080917A00816080937A0072
S113121080917A00806880937A001092C1000E94C5
S1131220D407C0E0D0E00E945D082097E1F30E945B
S11312300000F9CFA29FB001B39FC001A39F700D1E
S1131240811D1124911DB29F700D811D1124911DCA
S11312500895EE0FFF1F0590F491E02D0994A1E28B
S11312601A2EAA1BBB1BFD010DC0AA1FBB1FEE1F1C
S1131270FF1FA217B307E407F50720F0A21BB30B67
S1131280E40BF50B661F771F881F991F1A9469F7E3
S113129060957095809590959B01AC01BD01CF013F
S10912A00895F894FFCF4D
S11312A6FFFF010400000000DC0575022604290482
S11312B64D4341004D5020004D5654004D414400CD
S11312C653697374656D617320456D626562696403
S11312D66F7320323031390032646F204C616220E2
S11312E632646F20437561742E20436F6D2037007E
S11312F620202020202020202020202020202020E4
S1131306004C6162203220536973742E20456D624D
S11313162E0032646F2E43203230313920434F4D34
S1071326203300006C
S9030000FC
